:020000040000FA
:10000000803143280A3008007E1480312E00161CEF
:100010000A280B2813280C1C0E280F2813288E31B1
:100020008E26803141280B1F162817284128991C3D
:100030001A281B2820288F1C1E281F28202841280A
:10004000191C2328242829280F1C27282828292878
:1000500041281A1C2C282D283528101C302831281E
:1000600035288731CE27803141289A1C38283928F5
:100070004128901C3C283D2841288E31942680310F
:1000800041287E10090080314528FB3084008730EC
:1000900085001200E3001200E4001200E5001200E7
:1000A000E6001200E700F801F901FA01433084008C
:1000B0000030850020308E31AC2680317E1020004B
:1000C000813171290730F3007030F4008E31FA2647
:1000D00080312000A2002208F5000830F3007030C3
:1000E000F4008E31FA2680312000A3002308F600A8
:1000F00021088A0020080A0080312000A40024087A
:10010000AE000630F3007030F4008E31FA268031F4
:100110002000A2002208F5002E08A3002308F60004
:1001200021088A0020080A0080312000A400240849
:10013000A8000530F3007030F4008E31FA268031CB
:100140002000A2002208F5002808A3002308F600DA
:1001500021088A0020080A0080312000A400240819
:10016000A9000430F3007030F4008E31FA2680319B
:100170002000A2002208F5002908A3002308F600A9
:1001800021088A0020080A0080312000A4002408E9
:10019000AA000330F3007030F4008E31FA2680316B
:1001A0002000A2002208F5002A08A3002308F60078
:1001B00021088A0020080A0080312000A4002408B9
:1001C000AB000230F3007030F4008E31FA2680313B
:1001D0002000A2002208F5002B08A3002308F60047
:1001E00021088A0020080A0080312000A400240889
:1001F000AC000130F3007030F4008E31FA2680310B
:100200002000A2002208F5002C08A3002308F60015
:1002100021088A0020080A0081312000A400240857
:10022000B0000930F3007030F4008E31FA268031CE
:100230002000A2002208AD000A30F3007030F40064
:100240008E31FA2680312000A2002208AF002D084E
:10025000A2002208F5002F08A3002308F6002108B9
:100260008A0020080A0081312000A4002408AE0082
:100270003008A2002208F5002E08A3002308F6008B
:1002800021088A0020080A0081312000A4002408E7
:10029000B00069293008A2002208F5000130A3004F
:1002A0002308AF072F08A400A5012408F3002508A0
:1002B000F4008E31FA2680312000A6002608F600D0
:1002C00021088A0020080A0081312000A7002708A1
:1002D000B0002D082F02031C6E296F294A2930080F
:1002E000080087302000B1000E30B2008731B627F9
:1002F000813187319D2781318B170B170A30F3002D
:100300000430F4008E319A2681315730F3000F30DB
:10031000F4008E31A02681318E31EE26813120000D
:10032000931513163E00CF154F16630000000B13F4
:1003300020005C0803199D299E29A229DC018E3129
:10034000CC268131200057080319A729A829E929BB
:10035000D7010B178F31762781312000B400340884
:10036000D90059080139B400B40E16083406EF3923
:100370003406960059360139B400B40EB40D16088F
:100380003406DF39340696008031022081312000A6
:10039000B4003408DA008731E52781312000630892
:1003A0005902031CD429D529DB2964085A020318F1
:1003B000DA29DB29EA295B03031DDF29E029EA2981
:1003C0005808031DE429E529EA298531ED25813105
:1003D000EA290B17200058080319EF29F0293B2AB6
:1003E0007808B400B5017A08B600B7013608F30002
:1003F0003708F4001030F5000E30F6008631CF26B5
:10040000813173082000B8007408B9007908BA0077
:10041000BB013A08F3003B08F4003C30F500003023
:10042000F6008631CF268131730820003807BC00E2
:100430007408393DBD0034083C07BE0035083D3D19
:10044000BF0047083E02C00048083F3BC1004108CA
:10045000803AC20080304202031D302A033040023D
:10046000031C332A342A3B2AFF30F3000330F40004
:100470008F31BE2781312E00161020005D08031930
:10048000422A432A522ADD01DF011716863130261F
:1004900081310A30F3000430F4008E319A26813124
:1004A0002E000C102E0016149529803143280A3096
:1004B000F3000030F4007A082000A400A50124080D
:1004C000F5002508F6008331AA2382317308200045
:1004D000A6002608A9000A30F3000030F4007A08CC
:1004E000A400A5012408F5002508F6008431BE24E7
:1004F000823173082000A6002608AA000230A4005A
:100500002408F50029088631A52682312000A5009F
:100510002508A90002302906031D8F2A902AA42A43
:1005200004302A02031C952A962A972AAA0103302E
:10053000A4002408F5002A088631A526823120006F
:10054000A5002508AA00B02A0930A4002408F50057
:100550002A088631A52682312000A5002508AA0098
:100560000A30F3000030F4007908A400A501240843
:10057000F5002508F6008331AA2382317308200094
:10058000A6002608A7000A30F3000030F40079081E
:10059000A400A5012408F5002508F6008331AA234C
:1005A000823173082000A6002608A8000530A400A8
:1005B0002408F50027088631A52682312000A500F1
:1005C0002508A7000930A4002408F5002808863172
:1005D000A52682312000A5002508A8000A30A40025
:1005E0002408F30029088F31A927823120002A0727
:1005F000A5002508FA000A30A4002408F300270803
:100600008F31A927823120002807A5002508F9008D
:100610008E31CC26823108002000A6000930F3007C
:100620007030F4008E31FA2683310A3E2000A70094
:10063000703003187130A8002708FE3EF300FF3029
:10064000283DF4008E31FA26833120002206031D56
:100650002A2B2B2B3C2B2708FF3EF300FF30283D95
:10066000F4008E31FA26833120002306031D392B36
:100670003A2B3C2B0030A92B0130F3007030F400F2
:100680008E31FA268331053E2000A4007030031815
:100690007130A50028082502031D502B27082402CD
:1006A0000318532B542B582B0A30A7007030A80086
:1006B0002808F4002708F3002608A4002408F50001
:1006C00087310F27833120002708013EF3000030D7
:1006D000283DF4002008A4002408F50087310F27E6
:1006E000833120002708023EF3000030283DF4004B
:1006F0002108A4002408F50087310F27833120004A
:100700002708033EF3000030283DF4002208A4002F
:100710002408F50087310F27833120002708043E85
:10072000F3000030283DF4002308A4002408F5005D
:1007300087310F2783310930F3007030F400200037
:100740002708FB3EA4002408F50087310F278331DA
:10075000013008002000A101F41FAF2BB02BB72BF4
:10076000F309F409F30A0319F40AA101A10AF61F17
:10077000BA2BBB2BC42BF509F609F50A0319F60AA7
:100780000130F7007708A106A201A30173087404E1
:100790000319CB2BCC2BFB2BA001A00AD82B0130AB
:1007A000F335F40D890BD02B0130F7007708A00743
:1007B000F41FDB2BDC2BCF2B0130A235A30D890BD3
:1007C000DD2B74087602031DE72B73087502031CEA
:1007D000EA2BEB2BF02B7308F5027408F63B22147E
:1007E0000130F436F30C890BF12B0130A002031D0C
:1007F000FA2BFB2BDC2B21080319FF2B002C052CDB
:10080000A209A309A20A0319A30A2308F4002208D3
:10081000F300080003102000961F03140318112C86
:10082000142C20009617162C200096136708031D21
:100830001A2C1B2C1C2C652C4A08F1004908F000CE
:10084000C90A0319CA0A7108803AF200803072029C
:10085000031D2C2C67087002031C2F2C302C372C06
:100860002000C901CA010130F0007008D7003B30F8
:10087000780203183C2C3D2C422C0130F00070080B
:10088000F8075B2CF8013B3079020318482C492CFF
:100890004E2C0130F0007008F9075B2CF90117307D
:1008A0007A020318542C552C5A2C0130F000700891
:1008B000FA075B2CFA017808031D5F2C602C652C6D
:1008C0000130F00070082000DC0008000A30F3005E
:1008D0000030F40020006408A400A5012408F500FD
:1008E0002508F6008331AA23843173082000A6006E
:1008F0002608A8000A30F3000030F4006408A400C1
:10090000A5012408F5002508F6008431BE248431B1
:1009100073082000A6002608A7000530A4002408BC
:10092000F50028088631A52684312000A500250879
:10093000A80005302806031D9E2C9F2CA42C3230C5
:10094000A4002408E400BD2C0930A4002408F5000C
:1009500027088631A52684312000A5002508A70098
:100960000A30A4002408F30028088F31A927843115
:1009700020002707A5002508E40008002000A101A9
:10098000F61FC32CC42CCB2CF509F609F50A031964
:10099000F60AA101A10AF41FCE2CCF2CD42CF30906
:1009A000F409F30A0319F40A730874040319D92C1F
:1009B000DA2C032DA001A00AE62C0130F335F40D4A
:1009C000890BDE2C0130F7007708A007F41FE92C13
:1009D000EA2CDD2C74087602031DF02C73087502D6
:1009E000031CF32CF42CF82C7308F5027408F63B66
:1009F0000130F436F30C890BF92C0130A002031DF1
:100A0000022D032DEA2C21080319072D082D0D2D89
:100A1000F509F609F50A0319F60A7608F4007508CF
:100A2000F3000800F400740823008C00901F192DB7
:100A30001A2D1B2D5C2D0F301005F30008307306A6
:100A40000319232D242D3A2D0F301005F3000B3000
:100A5000730603192C2D2D2D3A2D10162E000F1C68
:100A6000322D332D2E2D23000F19372D382D5C2DCF
:100A70000F085C2D0F301005F300083073060319C2
:100A8000422D432D4C2D0F301005F3000B30730613
:100A9000031D4B2D4C2D5C2D0F184F2D502D4C2D23
:100AA0000F0C890C0139F30011081F397304031D61
:100AB0005A2D5B2D502D110808008E2D0310961F06
:100AC00003140318642D672D20009617692D20004C
:100AD0009613A52D0310161F03140318702D732DE4
:100AE00020001617752D20001613A52D0310961E35
:100AF000031403187C2D7F2D20009616812D2000D5
:100B00009612A52D0310161E03140318882D8B2D85
:100B1000200016168D2D20001612A52D200060082D
:100B2000F000F1017108003A0319972DA52D700806
:100B3000003A03195E2D013A03196A2D033A03198D
:100B4000762D013A0319822DA52D080020009A0167
:100B50009901960197019801073095000F30910097
:100B6000FF309200FF309300FF309400FF303E00D2
:100B7000D900C730CE00EF30C3000730E4000F309B
:100B8000B800DA01E501C401B901CF01E601BA01FB
:100B9000C501D001DB01FF30BB00FF30C600FF30D4
:100BA000D100FF30DC000730E700FF30BC00FF3031
:100BB000C700FF30D200FF30DD000730E8000C3006
:100BC0003D0090001330C50014303E00A3001530E6
:100BD000A40014303D00C60008002000D801D80A47
:100BE0008F3166278531FA30F3000030F4008F3101
:100BF000BE2785318E318A26853178082000A200F3
:100C0000A3017A08A400A5012408F3002508F40034
:100C10001030F5000E30F6008631CF26853173088E
:100C20002000A6007408A7007908A800A9012808D8
:100C3000F3002908F4003C30F5000030F60086315E
:100C4000CF268531730820002607AA007408273DA7
:100C5000AB0022082A07C70023082B3DC800080064
:100C60002000E00100308E31D62686315D30F30061
:100C70000530F4008E319A268631682E87314B2755
:100C8000863187312D27863120005F080319492ED0
:100C90004A2E542EDF010130AE002E08E00700304E
:100CA0008E31D6268631682E5E080319582E592EAD
:100CB000682EDE0100308E31D62686312000600895
:100CC00086317026863101302000AE002E08E00704
:100CD000043020006002031C6E2E6F2E3E2E080092
:100CE0002000AD008E3184268631862E8231572237
:100CF00086319D2E8E31E22686319D2E84316624EA
:100D000086319D2E8F313A2786319D2E20002D0869
:100D1000AB00AC012C08003A03198F2E9D2E2B0836
:100D2000003A0319762E013A03197A2E033A031971
:100D30007E2E013A0319822E9D2E8E318126863118
:100D400000308E31D62686310800F70077088E31C4
:100D5000D626863187314B27863187312D2786313C
:100D600020005E080319B52EB62EC72EDE01013015
:100D7000F6007608F707770875020318C02EC12E13
:100D8000C22EF70177088E31D6268631AA2E5F084B
:100D90000319CB2ECC2EAA2EDF01770808002000E5
:100DA000A001A101731CD52ED62EDB2E75082000C4
:100DB000A0077608A13D0130F535F60D890BDC2E34
:100DC0000130F436F30C890BE12E73087404031D13
:100DD000EA2EEB2ED22E20002108F4002008F3008A
:100DE000080024008F0190010430910086308D00AE
:100DF000E8308C000D082000D60024000C082000EC
:100E0000D5002E0010101A147930F3000E30F400C3
:100E10008E319A268631053024008E00080000307D
:100E20008B1B0130F600740830009B0073089A0099
:100E300075089C001E171E158B1355309F00AA3095
:100E40009F009E149E18252F262F222F1E11760CF0
:100E5000031C8B1303188B17080020006108031D67
:100E6000322F332F432F8E1A362F372F4A2F213010
:100E7000F3007630890B3A2FF30B3A2F0032200023
:100E8000E101E10A4A2F8E1E462F472F4A2FE1012A
:100E9000DE01DE0A080020006208031D502F512FDA
:100EA000612F0D1A542F552F682F2130F300763003
:100EB000890B582FF30B582F00322000E201E20A71
:100EC000682F0D1E642F652F682FE201DF01DF0AF6
:100ED00008000F3023001005F300083073060319D3
:100EE000722F732F7C2F0F301005F3000B30730619
:100EF000031D7B2F7C2F7D2F91150F1C802F812FA1
:100F00007D2F0C0808002000A1000730F30070308E
:100F1000F4002108A0002008F50087310F27873151
:100F20000830F3007030F40077082000A00020089B
:100F3000F50087310F27873108008E31B2268731BF
:100F40008531A62587318E31C32687318F312D27F4
:100F500087318F31D42787318F31EA278731863126
:100F6000F12687318F312027873108002000320891
:100F7000A1003108A000803162208731F700770896
:100F80002000B3000030F3007030F4003308F700A5
:100F90007708F50087310F27873108002E001010E1
:100FA00020005608F1005508F0008F318627873160
:100FB0002000530854040319DE2FDF2FE42F5408B8
:100FC0008A0053080A008731080079082000A90028
:100FD0002908A0007808AA002A08A1005A08AB0036
:100FE0002B08A2005908AC002C08A3007A08833112
:100FF0000C23873108000234193403341E340534BD
:101CF00008000800080025008E13080025008E1734
:101D0000080024000E14080024000E1008007508B6
:101D1000760608008E317E268E3108002E000C10CB
:101D20008F3106278E3108002E0090108F31132737
:101D30008E31080074082000D4007308D300080016
:101D400074082000D2007308D10008007408200035
:101D5000CC007308CB000800640080010131890BBE
:101D6000AD2E00342F0096019701980199019A0138
:101D70009B0108008F3148278E318E317B268E31B2
:101D80002000D8010800623031008D008F019101E0
:101D9000023093009201080079082000A200220876
:101DA000F7007A08873183278E310800F400740821
:101DB000F3000330F335FF3E031DDA2E73352000A8
:101DC00096000800F501F50A20005B088631A5267B
:101DD0008E312000A0002008DB0008002300901AAC
:101DE000F22EF32EF92E8F0128309000910103304E
:101DF0008D000800740830009B0073089A001E17BD
:101E00001E140000000030001C08080020005108CB
:101E1000520403190C2F0D2F122F52088A0051085B
:101E20000A008F31080020004B084C040319192FB9
:101E30001A2F1F2F4C088A004B080A008F31080008
:101E40002E000C100B147830F3000E30F4008E319D
:101E5000A0268F312E0016140800803027008E0037
:101E6000FF308D00C0308C0024001F08F339043887
:101E70009F00080003302000A0002008F500630840
:101E80008631A5268F312000A1002108E30008003B
:101E900055303D008F00AA308F000F103E00960194
:101EA00055303D008F00AA308F000F14080020002D
:101EB000580803195C2F5D2F612F8E31BA268F31A0
:101EC000652F0130F0007008DD00080055303D003E
:101ED0008F00AA308F000F100E303E009600553054
:101EE0003D008F00AA308F000F14080000308F31A2
:101EF00097278F3173082000A0007408A1000E30CE
:101F0000A136A00C890B802F2008080024000E1D8C
:101F10008A2F8B2F922F0E1071088D0070088C0065
:101F20000E14962F71088D0070088C000800F600C2
:101F3000760821009E00931713131314000021004C
:101F40001318A32FA42F9F2F0D08F4000C08F300E3
:101F50000800F600F501761CAE2FAF2FB32F7308E3
:101F6000F4007408F5070310F30D0310F60C76085F
:101F7000031DBB2FBC2FAB2F750808007408F6009B
:101F80007308F500F636F50CF636F50C75082700E3
:101F90008D0073080339F5000530F535FF3E031D4C
:101FA000CD2F75358C00080022008E018F01900125
:101FB0009101920193018D0121009E019B019401E9
:101FC0009501960197019A0199019801803093003B
:101FD0009D0108000130250090008F019101FF3024
:101FE0008D008C012E0090109A147A30F3000E3080
:101FF000F4008E31A6268F31803025008E00080037
:020000040001F9
:0A000E00EC3FFF379F3FFF3FFF3F2D
:00000001FF
