:020000040000FA
:1000000080315528080008007E1480312E00161C0F
:100010000A280B2813280C1C0E280F2813289231AD
:10002000FE22803153280B1F162817285328991CAD
:100030001A281B2820288F1C1E281F2820285328F8
:10004000191C232824282A280F1C272828282A2876
:1000500053285328191E2D282E2839280F1E3128E1
:1000600032283928210068088A0067080A00803190
:100070005328991E3C283D2848288F1E4028412897
:100080004828210066088A0065080A008031532844
:100090001A1C4B284C282928101C4F285028292886
:1000A00095312E2580317E10090080315728FA01C4
:1000B000FB016830840000308500083093313A231A
:1000C0008031A0308400003085003F3093313A23E6
:1000D00080312030840001308500163093313A237E
:1000E00080317E102000803175289531AD2580311A
:1000F0009331BC2380318D313B25803193315023A6
:1001000080318B170B178630F2000B30F3009331E0
:100110000A2380312F30F2001430F30093312E2364
:1001200080319C30F2001430F3009331222380316F
:100130009331DF2380312000931513163E00CF1535
:100140004F160B13210058080319A728A828AC281C
:10015000D8019331B223803120006A08D9005908B0
:100160002100D50020006908D90059082100D400D9
:1001700020006808D90059082100D3004F0803194E
:10018000C228C328CA284F082000D90059082100D6
:10019000CE00CF015A080319CE28CF28D6285A08F6
:1001A00020006D020318D528D628572920006D0895
:1001B0000319DB28DC2857290130D9005908210010
:1001C000DA000B1794313E2480312000D900590801
:1001D0002100D100510801392000D900D90E16089C
:1001E0005906EF3959069600210051360139200091
:1001F000D900D90ED90D16085906DF3959069600CF
:1002000083311F2380312000D90059082100D200FA
:1002100054082000D9005908A400210053082000E8
:10022000DA005A08A500210052082000DB005B0814
:10023000A600210051082000DC005C08A700210076
:1002400055088131F4218031003A031928292929E0
:100250002C298D31DE258031210056085102031CE6
:10026000322933293A29520820006C02031839290F
:100270003A29582920006B03031D3F29402958299A
:1002800021005008031D45294629582954082000FB
:10029000D9005908A000210053082000DA005A08AC
:1002A000A100210055088B314123803158290B17BB
:1002B0002200B601B70164298C315C248031013001
:1002C0002200B6070030B73D3708803A2000D90039
:1002D00080305902031D702921004E082200360289
:1002E000031C732974295C292100CE012E001610ED
:1002F0002100500803197D297E29D6292E001614C5
:10030000210053082000D900DA01210055082000FF
:10031000DB00DC015B08F4005C08F5001030F6003F
:100320000E30F70096310426803174082000DD007D
:100330007508DE00210054082000DF00E0015F089E
:10034000F4006008F5003C30F6000030F70096310C
:1003500004268031740820005D07E10075085E3DC9
:10036000E20059086107E3005A08623DE4002100F9
:10037000430820006302E500210044082000643B9C
:10038000E6006608803AE70080306702031DCC294A
:100390002100570820006502031CCF29D029D82945
:1003A00094314D24803120001617D8292E001614C0
:1003B0002E001610210059080319DF29E029EF2922
:1003C000D9018A31FE2280310B138630F2000B30C6
:1003D000F30093310A2380310B172E000C102E00EE
:1003E0001614A128803155282000AC000A30F200F4
:1003F000F030F3009331D32381312000A800A9010C
:100400002808AD002908AE002E08F5002D08F400DC
:100410000530F6000030F70096310426813174086B
:100420000B3E2000AF00F030753DB0002D082E04CB
:1004300003191B2A1C2A612A2F08FE3EF200FF30F6
:10044000303DF3009331D323813120002606031D74
:100450002A2A2B2A612A2F08FF3EF200FF30303D66
:10046000F3009331D323813120002706031D392A5D
:100470003A2A612A9631422681312000A8000230B2
:10048000F4000030F5009331802381312000A90071
:10049000AA012908F6002A08F7008F313D2781318B
:1004A0007508803A2000AB0080302B02031D5A2AC9
:1004B00028087402031C5D2A5F2A0130602A00307C
:1004C0001E2B0130F200F030F3009331D323813141
:1004D0002000A800A9012808F4002908F50005302B
:1004E000F6000030F7009631042681317408063E8C
:1004F0002000AA00F030753DAB0030082B02031D30
:10050000832A2F082A020318862A872A962A0B3064
:10051000AF00F030B0000930A000F030A10055303D
:10052000A8002808A200973109278131200030084F
:10053000A1002F08A0002C08A8002808A2009731CD
:100540000927813120002F08013EA0000030303DF6
:10055000A1002408A8002808A200973109278131AA
:1005600020002F08023EA0000030303DA1002508E9
:10057000A8002808A20097310927813120002F0800
:10058000033EA0000030303DA1002608A800280846
:10059000A20097310927813120002F08043EA000D6
:1005A0000030303DA1002708A8002808A20097319C
:1005B000092781310A302000A000F030A100053069
:1005C000F2000030F3002F08FA3EF4000F30303D07
:1005D000F5008A313F22813172082000A8002808E6
:1005E000A20097310927813100302000A000F030AF
:1005F000A1000530F2000030F3002F08FA3EF400AD
:100600000F30303DF5008A313F22813172082000E1
:10061000A8007308A9000030F200F030F300933115
:10062000D323813120002807AA002D082A02AB001D
:100630002B08A2009731092781313A2A08002300AC
:100640000F0C890C0139F40011081F397404031DC3
:100650002A2B2B2B1F2B111411182F2B302B2C2B4B
:100660000F0C890C0139F40011081F397404031DA3
:100670003A2B3B2B302B9A308C31A524833123002D
:100680000F0C890C0139F40011081F397404031D83
:100690004A2B4B2B3F2B01308C31A5248331230077
:1006A0000F0C890C0139F40011081F397404031D63
:1006B0005A2B5B2B4F2B911491185F2B602B5C2BCB
:1006C0000F0C890C0139F40011081F397404031D43
:1006D0006A2B6B2B602B9B308C31A524833123003C
:1006E0000F0C890C0139F40011081F397404031D23
:1006F0007A2B7B2B6F2B953178258331F40074088E
:10070000F50023000F0C890C0139F40011081F3982
:100710007404031D8C2B8D2B812B91161116111A2D
:10072000922B932B8F2B0F0C890C0139F40011089D
:100730001F397404031D9D2B9E2B932B111511192A
:10074000A22BA32B9F2B751FA62BA72B1F2B0F0CA8
:10075000890C0139F40011081F397404031DB12BF1
:10076000B22BA72B11141118B62BB72BB32B0F0CD0
:10077000890C0139F40011081F397404031DC12BC1
:10078000C22BB72B9A308C31A524833123000F0C58
:10079000890C0139F40011081F397404031DD12B91
:1007A000D22BC62B00308C31A524833123000F0CB3
:1007B000890C0139F40011081F397404031DE12B61
:1007C000E22BD62B91149118E62BE72BE32B0F0C81
:1007D000890C0139F40011081F397404031DF12B31
:1007E000F22BE72B9B308C31A524833123000F0C97
:1007F000890C0139F40011081F397404031D012C00
:10080000022CF62B953178258331F4007408F5001D
:1008100023000F0C890C0139F40011081F397404EE
:10082000031D132C142C082C91161116111A192CB7
:100830001A2C162C0F0C890C0139F40011081F39E1
:100840007404031D242C252C1A2C11151119292C84
:100850002A2C262C750808002000B800933180232C
:1008600084312000AD002D08B900933198238431E4
:100870002000AD002D08BA0094315C248431003A88
:10088000031D432C442C4D2C20003A08AD00AE0132
:100890002D08B4002E08B500552C20003908AD00F5
:1008A000AE012D08B4002E08B5003408AD002D08A7
:1008B000B3003A082C0203185E2C5F2C792C2C080C
:1008C0003807AD00AE01AE0D2D08FF3EAF00FF3082
:1008D0002E3DB0003008803AB10080303102031D57
:1008E000732C3A082F02031C762C772CA82C00308E
:1008F000F62C2C083807AD00AE01AE0D2E08803A5C
:10090000803C031D852C2D0839020318882C892C66
:10091000A82C20002C083807AD00AE01AE0D2E0823
:10092000B00039082D02AF00031CB0032F08FF3EB2
:10093000B100FF30303DB2003208803A803C031DE8
:10094000A32C31083A020318A62CA72CA82C772C2C
:100950002000B601B701E82C20002C089631E626CD
:10096000843120002C087A06031DB72CB82CCE2C1D
:100970003908AD00AE012D08F2002E08F3007A0808
:10098000013EF400003003180130F5008D318B2555
:10099000843172082000AF002F08FA003308AD0040
:1009A000AE012D08F2002E08F3002C08013EF400E1
:1009B000003003180130F5008D318B258431720829
:1009C0002000AF002F08AC000130B6070030B73D63
:1009D0003708803AAD0080302D02031DF12C380815
:1009E0003602031CF42CF52CAC2C013008000A3024
:1009F000F4000030F50020006A08AC00AD012C08BE
:100A0000F6002D08F7008F313D278431740820004F
:100A1000AE002E08B1000A30F2000030F3006A0880
:100A2000AC00AD012C08F4002D08F5008D318B25AC
:100A3000843172082000AE002E08B2000230AC00F3
:100A40002C08F40031089731512784312000AD0083
:100A50002D08B10002303106031D2F2D302D442DFD
:100A600004303202031C352D362D372DB2010330F0
:100A7000AC002C08F4003208973151278431200053
:100A8000AD002D08B200502D0930AC002C08F40048
:100A900032089731512784312000AD002D08B20073
:100AA0000A30F4000030F5006908AC00AD012C08F4
:100AB000F6002D08F7008F313D278431740820009F
:100AC000AE002E08AF000A30F2000030F3006908D3
:100AD000AC00AD012C08F4002D08F5008D318B25FC
:100AE000843172082000AE002E08B0000530AC0042
:100AF0002C08F4002F089731512784312000AD00D5
:100B00002D08AF000930AC002C08F40030089731F4
:100B1000512784312000AD002D08B0000A30AC0010
:100B20002C08F20031089431C224843120003207AD
:100B3000AD002D08EA000A30AC002C08F2002F08A6
:100B40009431C224843120003007AD002D08E90023
:100B50009331B223843108002000C70093318023F1
:100B600085312000BB003B08C000933198238531BC
:100B70002000BB003B08C40094315C248531003A5E
:100B8000031DC32DC42DCD2D20004408BB00BC0186
:100B90003B08C2003C08C300D52D20004008BB0024
:100BA000BC013B08C2003C08C3004208BB003B0834
:100BB000C60047080319DD2DDE2D0D2E470895319F
:100BC00045258531023072067304031DE82DE92D99
:100BD0000D2E20004708860087010108C10046024B
:100BE000031CF32DF42D0D2E470886008701413F8D
:100BF000C5004608FF3EBB00FF3003180030BC00B4
:100C00003C08803ABD0080303D02031D092E450896
:100C10003B0203180C2E0D2E172EFF302000BB00B8
:100C20003B08F800CB30953118258531472E200040
:100C30004608BB00BC013B08F2003C08F300450835
:100C40004407F400F501F50D8D318B2585317208CF
:100C50002000BD003D08C5004508BB003B08AC00B6
:100C6000410884312C248531003A031D382E392E59
:100C7000432EFF302000BB003B08F800CB309531FD
:100C800018258531472EFE309331342385310800F5
:100C90002000AD002D0803194E2E4F2E572E0A307E
:100CA000A000F030A100A201973109278631013060
:100CB0002000A000F030A1002408AC002C08A20005
:100CC00097310927863102302000A000F030A100C2
:100CD0002508AC002C08A200973109278631033083
:100CE0002000A000F030A1002608AC002C08A200D3
:100CF00097310927863104302000A000F030A10090
:100D00002708AC002C08A20097310927863105304E
:100D10002000A000F030A1002808AC002C08A200A0
:100D200097310927863106302000A000F030A1005D
:100D30002908AC002C08A20097310927863107301A
:100D40002000A000F030A1002A08AC002C08A2006E
:100D500097310927863108302000A000F030A1002B
:100D60002B08AC002C08A2009731092786310930E6
:100D70002000A000F030A100AA30AC002C08A20096
:100D800097310927863100302000A000F030A10003
:100D90002408250726072707280729072A072B07DE
:100DA000AC002C08A20097310927863108002000EA
:100DB000CB004B08860087010108C8004808CA001C
:100DC0004B0895314525863172037304031DE92EC6
:100DD000EA2EED2E2000CC01342F20004B08013EDE
:100DE000C8004808CC00342F8731D1278631622FC4
:100DF0004C08873163278631622F9631232686314E
:100E0000622F9531C9258631622F4C0889315F21C7
:100E10008631622F4C08893195218631622F9631B7
:100E2000C3268631622F4C088A31BC228631622F5C
:100E30004C088831F8208631622F8E313126863178
:100E4000622F4C088F319D278631622F4C088531E7
:100E5000AC258631622FFF30C8004808F8004A08E8
:100E6000953118258631622F4A08C800C901490802
:100E7000003A03193C2F2B2F4808C03A0319F42ECF
:100E8000013A0319F82E033A0319FD2E013A03190A
:100E9000012F073A0319052F013A03190A2F033AC4
:100EA00003190F2F013A0319132F0F3A0319182FA3
:100EB000013A03191D2F033A0319212F013A03198F
:100EC000262F2B2F08002000B00030080319692FAF
:100ED0006A2FB02F300895314525873103307206CF
:100EE0007304031D742F752FB02F20003008860067
:100EF00087011830010203187E2F802F0130812FC7
:100F00000030AC002C08AD002D08031D882F892F60
:100F1000B02F300A860087013C3001020318912F60
:100F2000932F0130942F0030AC002C08AE002E0817
:100F3000031D9B2F9C2FB02F3008023E8600870197
:100F40003C3001020318A52FA72F0130A82F003035
:100F5000AC002C08AF002F080319AF2FB02FBA2F09
:100F6000FF302000AC002C08F800C1309531182566
:100F70008731D02F0B132D08AC002C08EA002E0867
:100F8000AC002C08E9002F08AC002C08E8000B1777
:100F90009331B2238731F801C1309531182587315B
:100FA00008000B1320006A08F8007808A3006908FD
:100FB000F8007808A4006808F8007808A5000B1766
:100FC00026308600003087000530F80000301E0013
:100FD000F80BE72FC030F8007808A6002308F800C7
:100FE0007808A7002408F8007808A8002508F80069
:100FF0007808A900AA01263088316E2087310800C0
:10100000F500750821009E009317131313140000B8
:10101000210013180C280D2808280D08F3000C08CF
:10102000F20008002000A7000030A000F030A1006E
:101030000530F200F030F3009331D32388312000E3
:10104000A4000030F200F030F3009331D323883154
:101050002000A500240825022707A6002608A200D4
:1010600097310927883105302000A000F030A10019
:101070002708A4002408A200973109278831080016
:101080002000A7000030A000F030A1000430F200E2
:10109000F030F3009331D32388312000A4000030D6
:1010A000F200F030F3009331D32388312000A50003
:1010B000240825022707A6002608A2009731092741
:1010C000883104302000A000F030A1002708A400DF
:1010D0002408A20097310927883108002000A200C7
:1010E000FD3097317B2788312000A001A10187289E
:1010F00020082207F700770886008701010897314A
:101100007B27883101302000A0070030A13D220854
:10111000953145258831730820002102031D92284E
:1011200072082002031C952896287828FE309731F3
:101130007B278831000008002000A7000030A000B5
:10114000F030A1000230F200F030F3009331D323ED
:1011500088312000A4000030F200F030F300933119
:10116000D32388312000A500240825022707A600E4
:101170002608A20097310927883102302000A000FC
:10118000F030A1002708A4002408A2009731092705
:10119000883108002000A7000030A000F030A10036
:1011A0000330F200F030F3009331D3238831200074
:1011B000A4000030F200F030F3009331D3238831E3
:1011C0002000A500240825022707A6002608A20063
:1011D00097310927883103302000A000F030A100AA
:1011E0002708A4002408A2009731092788310800A5
:1011F0002000A90029089531452588317203730420
:10120000031D032904290E292000290886008701CF
:1012100002300102031C0D290E291929FF3020007C
:10122000A8002808F800C83095311825883100003A
:1012300029292908860087010108A8002808EB0051
:101240006B089731D2278831F801C83095311825BD
:10125000883108002000B5009231F32289314029FD
:101260008431F7248931572994317B2489315729D6
:101270008E318426893157299431AE2489315729FA
:1012800020003508B300B4013408003A0319492995
:1012900057293308003A03193029013A0319342930
:1012A000033A03193829013A03193C295729923185
:1012B000F022893100309331C723893108002000A2
:1012C000A90029080319652966297A292908953171
:1012D0004525893172037304031D6F2970297A290A
:1012E000200029088600870164300102031C792947
:1012F0007A298429FF302000A8002808F800C4308B
:10130000953118258931942929088600870101081B
:10131000A8002808ED006D0888319C208931F8016B
:10132000C43095311825893108002000A90029080A
:1013300003199B299C29B029290895314525893114
:1013400072037304031DA529A629B02920002908CA
:10135000860087013D300102031CAF29B029BA295C
:10136000FF302000A8002808F800C5309531182566
:101370008931CB292908860087010108A80028089F
:101380002100D70057088831CA208931F801C530BB
:1013900095311825893108007B08A03E8600870119
:1013A000810122001D1DD529D629E1297B08A03EF7
:1013B000860087018114210064088A0063080A00FE
:1013C000893122009D1CE529E629F1297B08A03EF0
:1013D000860087010115210062088A0061080A0061
:1013E00089317B08A03E8600870101080319F9298D
:1013F000FA29012A210060088A005F080A00893161
:10140000042A95315E258931080005302000AE00A0
:101410002E08ED002130AE002E082100CB00033055
:101420002000AE002E082100D70019302000AE00A9
:101430002E08EC000230AE002E082100D60020005D
:10144000EB01EA01E9012130AE002E08A4000530CD
:10145000AF002F08A5000330B0003008A6001930F7
:10146000B1003108A7000230B2003208A800A9017B
:10147000AA01AB010130863148268A310800F80103
:10148000F901720873040319462A472A762AF701DC
:10149000F70A532A0130F235F30D890B4B2A01303C
:1014A000F6007608F707F31F562A572A4A2A013012
:1014B000F835F90D890B582A73087502031D622A45
:1014C00072087402031C652A662A6B2A7208F402E9
:1014D0007308F53B78140130F336F20C890B6C2A53
:1014E0000130F702031D752A762A572A7908F3007E
:1014F0007808F20008002E009912CC30F200093072
:10150000F300933122238A312E001912A130F20008
:101510001630F300933128238A31083022009F00CF
:1015200090309D0024309E0019309B009C010330B8
:10153000F2000030F300933116238A31FA30F200C2
:101540001230F30093311C238A31F630F20012304E
:10155000F300933110238A312100DB01DE01DD012C
:101560000830F4007408EF00FB012000EF012100B7
:10157000DC012E00991608002000A8002808031995
:10158000C22AC32AE12A2808953145258A3102302A
:1015900072067304031DCD2ACE2AE12A20002808F2
:1015A00086008701333001020318D72AD82AE12A9E
:1015B000280A8600870104300102031CE02AE12A80
:1015C000EB2AFF302000A7002708F800C73095312C
:1015D00018258A31FD2A2808860087010108A700FE
:1015E0002708EC00280886008701413F2100D6002B
:1015F000F801C730953118258A3108002000EE0126
:1016000000309331C7238A310B131330F2000C30B2
:10161000F30093310A238A310B17392B9631612657
:101620008A31963181268A3121004C080319192B01
:101630001A2B252BCC0101302000B6003608EE070E
:1016400000309331C7238A31392B4D080319292BD8
:101650002A2B392BCD0100309331C7238A3120004A
:101660006E0889312A218A3101302000B6003608FF
:10167000EE07043020006E02031C3F2B402B0E2B84
:1016800008002000AC002100D001D00A94316B2466
:101690008B31FA30F2000030F3009431EC248B31BE
:1016A00020002108A200A3012C08A400A501240801
:1016B000F4002508F5001030F6000E30F7009631E2
:1016C00004268B3174082000A6007508A7002008A6
:1016D000A800A9012808F4002908F5003C30F6000C
:1016E0000030F700963104268B317408200026075D
:1016F000AA007508273DAB0022082A072100C30075
:10170000200023082B3D2100C40008000310200006
:10171000961F031403188D2B902B20009617922BE5
:10172000200096136D080319962B972B9C2B0130E4
:10173000F00070082100DA073B302000680203182F
:10174000A22BA32BA82B0130F0007008E807C12BB7
:10175000E8013B3069020318AE2BAF2BB42B0130EC
:10176000F0007008E907C12BE90117306A0203187D
:10177000BA2BBB2BC02B0130F0007008EA07C12B3D
:10178000EA016808031DC52BC62BCB2B0130F000E6
:1017900070082100D80008002000AA000030A00036
:1017A000F030A1000830F200F030F3009331D32381
:1017B0008B312000A5000730F200F030F3009331A8
:1017C000D3238B312000A6000030F200F030F3006C
:1017D0009331D3238B312000A70026082702A800CD
:1017E000250828022A072407A9002908A200973102
:1017F00009278B3107302000A000F030A1002A0813
:10180000A5002508A200973109278B310830200058
:10181000A000F030A1002408A5002508A2009731FF
:1018200009278B310800442C0310961F031403185A
:101830001A2C1D2C200096171F2C200096135B2CB1
:101840000310161F03140318262C292C200016172A
:101850002B2C200016135B2C0310961E0314031868
:10186000322C352C20009616372C200096125B2C3B
:101870000310161E031403183E2C412C20001616CC
:10188000432C200016125B2C20006E08F000F101A2
:101890007108003A03194D2C5B2C7008003A0319AB
:1018A000142C013A0319202C033A03192C2C013A69
:1018B0000319382C5B2C08002000D601D701973182
:1018C000A5278C312000CD004D08D800FD305806EA
:1018D00003196B2C6C2C742C9331A9238C31003A96
:1018E000031D732C742C5F2C2000D601D7018B2C88
:1018F0009731A5278C312000CD004D08D80058081D
:10190000CD0056084E3E860087014D08810001300B
:10191000D6070030D73DFE3058060319902C912C85
:10192000992C9331A9238C31003A031D982C992CC2
:10193000782C20005608FF3E4E3E8600870181012C
:101940004E308631D7268C310800F300730823000F
:101950008C00901FAC2CAD2CAE2CEF2C0F30100552
:10196000F200083072060319B62CB72CCD2C0F30BC
:101970001005F2000B3072060319BF2CC02CCD2CC1
:1019800010162E000F1CC52CC62CC12C23000F19BD
:10199000CA2CCB2CEF2C0F08EF2C0F301005F200C7
:1019A000083072060319D52CD62CDF2C0F30100509
:1019B000F2000B307206031DDE2CDF2CEF2C0F180B
:1019C000E22CE32CDF2C0F0C890C0139F2001108FA
:1019D0001F397204031DED2CEE2CE32C11080800B6
:1019E00020009A019901960197019801073095000E
:1019F0000F309100FF309200BF309300FF30940011
:101A0000FF303E00D9004730CE00EF30C300073032
:101A1000E4000F30B800DA01E501C401B901CF01DB
:101A2000E601BA01C501D001DB01FF30BB00FF3088
:101A3000C600FF30D100FF30DC000730E700FF3088
:101A4000BC00FF30C700FF30D200FF30DD000730A0
:101A5000E8000C303D0090001730CB001330C5007B
:101A600014303E00A3001530A4001030A60014303E
:101A70003D00C6000800953192258D31003A0319CA
:101A8000422D432D872D9431D7248D31003A0319EF
:101A90004A2D4B2D872D933188238D312000B300A3
:101AA0003308ED00933180238D312000B3003308DB
:101AB0002100CB00933190238D312000B3003308F7
:101AC0002100D700933168238D312000B300330803
:101AD000EC00933160238D312000B30033082100E6
:101AE000D600933158238D312000B3003308EB002A
:101AF000933170238D312000B3003308EA00933115
:101B000078238D312000B3003308E9008A2D8A3113
:101B100005228D310800F801F51F8F2D902D972D8E
:101B2000F409F509F40A0319F50AF801F80AF31F94
:101B30009A2D9B2DA02DF209F309F20A0319F30A3D
:101B4000720873040319A52DA62DCF2DF701F70AEE
:101B5000B22D0130F235F30D890BAA2D0130F600BC
:101B60007608F707F31FB52DB62DA92D730875025A
:101B7000031DBC2D72087402031CBF2DC02DC42D83
:101B80007208F4027308F53B0130F336F20C890B4E
:101B9000C52D0130F702031DCE2DCF2DB62D7808AF
:101BA0000319D32DD42DD92DF409F509F40A0319FD
:101BB000F50A7508F3007408F200080093318023D9
:101BC0008D31F80078082000AD00933198238D31D5
:101BD000F80078082000AE0094315C248D31003A82
:101BE000031DF32DF42DFD2D20002E08F800F90122
:101BF0007808AB007908AC00052E20002D08F8000D
:101C0000F9017808AB007908AC002B08F8007808D7
:101C1000A9007A08F8007808AA002330860000306E
:101C200087000630F80000301E00F80B142ECC3070
:101C3000F8007808A3002D08F8007808A400290807
:101C4000F8007808A5002A08F8007808A6002E08F1
:101C5000F8007808A700A801233088316E208D3164
:101C60000800933180238E31F80078082000AD0001
:101C7000933198238E31F80078082000AE0094311B
:101C80005C248E31003A031D462E472E502E200034
:101C90002E08F800F9017808AB007908AC00582E3E
:101CA00020002D08F800F9017808AB007908AC0095
:101CB0002B08F8007808A9007A08F8007808AA002C
:101CC00023308600003087000630F80000301E0008
:101CD000F80B672EC930F8007808A3002D08F8002B
:101CE0007808A4002908F8007808A5002A08F80058
:101CF0007808A6002E08F8007808A700A80123306D
:101D000088316E208E3108000A30F4000030F50072
:101D100020006C08A800A9012808F6002908F7008F
:101D20008F313D278E3174082000AA002A08AC00AC
:101D30000A30F2000030F3006C08A800A90128085E
:101D4000F4002908F5008D318B258E3172082000B2
:101D5000AA002A08AB000530A8002808F4002C08C7
:101D6000973151278E312000A9002908AC00053099
:101D70002C06031DBC2EBD2EC22E3230A800280812
:101D8000EC00DB2E0930A8002808F4002B0897315E
:101D900051278E312000A9002908AB000A30A80085
:101DA0002808F2002C089431C2248E3120002B0721
:101DB000A9002908EC006C08883140208E31080009
:101DC0000A30F200F030F3009331D3238E3120003B
:101DD000A0000830F200F030F3009331D3238E31AD
:101DE0002000A1000730F200F030F3009331D3233C
:101DF0008E312000A2000630F200F030F300933163
:101E0000D3238E312000A3000530F200F030F30020
:101E10009331D3238E312000A4000430F200F0303F
:101E2000F3009331D3238E312000A5000330F2005C
:101E3000F030F3009331D3238E312000A60002301E
:101E4000F200F030F3009331D3238E312000A7004D
:101E50000130F200F030F3009331D3238E312000B3
:101E6000270726072507240723072207210720071E
:101E7000A8002808F400740808002000A101F51F3C
:101E8000422F432F4A2FF409F509F40A0319F50AE2
:101E9000A101A10AF71F4D2F4E2F572FF609F70961
:101EA000F60A0319F70A0130F8007808A106A20122
:101EB000A3017408750403195E2F5F2F8E2FA001F4
:101EC000A00A6B2F0130F435F50D890B632F01301B
:101ED000F8007808A007F51F6E2F6F2F622F0130D2
:101EE000A235A30D890B702F75087702031D7A2F79
:101EF00074087602031C7D2F7E2F832F7408F60250
:101F00007508F73B22140130F536F40C890B842F49
:101F10000130A002031D8D2F8E2F6F2F2108031972
:101F2000922F932F982FA209A309A20A0319A30A9B
:101F30002308F5002208F40008002000C2009431B4
:101F40005C248F31003A031DA62FA72FB22F9331A7
:101F500098238F312000BB00BC013B08C0003C0827
:101F6000C100BC2F933180238F312000BB00BC0106
:101F70003B08C0003C08C1004008BB003B08BE0055
:101F800042080319C42FC52FDA2F42089531452581
:101F90008F3172037304031DCE2FCF2FDA2F200051
:101FA0004208860087010108BF003E020318D92FAE
:101FB000DA2FE42FFF302000BB003B08F800CA30C6
:101FC000953118258F31FF2F7A08BB003B08AC00F4
:101FD0003F0884312C248F31003A031DF02FF12F5C
:101FE000FB2FFF302000BB003B08F800CA309531C2
:101FF00018258F31FF2FFE30933134238F310800A5
:1025DE00080024000E14080024000E100800953187
:1025EE005E259231080022001D121D1608002E00D5
:1025FE000C109331EB23923108007B08A73E860026
:10260E0087010108080073082100EC007208EB0036
:10261E00080073082100E0007208DF00080073084C
:10262E002100E4007208E300080073082100E200B4
:10263E007208E100080073082100E6007208E50048
:10264E00080073082100E8007208E700080073080C
:10265E002100EA007208E9000800F40074089731BE
:10266E007B2793310800640080010131890B3B2BDD
:10267E000034943120249331200016132100D00110
:10268E0008002F0096019701980199019A019B016C
:10269E00080094314D249331200016132100D001EF
:1026AE0008000630F200F030F3009331D32393315B
:1026BE0008000530F200F030F3009331D32393314C
:1026CE0008000430F200F030F3009331D32393313D
:1026DE0008000730F200F030F3009331D32393312A
:1026EE0008000830F200F030F3009331D323933119
:1026FE0008000130F200F030F3009331D323933110
:10270E0008000230F200F030F3009331D3239331FE
:10271E0008000330F200F030F3009331D3239331ED
:10272E0008000A30F200F030F3009331D3239331D6
:10273E000800623031008D008F019101023093004C
:10274E009201080021005C08031DAE2BB02B013056
:10275E00B12B0030080020006908AB002B08A40044
:10276E006A088B31CC2393310800FA012100CF0186
:10277E00CE01DA01D901D801C301C401D00108008C
:10278E00F3007308F2000330F235FF3E031DCB2B2E
:10279E007235200096000800730830009B00720806
:1027AE009A001E171E140000000030001C080800BE
:1027BE002300901AE32BE42BEA2B8F012830900094
:1027CE00910103308D000800210069086A04031985
:1027DE00F12BF22BF72B6A088A0069080A00933155
:1027EE0008002E000C100B14EF30F2001230F30024
:1027FE0093312E2393312E001614080080302700BB
:10280E008E00FF308D00C0308C0024001F08F3397D
:10281E0004389F0008000130250090008F019101BF
:10282E00FF308D008C012E009010803025008E0020
:10283E00080055303D008F00AA308F000F103E006B
:10284E00960155303D008F00AA308F000F140800FE
:10285E00210050080319342C352C392C9331402388
:10286E0094313D2C0130F0007008D9000800003082
:10287E008831002094317208F6007308F7000E308C
:10288E00F736F60C890B472C7608080055303D00BC
:10289E008F00AA308F000F103E00960155303D007C
:1028AE008F00AA308F000F1408000930F200F030AC
:1028BE00F3009331D3239431553A0319672C692CC5
:1028CE0001306A2C0030080055303D008F00AA30D0
:1028DE008F000F100E303E00960055303D008F00D9
:1028EE00AA308F000F140800F401F40A20006B08C0
:1028FE009731512794312000A8002808EB006B086F
:10290E009731D2279431080024000E1D8F2C902C65
:10291E00972C0E1071088D0070088C000E149B2CD5
:10292E0071088D0070088C0008008931CC2194311B
:10293E00933104239431FE3A031DA62CA72CAD2C03
:10294E000130F10071082100CF07000008000330AC
:10295E002000A8002808F4002100560897315127BE
:10296E0094312000A90029082100D600560888318C
:10297E00122094310800F500F401751CC72CC82CE8
:10298E00CC2C7208F3007308F4070310F20D031039
:10299E00F50C7508031DD42CD52CC42C7408080016
:1029AE000030F200F030F3009331D3239431F50070
:1029BE007508F6008E31E026943176060319E82C60
:1029CE00EA2C0130EB2C003008007308F500720879
:1029DE00F400F536F40CF536F40C740827008D006F
:1029EE0072080339F4000530F435FF3E031DFB2C4D
:1029FE0074358C00080022008E018F019001910128
:102A0E00920193018D0121009E019B01940195017C
:102A1E00960197019A0199019801803093009D01CA
:102A2E0008002000A3000030A4000030A5000030F4
:102A3E00A6002308F9007908A4007808F90079089F
:102A4E00A500A601243088316E20953108002E0095
:102A5E00101021006E08F1006D08F00094318B24E7
:102A6E00953121006B086C0403193E2D3F2D442D2A
:102A7E006C088A006B080A0095310800F60076088B
:102A8E00F4007408F5004F2D0130F4007408F607B9
:102A9E007608860087010108031D562D572D4B2DF4
:102AAE0075087602F200F301F21BF3030800220010
:102ABE001908F0007B08A83E860087017008810087
:102ACE000130F0007008FB0708307B02031C702DEC
:102ADE00712D722DFB010130F00070082100DC0712
:102AEE0008000F3023001005F2000830720603199B
:102AFE00812D822D8B2D0F301005F2000B307206BA
:102B0E00031D8A2D8B2D8C2D91150F1C8F2D902D25
:102B1E008C2D0C0808000930F200F030F3009331D0
:102B2E00D3239531F4007408F600F501F50AAA30A6
:102B3E0076060319A32DA42DAB2D55307606031959
:102B4E00A92DAA2DAB2DF501750808009331482348
:102B5E0095318C31F02495319331A02395319431F8
:102B6E0005249531953102259531943112249531F4
:102B7E009331F82395319531E62595318A317B22B3
:102B8E009531080000302000A6000030A50000306E
:102B9E00A4000030A300C330F8007808A3006D082D
:102BAE00F8007808A40021005708F80078082000E3
:102BBE00A500A601233088316E209531080024002F
:102BCE008F0190010430910086308D00E8308C002A
:102BDE000D082100EE0024000C082100ED002E004F
:102BEE0010101A140230F2000030F30093310A2351
:102BFE009531053024008E000800F801F901741C8F
:102C0E00092E0A2E0E2E7608F8077708F93D0130A8
:102C1E00F635F70D890B0F2E0130F536F40C890BB6
:102C2E00142E74087504031D1D2E1E2E062E7908F3
:102C3E00F5007808F400080000302000A6000030EF
:102C4E00A5000030A4000030A300C230F8007808C0
:102C5E00A30021005208F80078082000A4002100EB
:102C6E005108F80078082000A500A601233088310D
:102C7E006E2096310800933198239631F4007A082D
:102C8E007402F5007508F8007808031D4F2E502EBB
:102C9E00582E9331802396317807F600F701F70D01
:102CAE005F2E7808F400F5017408F6007508F70039
:102CBE007608080021004A08031D662E672E772E1F
:102CCE0020000D1A6B2E6C2E802E6230F2006630B4
:102CDE00890B6F2EF20B6F2E2100CA01CA0A802EAD
:102CEE0020000D1E7B2E7C2E802E2100CA01CC01D1
:102CFE00CC0A080021004908031D862E872E972E28
:102D0E0020008E1A8B2E8C2EA02E6230F200663092
:102D1E00890B8F2EF20B8F2E2100C901C90AA02E0E
:102D2E0020008E1E9B2E9C2EA02E2100C901CD01AF
:102D3E00CD0A0800083021006F020318A72EA82E16
:102D4E00C02E5D08B03E86008701010822009A0061
:102D5E000130F00070082100DD0708305D02031C11
:102D6E00B92EBA2EBB2EDD010130F0007008EF0730
:102D7E00C22E2E0019120800233086000030870064
:102D8E000530F80000301E00F80BCA2EC630F800D1
:102D9E0078082000A3006C08F8007808A400210031
:102DAE005608F80078082000A5006B08F80078088F
:102DBE00A600A701233088316E209631080020002E
:102DCE00A900AA01AB0120002A08A8002808A0002B
:102DDE00290897312D2796319331342396310130BE
:102DEE002000AA070030AB3D2B08803AA8008030A7
:102DFE002802031D042F05302A02031C072F082F5B
:102E0E00EA2E080000308B1B01302000A3002108A1
:102E1E0030009B002000200830009A00200022087D
:102E2E0030009C001E171E158B1355309F00AA30C4
:102E3E009F009E149E18242F252F212F1E11200037
:102E4E00230C031C8B1303188B1708002000A700FC
:102E5E002008A100A2012708A300A4012308F40062
:102E6E002408F5000530F6000030F70096310426F0
:102E7E009731200021087407A5002208753DA60091
:102E8E0025080B3EF200F030263DF3009331D3239C
:102E9E0097310800F60076089331C72397319631A3
:102EAE006126973196318126973121004D080319FD
:102EBE00612F622F732FCD010130F5007508F607D3
:102ECE007608740203186C2F6D2F6E2FF60176089C
:102EDE009331C7239731562F4C080319772F782F2C
:102EEE00562FCC0176080800F30021006F08031955
:102EFE00812F822F7C2F2E00191A862F872F8B2F32
:102F0E00730822009A00A22F19127308F2002100F2
:102F1E005E08B03E86008701720881000130F20023
:102F2E007208DE0708305E02031C9E2F9F2FA02F13
:102F3E00DE010130EF022E001916080021005C0898
:102F4E000319AA2FAB2FA52F20006F08A03E8600D5
:102F5E0087010108F20072082100DB0020006F08D3
:102F6E00A83E860087010108F2007208F3000130C6
:102F7E00F2007208EF0708306F02031CC72FC82F2C
:102F8E00C92FEF012E00991201302100DC022E0014
:102F9E009916730808002000A7000030A000F0303A
:102FAE00A1000630F200F030F3009331D3239731B5
:102FBE002000A4000030F200F030F3009331D32350
:102FCE0097312000A500240825022707A600260811
:102FDE00A20097310927973106302000A000F0306B
:102FEE00A1002708A4002408A200973109279731D1
:022FFE000800C9
:020000040001F9
:0A000E00EC3FFF379F3FFF3FFF3F2D
:00000001FF
