:020000040000FA
:10000000803137280A3008007E1480312E00161CFB
:100010000A280B2813280C1C0E280F2813288D31B2
:100020003A25803135280B1F162817283528991CAA
:100030001A281B2820288F1C1E281F282028352816
:10004000191C2328242829280F1C27282828292878
:1000500035281A1C2C282D283528101C302831282A
:1000600035288F310627803135287E1009008031F0
:100070003928FA01FB0140308400003085001C3033
:100080008D314C2580317E102000803147288F3102
:100090001D2780318D31BB25803184319E248031F4
:1000A0008D31592580318B170B170C30F20006303B
:1000B000F3008D31402580312D30F2000E30F300F9
:1000C0008D31462580318D31DD258031200093151D
:1000D00013163E00CF154F160B13200058080319B6
:1000E000722873287728D8018D31B12580312000FE
:1000F0005A0803197C287D2883285A0857020318B8
:1001000082288328CC285708031987288828CC28D8
:100110000130B1003108DA000B178E313C268031F6
:100120002000B1003108D10051080139B100B10EF1
:1001300016083106EF393106960051360139B10003
:10014000B10EB10D16083106DF3931069600803147
:10015000022080312000B1003108D2008E31F0261B
:100160008031200054085102031CB728B828BE284B
:10017000520855020318BD28BE28CD285303031D7D
:10018000C228C328CD284D08031DC728C828CD285C
:10019000863191268031CD280B1720004D08031998
:1001A000D228D3281E295008B100B2017B08B30021
:1001B000B4013308F4003408F5001030F6000E30B6
:1001C000F7008F31E127803174082000B5007508F1
:1001D000B6007A08B700B8013708F4003808F5000F
:1001E0003C30F6000030F7008F31E1278031740891
:1001F00020003507B9007508363DBA0031083907C7
:10020000BB0032083A3DBC0044083B02BD00450833
:100210003C3BBE003E08803ABF0080303F02031DD9
:10022000132956083D02031C162917291F298E3150
:100230004B2680312000161763001F2963002E0013
:100240001610200059080319262927293629D90113
:1002500086314F2680310B130C30F2000630F3004C
:100260008D31402580310B172E000C102E001614F6
:100270006C28803137282000A8000A30F200F030C6
:10028000F3008D31D12581312000A400A50124087F
:10029000A9002508AA0029080B3EAB00F0302A3D32
:1002A000AC000130F200F030F3008D31D125813106
:1002B0002000A400A5012408F4002508F50005305D
:1002C000F6000030F7008F31E12781317408063ED7
:1002D0002000A600F030753DA7002C082702031D62
:1002E00073292B08260203187629772986290B30D3
:1002F000AB00F030AC000930F400F030F5005530C0
:10030000A4002408F6008F31A527813120002C0895
:10031000F5002B08F4002808A4002408F6008F310B
:10032000A527813120002B08013EF40000302C3D30
:10033000F5002008A4002408F6008F31A52781319C
:1003400020002B08023EF40000302C3DF50021086F
:10035000A4002408F6008F31A527813120002B0846
:10036000033EF40000302C3DF5002208A4002408D0
:10037000F6008F31A527813120002B08043EF400C0
:1003800000302C3DF5002308A4002408F6008F312E
:10039000A52781310A30F400F030F50020002B0849
:1003A000FA3EA4002408F6008F31A52781310030E1
:1003B000F400F030F5000030F200F030F3008D3141
:1003C000D12581312000A400290824022B07FA3E00
:1003D000A5002508F6008F31A527813101300800DE
:1003E0000A30F2000030F3007B082000A600A701CD
:1003F0002608F4002708F500833132238131720882
:100400002000A8002808AB000A30F2000030F300FA
:100410007B08A600A7012608F4002708F500843110
:100420004B24813172082000A8002808AC0002305B
:10043000A6002608F4002B088731C127813120004F
:10044000A7002708AB0002302B06031D282A292A03
:100450003D2A04302C02031C2E2A2F2A302AAC01FC
:100460000330A6002608F4002C088731C12781310B
:100470002000A7002708AC00492A0930A60026085A
:10048000F4002C088731C12781312000A7002708FC
:10049000AC000A30F2000030F3007A08A600A70191
:1004A0002608F4002708F5008331322381317208D1
:1004B0002000A8002808A9000A30F2000030F3004C
:1004C0007A08A600A7012608F4002708F500843161
:1004D0004B24813172082000A8002808AA000530AA
:1004E000A6002608F40029088731C12781312000A1
:1004F000A7002708A9000930A6002608F4002A084A
:100500008731C12781312000A7002708AA000A30BF
:10051000A6002608F2002B088E31AF26813120007C
:100520002C07A7002708FB000A30A6002608F200C7
:1005300029088E31AF26813120002A07A70027081D
:10054000FA008D31B12581310800F90079080319CD
:10055000AA2AAB2AB32A0A30F400F030F500F601DB
:100560008F31A52782310130F400F030F5002000F2
:100570002008F8007808F6008F31A5278231023074
:10058000F400F030F50020002108F8007808F600AB
:100590008F31A52782310330F400F030F5002000C0
:1005A0002208F8007808F6008F31A5278231043040
:1005B000F400F030F50020002308F8007808F60079
:1005C0008F31A52782310530F400F030F50020008E
:1005D0002408F8007808F6008F31A527823106300C
:1005E000F400F030F50020002508F8007808F60047
:1005F0008F31A52782310730F400F030F50020005C
:100600002608F8007808F6008F31A52782310830D7
:10061000F400F030F50020002708F8007808F60014
:100620008F31A52782310930F400F030F500AA306F
:10063000F8007808F6008F31A52782310030F400E9
:10064000F030F500200020082107220723072407A7
:10065000250726072707F8007808F6008F31A52719
:10066000823108002000A101F31F372B382B3F2BCC
:10067000F209F309F20A0319F30AA101A10AF51F0D
:10068000422B432B4C2BF409F509F40A0319F50A04
:100690000130F6007608A106A201A30172087304D6
:1006A0000319532B542B832BA001A00A602B01307C
:1006B000F235F30D890B582B0130F6007608A007B0
:1006C000F31F632B642B572B0130A235A30D890B2D
:1006D000652B73087502031D6F2B72087402031CCF
:1006E000722B732B782B7208F4027308F53B2214DB
:1006F0000130F336F20C890B792B0130A002031D77
:10070000822B832B642B21080319872B882B8D2B9D
:10071000A209A309A20A0319A30A2308F3002208C5
:10072000F20008000A30F200F030F3008D31D125DC
:1007300083312000A0000830F200F030F3008D314A
:10074000D12583312000A1000730F200F030F30002
:100750008D31D12583312000A2000630F200F03027
:10076000F3008D31D12583312000A3000530F20044
:10077000F030F3008D31D12583312000A400043006
:10078000F200F030F3008D31D12583312000A50037
:100790000330F200F030F3008D31D1258331200099
:1007A000A6000230F200F030F3008D31D125833104
:1007B0002000A7000130F200F030F3008D31D12588
:1007C0008331200027072607250724072307220750
:1007D00021072007A8002808F400740808000A3040
:1007E000F2000030F30020005508A400A501240801
:1007F000F4002508F500833132238331720820008C
:10080000A6002608A8000A30F2000030F3005508C0
:10081000A400A5012408F4002508F50084314B2428
:10082000833172082000A6002608A7000530A40026
:100830002408F40028088731C12783312000A5004F
:100840002508A80005302806031D272C282C2D2C50
:100850003230A4002408D500462C0930A400240816
:10086000F40027088731C12783312000A50025081F
:10087000A7000A30A4002408F20028088E31AF2611
:10088000833120002707A5002508D50055088731AA
:100890003A2783310800F801F51F4F2C502C572CB4
:1008A000F409F509F40A0319F50AF801F80AF31F27
:1008B0005A2C5B2C602CF209F309F20A0319F30A93
:1008C000720873040319652C662C8F2CF701F70A44
:1008D000722C0130F235F30D890B6A2C0130F600D1
:1008E0007608F707F31F752C762C692C73087502B0
:1008F000031D7C2C72087402031C7F2C802C842C1A
:100900007208F4027308F53B0130F336F20C890BE0
:10091000852C0130F702031D8E2C8F2C762C780845
:100920000319932C942C992CF409F509F40A031952
:10093000F50A7508F3007408F20008008F3150279B
:100940008431003A0319A52CA62CE72C8731EB271C
:100950008431003A0319AD2CAE2CE72C8D3198254B
:1009600084312000AD002D08D7008D3190258431D1
:100970002000AD002D08CA008D31A0258431200053
:10098000AD002D08D6008D31782584312000AD00D2
:100990002D08D5008D31702584312000AD002D0843
:1009A000D4008D31682584312000AD002D08D3009E
:1009B0008D31802584312000AD002D08FB008D3164
:1009C000882584312000AD002D08FA00EA2C8731FB
:1009D000062784310800F300730823008C00901F61
:1009E000F22CF32CF42C352D0F301005F2000830CA
:1009F00072060319FC2CFD2C132D0F301005F2008C
:100A00000B3072060319052D062D132D10162E001E
:100A10000F1C0B2D0C2D072D23000F19102D112D40
:100A2000352D0F08352D0F301005F20008307206F5
:100A300003191B2D1C2D252D0F301005F2000B3036
:100A40007206031D242D252D352D0F18282D292D37
:100A5000252D0F0C890C0139F20011081F39720481
:100A6000031D332D342D292D11080800672D031087
:100A7000961F031403183D2D402D20009617422D7C
:100A8000200096137E2D0310161F03140318492D02
:100A90004C2D200016174E2D200016137E2D03100E
:100AA000961E03140318552D582D200096165A2D06
:100AB000200096127E2D0310161E03140318612DBC
:100AC000642D20001616662D200016127E2D2000A3
:100AD0005B08F000F1017108003A0319702D7E2DBA
:100AE0007008003A0319372D013A0319432D033AD0
:100AF00003194F2D013A03195B2D7E2D08002000AC
:100B00009A019901960197019801073095000F30DD
:100B10009100FF309200FF309300FF309400FF30CF
:100B20003E00D900C730CE00EF30C3000730E400EC
:100B30000F30B800DA01E501C401B901CF01E601C7
:100B4000BA01C501D001DB01FF30BB00FF30C60098
:100B5000FF30D100FF30DC000730E700FF30BC0081
:100B6000FF30C700FF30D200FF30DD000730E80063
:100B70000C303D0090001330C50014303E00A3003F
:100B80001530A40014303D00C6000800F900003004
:100B9000F400F030F5000830F200F030F3008D3151
:100BA000D12585312000A0000730F200F030F3009D
:100BB0008D31D12585312000A1000030F200F030C8
:100BC000F3008D31D12585312000A20021082202B9
:100BD000A3002008230279077807A4002408F60060
:100BE0008F31A52785310730F400F030F500790802
:100BF0002000A0002008F6008F31A527853108309D
:100C0000F400F030F50078082000A0002008F6007D
:100C10008F31A5278531080003102000961F03148B
:100C20000318132E162E20009617182E2000961348
:100C3000570803191C2E1D2E212E0130F0007008BC
:100C4000DA073B3050020318262E272E2C2E0130B7
:100C5000F0007008D007452ED0013B307A0203180F
:100C6000322E332E382E0130F0007008FA07452E50
:100C7000FA0117307B0203183E2E3F2E442E01301E
:100C8000F0007008FB07452EFB015008031D492E9C
:100C90004A2E4E2E0130F0007008D80008002000C7
:100CA000DB0100308D31C52586310B133630F20063
:100CB0000530F3008D31402586310B17892E8F3199
:100CC0006B2786318F318827863120004B08031926
:100CD0006A2E6B2E752ECB010130B0003008DB0779
:100CE00000308D31C5258631892E4C080319792EA7
:100CF0007A2E892ECC0100308D31C5258631200019
:100D00005B088631D126863101302000B0003008E2
:100D1000DB07043020005B02031C8F2E902E5F2E19
:100D200008002000CD01CD0A8E315A268631FA30D6
:100D3000F2000030F3008E31C426863120005008C6
:100D4000A000A1017B08A200A3012208F40023084F
:100D5000F5001030F6000E30F7008F31E1278631B4
:100D600074082000A4007508A5007A08A600A70151
:100D70002608F4002708F5003C30F6000030F700A4
:100D80008F31E1278631740820002407A8007508F8
:100D9000253DA90020082807C4002108293DC500D9
:100DA00008002000AF008D3137258631E72E8131D4
:100DB000F0218631FE2E8E316A268631FE2E833159
:100DC000EF238631FE2E8E318B268631FE2E2000BB
:100DD0002F08AD00AE012E08003A0319F02EFE2EAA
:100DE0002D08003A0319D72E013A0319DB2E033AD6
:100DF0000319DF2E013A0319E32EFE2E8D3134251F
:100E0000863100308D31C52586310800053020003F
:100E1000A8002808D7001E30A8002808CA00033000
:100E2000A8002808D6001930A8002808D5000230EC
:100E3000A8002808D400D301FB01FA011E30A80045
:100E40002808A0000530A9002908A1000330AA0045
:100E50002A08A2001930AB002B08A3000230AC0016
:100E60002C08A400A501A601A70101308231A5220A
:100E700087310800F8000030F400F030F50004304D
:100E8000F200F030F3008D31D12587312000A00031
:100E90000030F200F030F3008D31D1258731200091
:100EA000A100200821027807A2002208F6008F3155
:100EB000A52787310430F400F030F50078082000D1
:100EC000A0002008F6008F31A52787310800F80020
:100ED0000030F400F030F5000530F200F030F3009F
:100EE0008D31D12587312000A0000030F200F03094
:100EF000F3008D31D12587312000A1002008210287
:100F00007807A2002208F6008F31A5278731053027
:100F1000F400F030F50078082000A0002008F6006A
:100F20008F31A52787310800F8000030F400F03039
:100F3000F5000630F200F030F3008D31D125873115
:100F40002000A0000030F200F030F3008D31D125F8
:100F500087312000A100200821027807A200220882
:100F6000F6008F31A52787310630F400F030F50008
:100F700078082000A0002008F6008F31A5278731CF
:100F80000800F60076088D31C52587318F316B2733
:100F900087318F318827873120004C080319D12FE2
:100FA000D22FE32FCC010130F5007508F607760843
:100FB00074020318DC2FDD2FDE2FF60176088D3149
:100FC000C5258731C62F4B080319E72FE82FC62FF9
:100FD000CB01760808000030F200F030F3008D31CC
:100FE000D1258731F5007508F600833192238731CA
:100FF00076060319FC2FFE2F0130FF2F003008006A
:101A64000800080024000E14080024000E100800CA
:101A74002E000C108D31E9258D31080073082000EB
:101A8400DF007208DE00080073082000DD00720821
:101A9400DC000800640080010131890B4D2D003405
:101AA4008E311E268D3120001613CD0108008E3193
:101AB4004B268D3120001613CD0108002F0096010E
:101AC4009701980199019A019B0108000630F200E0
:101AD400F030F3008D31D1258D3108000530F2004E
:101AE400F030F3008D31D1258D3108000430F2003F
:101AF400F030F3008D31D1258D3108000730F2002C
:101B0400F030F3008D31D1258D3108000830F2001A
:101B1400F030F3008D31D1258D3108000130F20011
:101B2400F030F3008D31D1258D3108000230F20000
:101B3400F030F3008D31D1258D3108000330F200EF
:101B4400F030F3008D31D1258D3108006230310041
:101B54008D008F01910102309300920108007A08F0
:101B64002000A5002508F8007B088531C6258D31A5
:101B740008002000DA01D901D801C401C501CF0150
:101B8400CE01CD010800F3007308F2000330F235F2
:101B9400FF3E031DC92D723520009600080073080E
:101BA40030009B0072089A001E171E1400000000EB
:101BB40030001C0808002300901AE12DE22DE82DC6
:101BC4008F0128309000910103308D00080020001F
:101BD4005C085D040319EF2DF02DF52D5D088A00D6
:101BE4005C080A008D3108002E000C100B143230F2
:101BF400F2000D30F3008D3146258D312E00161480
:101C04000800803027008E00FF308D00C0308C002B
:101C140024001F08F33904389F0008000130250010
:101C240090008F019101FF308D008C012E009010E7
:101C3400803025008E00080055303D008F00AA300A
:101C44008F000F103E00960155303D008F00AA30E2
:101C54008F000F14080020004D080319322E332E74
:101C6400372E8D3152258E313B2E0130F000700815
:101C7400D900080000308E319D268E317208F6009E
:101C84007308F7000E30F736F60C890B452E7608EC
:101C9400080055303D008F00AA308F000F103E0021
:101CA400960155303D008F00AA308F000F140800B4
:101CB40055303D008F00AA308F000F100E303E00CB
:101CC400960055303D008F00AA308F000F14080095
:101CD400F401F40A200053088731C1278E31F9003A
:101CE40079082000D3005308873194278E310800E7
:101CF40024000E1D7E2E7F2E862E0E1071088D0060
:101D040070088C000E148A2E71088D0070088C00E7
:101D1400080003302000A3002308F400540887318E
:101D2400C1278E312000A4002408D4005408873130
:101D340067278E310800F500750821009E0093176F
:101D440013131314000021001318A92EAA2EA52E74
:101D54000D08F3000C08F2000800F500F401751CEE
:101D6400B42EB52EB92E7208F3007308F4070310CD
:101D7400F20D0310F50C7508031DC12EC22EB12EF1
:101D8400740808007308F5007208F400F536F40CC2
:101D9400F536F40C740827008D0072080339F4003A
:101DA4000530F435FF3E031DD32E74358C00080036
:101DB40022008E018F0190019101920193018D0106
:101DC40021009E019B0194019501960197019A01BE
:101DD40099019801803093009D0108007A08200041
:101DE400AD002D08A0005008AE002E08A100520836
:101DF400AF002F08A2005108B0003008A3007B08F0
:101E040081313B218E3108002E0010102000610822
:101E1400F1006008F0008E317A268F3120005E08D0
:101E24005F040319162F172F1C2F5F088A005E0802
:101E34000A008F3108008D3160258F3185317F256F
:101E44008F318D31A8258F318E3103268F318E311C
:101E5400DA268F318E3110268F318F31C3278F319F
:101E64008D31F6258F3108000F3023001005F20064
:101E74000830720603193F2F402F492F0F301005E9
:101E8400F2000B307206031D482F492F4A2F91157B
:101E94000F1C4D2F4E2F4A2F0C0808000930F2005A
:101EA400F030F3008D31D1258F31F4007408F60041
:101EB400F501F50AAA3076060319612F622F692FFE
:101EC400553076060319672F682F692FF5017508B9
:101ED400080020004F08031D702F712F802F0D1A4A
:101EE400742F752F872F6230F2006630890B782F9C
:101EF400F20B782F2000CF01CF0A872F0D1E832FDE
:101F0400842F872FCF01CB01CB0A080020004E0875
:101F1400031D8D2F8E2F9D2F8E1A912F922FA42F5C
:101F24006230F2006630890B952FF20B952F20005A
:101F3400CE01CE0AA42F8E1EA02FA12FA42FCE0136
:101F4400CC01CC0A080000308B1B0130F700750867
:101F540030009B0074089A0076089C001E171E151A
:101F64008B1355309F00AA309F009E149E18BB2FE0
:101F7400BC2FB82F1E11770C031C8B1303188B175F
:101F8400080024008F0190010430910086308D00F8
:101F9400E8308C000D082000E10024000C0820002B
:101FA400E0002E0010101A143330F2000D30F3004C
:101FB4008D3140258F31053024008E000800F80152
:101FC400F901741CE62FE72FEB2F7608F807770842
:101FD400F93D0130F635F70D890BEC2F0130F5365C
:101FE400F40C890BF12F74087504031DFA2FFB2FD1
:0C1FF400E32F7908F5007808F4000800DD
:020000040001F9
:0A000E00EC3FFF379F3FFF3FFF3F2D
:00000001FF
