:020000040000FA
:1000000080315528080008007E1480312E00161C0F
:100010000A280B2813280C1C0E280F2813289531AA
:100020008A25803153280B1F162817285328991C1E
:100030001A281B2820288F1C1E281F2820285328F8
:10004000191C232824282A280F1C272828282A2876
:1000500053285328191E2D282E2839280F1E3128E1
:1000600032283928210066088A0065080A00803194
:100070005328991E3C283D2848288F1E4028412897
:100080004828210064088A0063080A008031532848
:100090001A1C4B284C282928101C4F285028292886
:1000A00097319C2780317E10090080315728FA0152
:1000B000FB0151308400003085001D309531C6258C
:1000C0008031A0308400003085003D309531C62558
:1000D00080317E10200080316D288831822080316F
:1000E00096316A2680318731832780319531D32537
:1000F00080318B170B177E30F2000D30F3009531F5
:1001000096258031BA30F2001630F3009531BA25C9
:1001100080312730F2001730F3009531AE25803161
:1001200096315E2680312000931513163E00CF15C0
:100130004F1657308931FC21803196310A268031A3
:100140009531C02580310B13200066080319A928BA
:10015000AA28AE28E60196313C26803120006008AE
:10016000C2004208DD005F08C2004208DC005E08F1
:10017000C2004208DB0057080319BF28C028C52861
:100180005708C2004208D600D70168080319C928D9
:10019000CA28D028680865020318CF28D028332938
:1001A00065080319D428D52833290130C200420834
:1001B000E8000B179631C92680312000C2004208A2
:1001C000D90059080139C200C20E16084206EF399B
:1001D0004206960059360139C200C20EC20D1608F9
:1001E0004206DF39420696008131C8218031200065
:1001F000C2004208DA005C08C2004208A4005B08A2
:10020000C3004308A5005A08C4004408A6005908C2
:10021000C5004508A7005D088231D5228031200045
:1002200062085902031C152916291C295A08630261
:1002300003181B291C2934296103031D20292129A6
:1002400034295808031D2529262934295C08C200B1
:100250004208A0005B08C3004308A1005D088D317F
:10026000C125803134290B172100EC01ED01402913
:100270008E31D926803101302100EC070030ED3D70
:100280006D08803A2000C20080304202031D4B29D5
:10029000560821006C02031C4E294F2938292000E2
:1002A000D6012E0016102000580803195829592984
:1002B000AA292E00161420005B08C200C3015D08A5
:1002C000C400C5014408F4004508F5001030F600EC
:1002D0000E30F7008831F620803174082000C60007
:1002E0007508C7005C08C800C9014808F40049083F
:1002F000F5003C30F6000030F7008831F620803100
:10030000740820004607CA007508473DCB00420824
:100310004A07CC0043084B3DCD0021005708200080
:100320004C02CE002100580820004D3BCF004F0862
:10033000803AD00080305002031DA02964084E028C
:10034000031CA329A429AC299631D826803120008A
:100350001617AC292E0016142E0016102000670860
:100360000319B329B429C329E7018D313C25803114
:100370000B137E30F2000D30F3009531962580315D
:100380000B172E000C102E001614A32880315528B0
:1003900023000F0C890C0139F40011081F39740473
:1003A000031DD329D429C82911141118D829D929F2
:1003B000D5290F0C890C0139F40011081F39740478
:1003C000031DE329E429D9299A308F316A27813125
:1003D00023000F0C890C0139F40011081F39740433
:1003E000031DF329F429E82901308F316A2781316F
:1003F00023000F0C890C0139F40011081F39740413
:10040000031D032A042AF82991149118082A092A9D
:10041000052A0F0C890C0139F40011081F397404E6
:10042000031D132A142A092A9B308F316A27813130
:1004300023000F0C890C0139F40011081F397404D2
:10044000031D232A242A182A9731E6278131F40034
:100450007408F50023000F0C890C0139F400110811
:100460001F397404031D352A362A2A2A91161116BB
:10047000111A3B2A3C2A382A0F0C890C0139F40046
:1004800011081F397404031D462A472A3C2A1115F6
:1004900011194B2A4C2A482A751F4F2A502AC8295D
:1004A0000F0C890C0139F40011081F397404031D65
:1004B0005A2A5B2A502A111411185F2A602A5C2AD2
:1004C0000F0C890C0139F40011081F397404031D45
:1004D0006A2A6B2A602A9A308F316A278131230079
:1004E0000F0C890C0139F40011081F397404031D25
:1004F0007A2A7B2A6F2A00308F316A2781312300C4
:100500000F0C890C0139F40011081F397404031D04
:100510008A2A8B2A7F2A911491188F2A902A8C2A52
:100520000F0C890C0139F40011081F397404031DE4
:100530009A2A9B2A902A9B308F316A278131230087
:100540000F0C890C0139F40011081F397404031DC4
:10055000AA2AAB2A9F2A9731E6278131F400740832
:10056000F50023000F0C890C0139F40011081F3924
:100570007404031DBC2ABD2AB12A91161116111A42
:10058000C22AC32ABF2A0F0C890C0139F4001108B2
:100590001F397404031DCD2ACE2AC32A111511193F
:1005A000D22AD32ACF2A750808002000AC000A30CE
:1005B000F200F030F3009631522682312000A8007C
:1005C000A9012808AD002908AE002E08F5002D0865
:1005D000F4000530F6000030F7008831F620823153
:1005E00074080B3E2000AF00F030753DB0002D08C0
:1005F0002E040319FC2AFD2A1C2B2F08FE3EF200B4
:10060000FF30303DF300963152268231200026061D
:10061000031D0B2B0C2B1C2B2F08FF3EF200FF3071
:10062000303DF30096315226823120002706031D0B
:100630001A2B1B2B1C2BD82B0130F200F030F300AF
:100640009631522682312000A800A9012808F40022
:100650002908F5000530F6000030F7008831F62053
:1006600082317408063E2000AA00F030753DAB00D0
:1006700030082B02031D3E2B2F082A020318412BA2
:10068000422B512B0B30AF00F030B0000930A000EE
:10069000F030A1005530A8002808A20089315A2165
:1006A000823120003008A1002F08A0002C08A800EB
:1006B0002808A20089315A21823120002F08013EEA
:1006C000A0000030303DA1002408A8002808A200A6
:1006D00089315A21823120002F08023EA0000030CB
:1006E000303DA1002508A8002808A20089315A2120
:1006F000823120002F08033EA0000030303DA100D1
:100700002608A8002808A20089315A218231200039
:100710002F08043EA0000030303DA1002708A800AB
:100720002808A20089315A2182310A302000A00015
:10073000F030A1000530F2000030F3002F08FA3E3F
:10074000F4000F30303DF5008C317E248231720888
:100750002000A8002808A20089315A2182310030E7
:100760002000A000F030A1000530F2000030F300BE
:100770002F08FA3EF4000F30303DF5008C317E2416
:10078000823172082000A8007308A9000030F2002E
:10079000F030F30096315226823120002807AA005B
:1007A0002D082A02AB002B08A20089315A21823180
:1007B00008000A30F2000030F30020006008AC00AE
:1007C000AD012C08F4002D08F50086311726833181
:1007D00072082000AE002E08B1000A30F20000308E
:1007E000F3006008AC00AD012C08F4002D08F50002
:1007F00087313027833172082000AE002E08B20006
:100800000230AC002C08F400310889317E2183319C
:100810002000AD002D08B10002303106031D112C5F
:10082000122C262C04303202031C172C182C192CE5
:10083000B2010330AC002C08F400320889317E216B
:1008400083312000AD002D08B200322C0930AC00FD
:100850002C08F400320889317E2183312000AD005C
:100860002D08B2000A30F2000030F3005F08AC003F
:10087000AD012C08F4002D08F500863117268331D0
:1008800072082000AE002E08AF000A30F2000030DF
:10089000F3005F08AC00AD012C08F4002D08F50052
:1008A00087313027833172082000AE002E08B00057
:1008B0000530AC002C08F4002F0889317E218331EB
:1008C0002000AD002D08AF000930AC002C08F4006A
:1008D000300889317E2183312000AD002D08B00021
:1008E0000A30AC002C08F200310897315C278331C4
:1008F00020003207AD002D08E0000A30AC002C08C3
:10090000F2002F0897315C27833120003007AD00BB
:100910002D08DF0096313C26833108002000AD0011
:100920002D080319942C952C9D2C0A30A000F03032
:10093000A100A20189315A21843101302000A00098
:10094000F030A1002408AC002C08A20089315A2103
:10095000843102302000A000F030A1002508AC0056
:100960002C08A20089315A21843103302000A000D4
:10097000F030A1002608AC002C08A20089315A21D1
:10098000843104302000A000F030A1002708AC0022
:100990002C08A20089315A21843105302000A000A2
:1009A000F030A1002808AC002C08A20089315A219F
:1009B000843106302000A000F030A1002908AC00EE
:1009C0002C08A20089315A21843107302000A00070
:1009D000F030A1002A08AC002C08A20089315A216D
:1009E000843108302000A000F030A1002B08AC00BA
:1009F0002C08A20089315A21843109302000A0003E
:100A0000F030A100AA30AC002C08A20089315A2194
:100A1000843100302000A000F030A1002408250718
:100A200026072707280729072A072B07AC002C08C9
:100A3000A20089315A21843108002000B400340812
:100A4000860087010108B1003108B30034089731EE
:100A5000B327853172037304031D2F2D302D332DE1
:100A60002000B5017A2D20003408013EB100310884
:100A7000B5007A2D8731D0278531A82D35088531ED
:100A8000A9258531A82D883167208531A82D883189
:100A90004C208531A82D35088B31A3238531A82D15
:100AA00035088B31D9238531A82D89311521853120
:100AB000A82D35088C31FB248531A82D35088C31C3
:100AC0000F248531A82D8E3191268531A82D35082A
:100AD0008931D2218531A82D35088E310526853101
:100AE000A82DFF30B1003108F800330888313120DB
:100AF0008531A82D3308B100B2013208003A03193C
:100B0000822D712D3108C03A03193A2D013A03198B
:100B10003E2D033A0319432D013A0319472D073A95
:100B200003194B2D013A0319502D033A0319552D82
:100B3000013A0319592D0F3A03195E2D013A031991
:100B4000632D033A0319672D013A03196C2D712D9A
:100B500008002000B00030080319AF2DB02DF62D8D
:100B600030089731B3278531033072067304031DB3
:100B7000BA2DBB2DF62D20003008860087011830D5
:100B800001020318C42DC62D0130C72D0030AC0062
:100B90002C08AD002D08031DCE2DCF2DF62D300ACB
:100BA000860087013C3001020318D72DD92D013072
:100BB000DA2D0030AC002C08AE002E08031DE12D0C
:100BC000E22DF62D3008023E860087013C300102FE
:100BD0000318EB2DED2D0130EE2D0030AC002C086C
:100BE000AF002F080319F52DF62DFF2DFF30200043
:100BF000AC002C08F800C1308831312085310B134E
:100C000020002D08AC002C08E0002E08AC002C08B9
:100C1000DF002F08AC002C08DE000B1796313C26B5
:100C20008531F801C130883131208531080020003C
:100C3000A101F31F1C2E1D2E242EF209F309F20A26
:100C40000319F30AA101A10AF51F272E282E312E20
:100C5000F409F509F40A0319F50A0130F6007608DB
:100C6000A106A201A301720873040319382E392EBC
:100C7000682EA001A00A452E0130F235F30D890B34
:100C80003D2E0130F6007608A007F31F482E492EAE
:100C90003C2E0130A235A30D890B4A2E7308750234
:100CA000031D542E72087402031C572E582E5D2EFD
:100CB0007208F4027308F53B22140130F336F20C8B
:100CC000890B5E2E0130A002031D672E682E492E6F
:100CD000210803196C2E6D2E722EA209A309A20AF7
:100CE0000319A30A2308F3002208F20008000A30BF
:100CF000F200F030F3009631522686312000A00039
:100D00000830F200F030F300963152268631200090
:100D1000A1000730F200F030F30096315226863100
:100D20002000A2000630F200F030F3009631522687
:100D300086312000A3000530F200F030F300963138
:100D4000522686312000A4000430F200F030F30077
:100D50009631522686312000A5000330F200F03093
:100D6000F3009631522686312000A6000230F200B0
:100D7000F030F3009631522686312000A700013072
:100D8000F200F030F300963152268631200027071A
:100D90002607250724072307220721072007A80085
:100DA0002808F400740808000A30F2000030F3004C
:100DB00020006308A800A9012808F4002908F5000C
:100DC00086311726863172082000AA002A08AC0056
:100DD0000A30F2000030F3006308A800A9012808D7
:100DE000F4002908F5008731302786317208200089
:100DF000AA002A08AB000530A8002808F4002C0837
:100E000089317E2186312000A9002908AC000530F7
:100E10002C06031D0C2F0D2F122F3230A80028088E
:100E2000E3002B2F0930A8002808F4002B08893193
:100E30007E2186312000A9002908AB000A30A800D5
:100E40002808F2002C0897315C27863120002B07F8
:100E5000A9002908E30063088A31B022863108001E
:100E6000F801F51F342F352F3C2FF409F509F40A4A
:100E70000319F50AF801F80AF31F3F2F402F452FF9
:100E8000F209F309F20A0319F30A72087304031949
:100E90004A2F4B2F742FF701F70A572F0130F235E5
:100EA000F30D890B4F2F0130F6007608F707F31F7B
:100EB0005A2F5B2F4E2F73087502031D612F720886
:100EC0007402031C642F652F692F7208F4027308E3
:100ED000F53B0130F336F20C890B6A2F0130F70233
:100EE000031D732F742F5B2F78080319782F792F28
:100EF0007E2FF409F509F40A0319F50A7508F300C1
:100F00007408F2000800883116208731003A03196E
:100F10008A2F8B2FCC2F973171278731003A0319F5
:100F2000922F932FCC2F9631122687312000B300B9
:100F30003308E50096310A2687312000B3003308D4
:100F4000D30096311A2687312000B3003308E4001D
:100F50009531F22587312000B3003308E300953145
:100F6000EA2587312000B3003308E2009531E225FD
:100F700087312000B3003308E1009531FA2587312D
:100F80002000B3003308E0009631022687312000AC
:100F9000B3003308DF00CF2F8B313A2387310800AD
:100FA0000B1320006008F8007808A3005F08F80021
:100FB0007808A4005E08F8007808A5000B17263012
:100FC0008600003087000530F80000301E00F80B66
:100FD000E62FC030F8007808A6002308F80078084B
:100FE000A7002408F8007808A8002508F800780869
:100FF000A900AA0126308A3127228731080008007B
:1010000022008E018F0190019101920193018D01C7
:1010100021009E019B0194019501960197019A017F
:1010200099019801803093009D0108000930F20079
:10103000F030F300963152268831F4007408F6003F
:10104000F501F50AAA3076060319272828282F2843
:101050005530760603192D282E282F28F5017508FE
:1010600008002000A30046309531C02588310030AB
:101070002000A4000030A5000030A6002308F900DD
:101080007908A4007808F9007908A500A6012430A1
:101090008A3127228831080000302000A600003065
:1010A000A5000030A4000030A300C330F800780889
:1010B000A3006508F8007808A4006408F800780820
:1010C000A500A60123308A3127228831080000308C
:1010D0002000A6000030A5000030A4000030A300CE
:1010E000C230F8007808A3005A08F8007808A40075
:1010F0005908F8007808A500A60123308A31272274
:10110000883108009531DA2588318F31B52788314B
:1011100096312A26883196319026883188310020F0
:10112000883196319D2688319631832688318831E1
:10113000D82088318C31BA24883108002000520828
:10114000031DA328A428B3280D1AA728A828BA2865
:101150006230F2006630890BAB28F20BAB2820001E
:10116000D201D20ABA280D1EB628B728BA28D20151
:10117000D401D40A080020005108031DC028C1284A
:10118000D0288E1AC428C528D7286230F2006630CD
:10119000890BC828F20BC8282000D101D10AD72812
:1011A0008E1ED328D428D728D101D501D50A08000E
:1011B00024008F0190010430910086308D00E830CA
:1011C0008C000D082000EF0024000C082000EE0029
:1011D0002E0010101A140330F2000030F300953185
:1011E00096258831053024008E000800F801F901A9
:1011F000741CFB28FC2800297608F8077708F93DBD
:101200000130F635F70D890B01290130F536F40C64
:10121000890B062974087504031D0F291029F82865
:101220007908F5007808F4000800233086000030C3
:1012300087000530F80000301E00F80B1C29C6306E
:10124000F80078082000A3006308F8007808A400DC
:101250006208F8007808A5006108F8007808A60080
:10126000A70123308A312722893108000830210064
:101270006B0203183C293D29572920006C08B03E19
:1012800086008701010822009A000130F0007008F2
:101290002000EC0708306C02031C4F29502951290B
:1012A000EC010130F00070082100EB0759292E00F5
:1012B0001912080000308B1B01302000A300210808
:1012C00030009B002000200830009A0020002208F7
:1012D00030009C001E171E158B1355309F00AA303E
:1012E0009F009E149E187529762972291E112000D0
:1012F000230C031C8B1303188B170800F6007608C9
:1013000096314626893188319E2089318831BB202B
:1013100089312000550803198E298F29A029D5016C
:101320000130F5007508F60776087402031899294C
:101330009A299B29F6017608963146268931832918
:1013400054080319A429A5298329D4017608080083
:1013500020006B080319AD29AE29A8297A08A03E00
:10136000860087010108F2007208EA007A08A83EA8
:10137000860087010108F2007208F3000130F200D4
:101380007208FA0708307A02031CC729C829C9293C
:10139000FA012E00991201302000EB022E0099165E
:1013A000730808002000A80028080319D829D929A3
:1013B000F22928089731B327893172037304031D7A
:1013C000E229E329F22920002808860087019631C6
:1013D0000A2689312000A700010827020318F129F5
:1013E000F229FB29FF302000A7002708F800CA30A7
:1013F0008831312089310800F30021006B0803197E
:10140000022A032AFD292E00191A072A082A0C2A63
:10141000730822009A00242A19127308F20020008F
:101420006D08B03E86008701720881000130F2002D
:101430007208ED0708306D02031C1F2A202A212A9A
:10144000ED0101302100EB022E00191608002000EA
:10145000A200FD308931FC218A312000A001A101C8
:10146000402A20082207F700770886008701010834
:101470008931FC218A3101302000A0070030A13DD4
:1014800022089731B3278A31730820002102031DF7
:101490004B2A72082002031C4E2A4F2A312AFE30A2
:1014A0008931FC218A3108002000A7000030A0000B
:1014B000F030A1000630F200F030F30096315226F1
:1014C0008A312000A4000030F200F030F3009631A1
:1014D00052268A312000A500240825022707A600ED
:1014E0002608A20089315A218A3106302000A00046
:1014F000F030A1002708A4002408A20089315A2155
:101500008A3108002000A7000030A000F030A100C0
:101510000530F200F030F300963152268A31200077
:10152000A4000030F200F030F300963152268A31E8
:101530002000A500240825022707A6002608A200EF
:1015400089315A218A3105302000A000F030A100F5
:101550002708A4002408A20089315A218A310800F2
:101560002000A7000030A000F030A1000430F200FD
:10157000F030F300963152268A312000A40000306A
:10158000F200F030F300963152268A312000A50097
:10159000240825022707A6002608A20089315A211F
:1015A0008A3104302000A000F030A1002708A400F8
:1015B0002408A20089315A218A3108002000A7009E
:1015C0000030A000F030A1000230F200F030F30053
:1015D000963152268A312000A4000030F200F0300B
:1015E000F300963152268A312000A50024082502F6
:1015F0002707A6002608A20089315A218A31023025
:101600002000A000F030A1002708A4002408A200B8
:1016100089315A218A3108002000A7000030A0003B
:10162000F030A1000330F200F030F3009631522682
:101630008B312000A4000030F200F030F30096312E
:1016400052268B312000A500240825022707A6007A
:101650002608A20089315A218B3103302000A000D6
:10166000F030A1002708A4002408A20089315A21E3
:101670008B31080005302000AE002E08E500213037
:10168000AE002E08D3000330AE002E08E40019305F
:10169000AE002E08E3000230AE002E08E200E101A9
:1016A000E001DF012130AE002E08A4000530AF00BC
:1016B0002F08A5000330B0003008A6001930B10093
:1016C0003108A7000230B2003208A800A901AA011F
:1016D000AB01013084318E248B3108002000B5002D
:1016E00095317F258B31842B8331D9238B319B2BF3
:1016F000973106278B319B2B8631D4268B319B2B40
:10170000973138278B319B2B20003508B300B4016B
:101710003408003A03198D2B9B2B3308003A031928
:10172000742B013A0319782B033A03197C2B013AE5
:101730000319802B9B2B95317C258B310030963102
:1017400046268B3108002000A90029080319A92B7F
:10175000AA2BBE2B29089731B3278B317203730450
:10176000031DB32BB42BBE2B200029088600870154
:1017700064300102031CBD2BBE2BC72BFF302000A1
:10178000A8002808F800C430883131208B312000AF
:101790002908860087010108A8002808E5006508D7
:1017A0008A31DE228B31F801C430883131208B310F
:1017B00008002000A90029080319DF2BE02BF42BD7
:1017C00029089731B3278B3172037304031DE92B6A
:1017D000EA2BF42B20002908860087013D30010206
:1017E000031CF32BF42BFD2BFF302000A80028084E
:1017F000F800C530883131208B312000290886005F
:1018000087010108A8002808E40064088B310C2334
:101810008B31F801C530883131208B310800200030
:10182000A90029080319152C162C2A2C29089731F0
:10183000B3278C3172037304031D1F2C202C2A2C18
:10184000200029088600870102300102031C292C90
:101850002A2C332CFF302000A8002808F800C830BC
:10186000883131208C312000290886008701010849
:10187000A8002808E10061088A3154228C31F8015F
:10188000C830883131208C3108007B08A03E8600AA
:101890008701810122001D1D4E2C4F2C5A2C7B08E4
:1018A000A03E860087018114210062088A00610839
:1018B0000A008C3122009D1C5E2C5F2C6A2C7B0858
:1018C000A03E860087010115210060088A005F089C
:1018D0000A008C317B08A03E8600870101080319AD
:1018E000722C732C7A2C21005E088A005D080A0095
:1018F0008C317D2C9731CC278C310800F801F9010F
:10190000720873040319852C862CB52CF701F70A8D
:10191000922C0130F235F30D890B8A2C0130F60040
:101920007608F707F31F952C962C892C0130F83593
:10193000F90D890B972C73087502031DA12C7208F1
:101940007402031CA42CA52CAA2C7208F4027308A0
:10195000F53B78140130F336F20C890BAB2C0130D7
:10196000F702031DB42CB52C962C7908F3007808E7
:10197000F20008002E0099124530F2000C30F300FE
:101980009531AE258C312E0019123630F200093017
:10199000F3009531B4258C31083022009F0090303F
:1019A0009D0024309E0019309B009C01FF30F20006
:1019B0000730F3009531A2258C318630F2001530C6
:1019C000F3009531A8258C318230F2001530F300F8
:1019D00095319C258C312000EA01ED01EC010830A5
:1019E000F40074082100EB00FB01FA012000EB0178
:1019F0002E00991608002000A80028080319012DC0
:101A0000022D202D28089731B3278C310230720621
:101A10007304031D0C2D0D2D202D20002808860099
:101A20008701333001020318162D172D202D280AA7
:101A30008600870104300102031C1F2D202D292D53
:101A4000FF302000A7002708F800C7308831312078
:101A50008C3120002808860087010108A70027088C
:101A6000E300280886008701413FE200F801C73003
:101A7000883131208C3108002000E9010030963196
:101A800046268D310B132130F2000F30F3009531D3
:101A900096258D310B17762D88319E208D3188311A
:101AA000BB208D31200054080319572D582D622D6D
:101AB000D4010130B6003608E907003096314626D9
:101AC0008D31762D55080319662D672D762DD5019C
:101AD0000030963146268D31200069088B316E2307
:101AE0008D3101302000B6003608E90704302000AF
:101AF0006902031C7C2D7D2D4C2D08000310200055
:101B0000961F03140318852D882D200096178A2D03
:101B100020009613650803198E2D8F2D932D01300B
:101B2000F0007008E8073B305E020318982D992DED
:101B30009E2D0130F0007008DE07B72DDE013B302E
:101B40005F020318A42DA52DAA2D0130F000700806
:101B5000DF07B72DDF01173060020318B02DB12D5C
:101B6000B62D0130F0007008E007B72DE0015E08E7
:101B7000031DBB2DBC2DC02D0130F0007008E60008
:101B800008002000AC00D801D80A9631F6268D3125
:101B9000FA30F2000030F300973186278D312000B3
:101BA0002108A200A3012C08A400A5012408F40028
:101BB0002508F5001030F6000E30F7008831F620C9
:101BC0008D3174082000A6007508A7002008A80021
:101BD000A9012808F4002908F5003C30F60000307F
:101BE000F7008831F6208D31740820002607AA00FE
:101BF0007508273DAB0022082A072100D7002000E6
:101C000023082B3D2100D80008002000AA002A0844
:101C100003190B2E0C2E402E2A089731B3278E3134
:101C2000023072067304031D162E172E402E20005C
:101C30002A088600870196310A268E312000A700E7
:101C400001082702031C252E262E402E2A0A860074
:101C5000870196310A268E31FF3E2000A700FF3013
:101C600003180030A8002808803AA9008030290213
:101C7000031D3C2E0108270203183F2E402E492E3B
:101C8000FF302000A7002708F800CB308831312032
:101C90008E3108002000AA000030A000F030A10022
:101CA0000830F200F030F300963152268E312000D9
:101CB000A5000730F200F030F300963152268E3145
:101CC0002000A6000030F200F030F30096315226DA
:101CD0008E312000A70026082702A8002508280228
:101CE0002A072407A9002908A20089315A218E3128
:101CF00007302000A000F030A1002A08A500250828
:101D0000A20089315A218E3108302000A000F03025
:101D1000A1002408A5002508A20089315A218E318E
:101D2000080096310A268E31F80078082000AC00B1
:101D3000963122268E31F80078082000AD009631C9
:101D4000E7268E31003A031DA62EA72EB02E2000C6
:101D50002D08F800F9017808AA007908AB00B82E20
:101D600020002C08F800F9017808AA007908AB00D7
:101D70002A08F8007808A300253086000030870084
:101D80000530F80000301E00F80BC32E2C08F800B8
:101D90007808A5002308F8007808A600A7012D08F8
:101DA000F8007808A800A90125308A3127228E3151
:101DB00008002000BF01C0018931A8218E31200018
:101DC000B6003608C100FD3041060319E82EE92EA1
:101DD000F12E963133268E31003A031DF02EF12E6E
:101DE000DC2E2000BF01C001082F8931A8218E31CF
:101DF0002000B6003608C1004108B6003F08373E53
:101E000086008701360881000130BF070030C03DE1
:101E1000FE30410603190D2F0E2F162F9631332653
:101E20008E31003A031D152F162FF52E20003F0886
:101E3000373E860087018101373085311D258E317F
:101E40000800522F0310961F03140318282F2B2F5E
:101E5000200096172D2F20009613692F0310161FB0
:101E600003140318342F372F20001617392F2000A2
:101E70001613692F0310961E03140318402F432FC7
:101E800020009616452F20009612692F0310161E6B
:101E9000031403184C2F4F2F20001616512F20002B
:101EA0001612692F20006908F000F1017108003A4C
:101EB00003195B2F692F7008003A0319222F013A8A
:101EC00003192E2F033A03193A2F013A0319462F0B
:101ED000692F0800F300730823008C00901F712FF6
:101EE000722F732FB42F0F301005F20008307206D6
:101EF00003197B2F7C2F922F0F301005F2000B302F
:101F000072060319842F852F922F10162E000F1C96
:101F10008A2F8B2F862F23000F198F2F902FB42FEE
:101F20000F08B42F0F301005F200083072060319A5
:101F30009A2F9B2FA42F0F301005F2000B30720642
:101F4000031DA32FA42FB42F0F18A72FA82FA42F42
:101F50000F0C890C0139F20011081F397204031D9E
:101F6000B22FB32FA82F1108080020009A01990161
:101F7000960197019801073095000F309100FF30CE
:101F80009200BF309300FF309400FF303E00D90034
:101F90004730CE00EF30C3000730E4000F30B80008
:101FA000DA01E501C401B901CF01E601BA01C501B9
:101FB000D001DB01FF30BB00FF30C600FF30D10095
:101FC000FF30DC000730E700FF30BC00FF30C70007
:101FD000FF30D200FF30DD000730E8000C303D005C
:101FE00090001730CB001330C50014303E00A30022
:101FF0001530A4001030A60014303D00C6000800C3
:102AF80024000E14080024000E1008009731CC277B
:102B08009531080022001D121D1608002E000C1019
:102B180096317626953108007B08A73E8600870106
:102B28000108080073082100EA007208E90008009B
:102B380073082100DE007208DD0008007308210018
:102B4800E2007208E100080073082100E000720842
:102B5800DF00080073082100E4007208E3000800A1
:102B680073082100E6007208E500080073082100D8
:102B7800E8007208E7000800F40074088931FC21B5
:102B880095310800640080010131890BC72D00349C
:102B98009631AB26953120001613D80108009631DE
:102BA800D826953120001613D80108002F00960169
:102BB8009701980199019A019B0108000630F200DB
:102BC800F030F30096315226953108000530F200B6
:102BD800F030F30096315226953108000430F200A7
:102BE800F030F30096315226953108000730F20094
:102BF800F030F30096315226953108000830F20083
:102C0800F030F30096315226963108000130F20078
:102C1800F030F30096315226963108000230F20067
:102C2800F030F30096315226963108000330F20056
:102C3800F030F30096315226963108000A30F2003F
:102C4800F030F30096315226963108006230310098
:102C58008D008F019101023093009201080020003D
:102C68006B08031D382E3A2E01303B2E0030080029
:102C780020005F08AB002B08A40060088E314A26AC
:102C880096310800F3007308F2000330F235FF3E76
:102C9800031D4A2E72352000960008007308300084
:102CA8009B0072089A001E171E14000000003000D6
:102CB8001C0808002300901A622E632E692E8F01CB
:102CC80028309000910103308D0008002000D701C2
:102CD800D601E801E701E6012100D701D80120006B
:102CE800D801080021006708680403197C2E7D2E8E
:102CF800822E68088A0067080A00963108002E00AC
:102D08000C100B140230F2000030F3009531BA2594
:102D180096312E0016140800803027008E00FF30F0
:102D28008D00C0308C0024001F08F33904389F0040
:102D380008000130250090008F019101FF308D00BF
:102D48008C012E009010803025008E000800553030
:102D58003D008F00AA308F000F103E0096015530BD
:102D68003D008F00AA308F000F140800200058087B
:102D78000319BF2EC02EC42E9531CC259631C82EEE
:102D88000130F0007008E7000800003097314A274A
:102D980096317208F6007308F7000E30F736F60C15
:102DA800890BD22E7608080055303D008F00AA30D6
:102DB8008F000F103E00960155303D008F00AA305D
:102DC8008F000F1408000930F200F030F30096313C
:102DD80052269631553A0319F22EF42E0130F52E6B
:102DE8000030080055303D008F00AA308F000F10CA
:102DF8000E303E00960055303D008F00AA308F00FF
:102E08000F140800F401F40A2000610889317E21BA
:102E180097312000A8002808E10061088A3154226F
:102E28009731080024000E1D1A2F1B2F222F0E1079
:102E380071088D0070088C000E14262F71088D0003
:102E480070088C0008008C31452497319531902505
:102E58009731FE3A031D312F322F372F0130F10001
:102E680071082000D707080003302000A8002808B0
:102E7800F400620889317E2197312000A9002908D1
:102E8800E20062088A31822297310800F50075084D
:102E980021009E0093171313131400002100131828
:102EA800562F572F522F0D08F3000C08F200080078
:102EB800F500F401751C612F622F662F7208F3006C
:102EC8007308F4070310F20D0310F50C7508031DC1
:102ED8006E2F6F2F5E2F740808000030F200F0305C
:102EE800F300963152269731F5007508F6008631C1
:102EF8007726973176060319822F842F0130852F84
:102F0800003008007308F5007208F400F536F40C78
:102F1800F536F40C740827008D0072080339F400A4
:102F28000530F435FF3E031D952F74358C000800DD
:102F38002E00101020006F08F1006E08F000973185
:102F480016279731210069086A040319AC2FAD2FA1
:102F5800B22F6A088A0069080A0097310800F6004B
:102F68007608F4007408F500BD2F0130F4007408E9
:102F7800F6077608860087010108031DC42FC52FB0
:102F8800B92F75087602F200F301F21BF30308006B
:102F980022001908F0007B08A83E86008701700807
:102FA80081000130F0007008FB0708307B02031C29
:102FB800DE2FDF2FE02FFB010130F000700820002A
:102FC800EB0708000F3023001005F20008307206E6
:102FD8000319EF2FF02FF92F0F301005F2000B30E7
:102FE8007206031DF82FF92FFA2F91150F1CFD2FCC
:082FF800FE2FFA2F0C0808005F
:020000040001F9
:0A000E00EC3FFF379F3FFF3FFF3F2D
:00000001FF
