:020000040000FA
:0400000080313728EC
:100008007E1480312E00161C0A280B2813280C1C7D
:100018000E280F2813288B318223803135280B1F97
:10002800162817283528991C1A281B2820288F1CC1
:100038001E281F2820283528191C23282428292869
:100048000F1C27282828292835281A1C2C282D2851
:100058003528101C3028312835288D314B25803122
:1000680035287E10090080313928FA01FB01463015
:100078008400003085001F308B31942380317E103E
:100088002000803147288D31622580318B31F02363
:1000980080318631222680318B31A12380318B1724
:1000A8000B179430F2000730F3008B31882380312E
:1000B8007330F2000C30F3008B318E2380318C3199
:1000C800232480312000931513163E00CF154F16B8
:1000D8000B13200062080319722873287728E2019D
:1000E8008C310124803120005C08B7003708D90022
:1000F8005B08B7003708D8005A08B7003708D70098
:1001080064080319882889288F286408610203185D
:100118008E288F28F2286108031993289428F2283A
:100128000130B7003708E4000B178C318224803186
:100138002000B7003708D50055080139B700B70EB9
:1001480016083706EF393706960055360139B700D5
:10015800B70EB70D16083706DF3937069600813116
:10016800612180312000B7003708D6005808B70051
:100178003708A4005708B8003808A5005608B90081
:100188003908A6005508BA003A08A700590882316C
:100198006E22803120005E085502031CD428D52821
:1001A800DB2856085F020318DA28DB28F3285D03EA
:1001B800031DDF28E028F3285408031DE428E52858
:1001C800F3285808B7003708A0005708B8003808BF
:1001D800A10059088F31BF278031F3280B17200061
:1001E80054080319F828F92844295708B700B80112
:1001F8005908B900BA013908F4003A08F500103076
:10020800F6000E30F7008E31082680317408200081
:10021800BB007508BC005808BD00BE013D08F400CD
:100228003E08F5003C30F6000030F7008E31082615
:100238008031740820003B07BF0075083C3DC000B2
:1002480037083F07C1003808403DC2004A0841024C
:10025800C3004B08423BC4004408803AC5008030C4
:100268004502031D392960084302031C3C293D2926
:1002780045298C31912480312000161763004529C7
:1002880063002E0016102000630803194C294D291D
:100298005C29E3018F31802780310B139430F20001
:1002A8000730F3008B31882380310B172E000C1098
:1002B8002E0016146C288031372823000F0C890C67
:1002C8000139F40011081F397404031D6C296D29C4
:1002D800612911141118712972296E290F0C890CC2
:1002E8000139F40011081F397404031D7C297D2984
:1002F80072299A308631BB26813123000F0C890C74
:100308000139F40011081F397404031D8C298D2943
:10031800812901308631BB26813123000F0C890CDD
:100328000139F40011081F397404031D9C299D2903
:10033800912991149118A129A2299E290F0C890CA1
:100348000139F40011081F397404031DAC29AD29C3
:10035800A2299B308631BB26813123000F0C890CE2
:100368000139F40011081F397404031DBC29BD2983
:10037800B1298D317B258131F4007408F500230003
:100388000F0C890C0139F40011081F397404031D7E
:10039800CE29CF29C32991161116111AD429D52986
:1003A800D1290F0C890C0139F40011081F39740484
:1003B800031DDF29E029D52911151119E429E5299B
:1003C800E129751FE829E92961290F0C890C0139F0
:1003D800F40011081F397404031DF329F429E929CD
:1003E80011141118F829F929F5290F0C890C01396C
:1003F800F40011081F397404031D032A042AF9297B
:100408009A308631BB26813123000F0C890C0139C3
:10041800F40011081F397404031D132A142A082A2A
:1004280000308631BB26813123000F0C890C01393D
:10043800F40011081F397404031D232A242A182ADA
:1004480091149118282A292A252A0F0C890C013978
:10045800F40011081F397404031D332A342A292A89
:100468009B308631BB26813123000F0C890C013962
:10047800F40011081F397404031D432A442A382A3A
:100488008D317B258131F4007408F50023000F0CB1
:10049800890C0139F40011081F397404031D552A09
:1004A800562A4A2A91161116111A5B2A5C2A582ACA
:1004B8000F0C890C0139F40011081F397404031D4D
:1004C800662A672A5C2A111511196B2A6C2A682A70
:1004D800750808002000AC000A30F200F030F30084
:1004E8008C31172482312000A800A9012808AD000A
:1004F8002908AE002E08F5002D08F4000530F60096
:100508000030F7008E310826823174080B3E200037
:10051800AF00F030753DB0002D082E040319952A60
:10052800962AB52A2F08FE3EF200FF30303DF30030
:100538008C311724823120002606031DA42AA52AFF
:10054800B52A2F08FF3EF200FF30303DF3008C3112
:100558001724823120002706031DB32AB42AB52A9E
:10056800712B0130F200F030F3008C311724823106
:100578002000A800A9012808F4002908F500053082
:10058800F6000030F7008E31082682317408063EE6
:100598002000AA00F030753DAB0030082B02031D87
:1005A800D72A2F082A020318DA2ADB2AEA2A0B306C
:1005B800AF00F030B0000930A000F030A100553095
:1005C800A8002808A2008731D727823120003008E8
:1005D800A1002F08A0002C08A8002808A200873135
:1005E800D727823120002F08013EA0000030303D7F
:1005F800A1002408A8002808A2008731D727823143
:1006080020002F08023EA0000030303DA100250840
:10061800A8002808A2008731D727823120002F0898
:10062800033EA0000030303DA1002608A80028089D
:10063800A2008731D727823120002F08043EA0006E
:100648000030303DA1002708A8002808A200873103
:10065800D72782310A302000A000F030A1000530F1
:10066800F2000030F3002F08FA3EF4000F30303D5E
:10067800F5008F314427823172082000A80028082D
:10068800A2008731D727823100302000A000F03047
:10069800A1000530F2000030F3002F08FA3EF40004
:1006A8000F30303DF5008F31442782317208200029
:1006B800A8007308A9000030F200F030F3008C3174
:1006C8001724823120002807AA002D082A02AB002F
:1006D8002B08A2008731D727823108000A30F200A0
:1006E8000030F30020005C08AC00AD012C08F400D9
:1006F8002D08F5008431B624833172082000AE003D
:100708002E08B1000A30F2000030F3005C08AC009B
:10071800AD012C08F4002D08F5008531CF25833173
:1007280072082000AE002E08B2000230AC002C087F
:10073800F40031088E31272683312000AD002D08C2
:10074800B10002303106031DAA2BAB2BBF2B04309E
:100758003202031CB02BB12BB22BB2010330AC0018
:100768002C08F40032088E31272683312000AD0092
:100778002D08B200CB2B0930AC002C08F40032084D
:100788008E31272683312000AD002D08B2000A30B3
:10079800F2000030F3005B08AC00AD012C08F40057
:1007A8002D08F5008431B624833172082000AE008C
:1007B8002E08AF000A30F2000030F3005B08AC00EE
:1007C800AD012C08F4002D08F5008531CF258331C3
:1007D80072082000AE002E08B0000530AC002C08CE
:1007E800F4002F088E31272683312000AD002D0814
:1007F800AF000930AC002C08F40030088E312726F1
:1008080083312000AD002D08B0000A30AC002C0860
:10081800F20031088C31F524833120003207AD0015
:100828002D08DC000A30AC002C08F2002F088C31AF
:10083800F524833120003007AD002D08DB008C3112
:100848000124833108002000AD002D0803192D2C48
:100858002E2C362C0A30A000F030A100A2018731DE
:10086800D727843101302000A000F030A1002408EF
:10087800AC002C08A2008731D72784310230200031
:10088800A000F030A1002508AC002C08A200873198
:10089800D727843103302000A000F030A1002608BB
:1008A800AC002C08A2008731D727843104302000FF
:1008B800A000F030A1002708AC002C08A200873166
:1008C800D727843105302000A000F030A100280887
:1008D800AC002C08A2008731D727843106302000CD
:1008E800A000F030A1002908AC002C08A200873134
:1008F800D727843107302000A000F030A1002A0853
:10090800AC002C08A2008731D7278431083020009A
:10091800A000F030A1002B08AC002C08A200873101
:10092800D727843109302000A000F030A100AA3078
:10093800AC002C08A2008731D72784310030200072
:10094800A000F030A100240825072607270728075C
:1009580029072A072B07AC002C08A2008731D727C4
:10096800843108002000A101F31FBB2CBC2CC32C30
:10097800F209F309F20A0319F30AA101A10AF51F02
:10098800C62CC72CD02CF409F509F40A0319F50A6A
:100998000130F6007608A106A201A30172087304CB
:1009A8000319D72CD82C072DA001A00AE42C01305C
:1009B800F235F30D890BDC2C0130F6007608A00720
:1009C800F31FE72CE82CDB2C0130A235A30D890B93
:1009D800E92C73087502031DF32C72087402031CBA
:1009E800F62CF72CFC2C7208F4027308F53B221441
:1009F8000130F336F20C890BFD2C0130A002031DE7
:100A0800062D072DE82C210803190B2D0C2D112D6F
:100A1800A209A309A20A0319A30A2308F3002208BA
:100A2800F20008000A30F200F030F3008C3117248D
:100A380085312000A0000830F200F030F3008C313E
:100A4800172485312000A1000730F200F030F300B0
:100A58008C31172485312000A2000630F200F030D6
:100A6800F3008C31172485312000A3000530F200F3
:100A7800F030F3008C31172485312000A4000430B5
:100A8800F200F030F3008C31172485312000A500E6
:100A98000330F200F030F3008C3117248531200048
:100AA800A6000230F200F030F3008C3117248531B3
:100AB8002000A7000130F200F030F3008C31172439
:100AC8008531200027072607250724072307220743
:100AD80021072007A8002808F400740808000A3035
:100AE800F2000030F30020005F08A800A9012808E0
:100AF800F4002908F5008431B624853172082000F5
:100B0800AA002A08AC000A30F2000030F3005F089F
:100B1800A800A9012808F4002908F5008531CF2587
:100B2800853172082000AA002A08AB000530A80009
:100B38002808F4002C088E31272685312000A900CA
:100B48002908AC0005302C06031DAB2DAC2DB12DAA
:100B58003230A8002808DF00CA2D0930A80028086C
:100B6800F4002B088E31272685312000A90029089A
:100B7800AB000A30A8002808F2002C088C31F524B4
:100B8800853120002B07A9002908DF005F088E3176
:100B9800AD2685310800F801F51FD32DD42DDB2DA6
:100BA800F409F509F40A0319F50AF801F80AF31F1C
:100BB800DE2DDF2DE42DF209F309F20A0319F30AF9
:100BC800720873040319E92DEA2D132EF701F70AA9
:100BD800F62D0130F235F30D890BEE2D0130F600BC
:100BE8007608F707F31FF92DFA2DED2D7308750216
:100BF800031D002E72087402031C032E042E082EF7
:100C08007208F4027308F53B0130F336F20C890BD5
:100C1800092E0130F702031D122E132EFA2D780823
:100C28000319172E182E1D2EF409F509F40A0319B5
:100C3800F50A7508F3007408F20008008D3195254F
:100C48008631003A0319292E2A2E6B2E8D310A255A
:100C58008631003A0319312E322E6B2E8B31E02368
:100C680086312000B3003308E1008B31D823863168
:100C78002000B3003308D2008B31E82386312000EE
:100C8800B3003308E0008B31C02386312000B30065
:100C98003308DF008B31B82386312000B3003308D6
:100CA800DE008B31B02386312000B3003308DD002D
:100CB8008B31C82386312000B3003308DC008B3128
:100CC800D02386312000B3003308DB006E2E8E312E
:100CD800DB2686310800A42E03102000961F03147B
:100CE8000318772E7A2E200096177C2E2000961354
:100CF800BA2E03102000161F03140318842E872E03
:100D080020001617892E20001613BA2E0310200073
:100D1800961E03140318912E942E20009616962ED4
:100D280020009612BA2E03102000161E0314031872
:100D38009E2EA12E20001616A32E20001612BA2EC3
:100D48007B08F000F1017108003A0319AC2EBA2EA5
:100D58007008003A0319702E013A03197D2E033AE0
:100D680003198A2E013A0319972EBA2E0800F300A8
:100D7800730823008C00901FC22EC32EC42E052F8B
:100D88000F301005F200083072060319CC2ECD2E54
:100D9800E32E0F301005F2000B3072060319D52E22
:100DA800D62EE32E10162E000F1CDB2EDC2ED72E8F
:100DB80023000F19E02EE12E052F0F08052F0F3005
:100DC8001005F200083072060319EB2EEC2EF52EF2
:100DD8000F301005F2000B307206031DF42EF52EAD
:100DE800052F0F18F82EF92EF52E0F0C890C013946
:100DF800F20011081F397204031D032F042FF92E66
:100E08001108080020009A0199019601970198019C
:100E1800073095000F309100FF309200FF309300AB
:100E2800FF309400FF303E00D900C730CE00EF30CD
:100E3800C3000730E4000F30B800DA01E501C4014F
:100E4800B901CF01E601BA01C501D001DB01FF30CC
:100E5800BB00FF30C600FF30D100FF30DC00073098
:100E6800E700FF30BC00FF30C700FF30D200FF3082
:100E7800DD000730E8000C303D0090001330C5005D
:100E880014303E00A3001530A40014303D00C60005
:100E980008002000AA000030A000F030A1000830AF
:100EA800F200F030F3008C31172487312000A500C0
:100EB8000730F200F030F3008C311724873120001E
:100EC800A6000030F200F030F3008C31172487318F
:100ED8002000A70026082702A800250828022A07BC
:100EE8002407A9002908A2008731D72787310730AE
:100EF8002000A000F030A1002A08A5002508A200C3
:100F08008731D727873108302000A000F030A100B2
:100F18002408A5002508A2008731D72787310800B3
:100F280003102000961F031403189B2F9E2F2000E8
:100F38009617A02F2000961361080319A42FA52F38
:100F4800A92F0130F0007008E4073B305A0203185B
:100F5800AE2FAF2FB42F0130F0007008DA07CD2F75
:100F6800DA013B305B020318BA2FBB2FC02F0130C8
:100F7800F0007008DB07CD2FDB0117305C02031887
:100F8800C62FC72FCC2F0130F0007008DC07CD2FFB
:100F9800DC015A08031DD12FD22FD62F0130F000C3
:100FA8007008E200080000308B1B01302000A3000D
:100FB800210830009B002000200830009A00200003
:100FC800220830009C001E171E158B1355309F00F9
:100FD800AA309F009E149E18F22FF32FEF2F1E1198
:100FE8002000230C031C8B1303188B170800240004
:080FF8000E10080008000800BB
:1016FE0024000E1408002E000C108C312F248B3178
:10170E00080073082000E8007208E700080073085C
:10171E002000E6007208E500080064008001013137
:10172E00890B952B00348C3164248B3120001613D9
:10173E00D40108008C3191248B3120001613D40172
:10174E0008002F0096019701980199019A019B01BB
:10175E0008000630F200F030F3008C3117248B3184
:10176E0008000530F200F030F3008C3117248B3175
:10177E0008000430F200F030F3008C3117248B3166
:10178E0008000730F200F030F3008C3117248B3153
:10179E0008000830F200F030F3008C3117248B3142
:1017AE0008000130F200F030F3008C3117248B3139
:1017BE0008000230F200F030F3008C3117248B3128
:1017CE0008000330F200F030F3008C3117248B3117
:1017DE0008002000E401E301E201CA01CB01D401BB
:1017EE000800623031008D008F01910102309300AC
:1017FE009201080020005B08AB002B08A4005C08D7
:10180E0087314D278C310800F3007308F200033046
:10181E00F235FF3E031D0F2C723520009600080096
:10182E00730830009B0072089A001E171E140000E9
:10183E00000030001C0808002300901A272C282CCA
:10184E002E2C8F0128309000910103308D0008005E
:10185E002000650866040319352C362C3B2C6608CF
:10186E008A0065080A008C3108002E000C100B143B
:10187E00FF30F2000730F3008B318E238C312E00B7
:10188E0016140800803027008E00FF308D00C03007
:10189E008C0024001F08F33904389F000800013023
:1018AE00250090008F019101FF308D008C012E00DC
:1018BE009010803025008E00080055303D008F00BE
:1018CE00AA308F000F103E00960155303D008F005C
:1018DE00AA308F000F140800200054080319782C2A
:1018EE00792C7D2C8B319A238C31812C0130F00098
:1018FE007008E300080000308C31E3248C3172084C
:10190E00F6007308F7000E30F736F60C890B8B2CA9
:10191E007608080055303D008F00AA308F000F105A
:10192E003E00960155303D008F00AA308F000F14F7
:10193E00080055303D008F00AA308F000F100E307A
:10194E003E00960055303D008F00AA308F000F14D8
:10195E000800F401F40A20005D088E3127268C3130
:10196E002000A8002808DD005D088E3151268C313C
:10197E00080024000E1DC42CC52CCC2C0E10710892
:10198E008D0070088C000E14D02C71088D0070081C
:10199E008C00080003302000A8002808F4005E0820
:1019AE008E3127268C312000A9002908DE005E0822
:1019BE008E317F268C310800F500750821009E00BF
:1019CE00931713131314000021001318EF2CF02C8F
:1019DE00EB2C0D08F3000C08F2000800F500F401E2
:1019EE00751CFA2CFB2CFF2C7208F3007308F407FD
:1019FE000310F20D0310F50C7508031D072D082DAD
:101A0E00F72C740808000030F200F030F3008C312F
:101A1E0017248D31F5007508F600853116258D31A8
:101A2E00760603191B2D1D2D01301E2D00300800CA
:101A3E007308F5007208F400F536F40CF536F40C64
:101A4E00740827008D0072080339F4000530F43550
:101A5E00FF3E031D2E2D74358C00080022008E01D2
:101A6E008F0190019101920193018D0121009E0140
:101A7E009B0194019501960197019A019901980194
:101A8E00803093009D0108002E00101020006A087F
:101A9E00F1006908F0008C31C0248D3120006708F8
:101AAE00680403195B2D5C2D612D68088A00670898
:101ABE000A008D3108008B31A8238D31873106271E
:101ACE008D318B31F8238D318C3149248D318D310F
:101ADE0035258D318C3156248D318D31EA258D3160
:101AEE008C313C248D3108000F3023001005F2009C
:101AFE00083072060319842D852D8E2D0F3010059A
:101B0E00F2000B307206031D8D2D8E2D8F2D91152B
:101B1E000F1C922D932D8F2D0C0808000930F2000A
:101B2E00F030F3008C3117248D31F4007408F60078
:101B3E00F501F50AAA3076060319A62DA72DAE2DAE
:101B4E00553076060319AC2DAD2DAE2DF501750869
:101B5E00080020005108031DB52DB62DC52D0D1AF8
:101B6E00B92DBA2DCC2D6230F2006630890BBD2D09
:101B7E00F20BBD2D2000D101D10ACC2D0D1EC82D8A
:101B8E00C92DCC2DD101D301D30A08002000500855
:101B9E00031DD22DD32DE22D8E1AD62DD72DE92D44
:101BAE006230F2006630890BDA2DF20BDA2D20004E
:101BBE00D001D00AE92D8E1EE52DE62DE92DD0019E
:101BCE00FA01FA0A080024008F01900104309100F6
:101BDE0086308D00E8308C000D082000EA002400CD
:101BEE000C082000E9002E0010101A14FE30F2002E
:101BFE000730F3008B3188238D31053024008E00A1
:101C0E000800F801F901741C0D2E0E2E122E760806
:101C1E00F8077708F93D0130F635F70D890B132ECD
:101C2E000130F536F40C890B182E74087504031D5B
:101C3E00212E222E0A2E7908F5007808F4000800CD
:101C4E00F60076088C310B248E318D31B0258E3115
:101C5E008D31CD258E317A080319362E372E482E2A
:101C6E00FA010130F5007508F607760874020318BC
:101C7E00412E422E432EF60176088C310B248E31E6
:101C8E002C2E2000530803194D2E4E2E2C2ED30130
:101C9E00760808002000A7000030A000F030A10058
:101CAE000630F200F030F3008C3117248E31200014
:101CBE00A4000030F200F030F3008C3117248E3186
:101CCE002000A500240825022707A6002608A2004A
:101CDE008731D7278E3106302000A000F030A100CA
:101CEE002708A4002408A2008731D7278E310800C8
:101CFE002000A7000030A000F030A1000530F20057
:101D0E00F030F3008C3117248E312000A400003007
:101D1E00F200F030F3008C3117248E312000A50034
:101D2E00240825022707A6002608A2008731D727F8
:101D3E008E3105302000A000F030A1002708A4004D
:101D4E002408A2008731D7278E3108002000A70073
:101D5E000030A000F030A1000430F200F030F300AB
:101D6E008C3117248E312000A4000030F200F030A8
:101D7E00F3008C3117248E312000A5002408250293
:101D8E002707A6002608A2008731D7278E310430F8
:101D9E002000A000F030A1002708A4002408A20013
:101DAE008731D7278E31080005302000AE002E086F
:101DBE00E1001E30AE002E08D2000330AE002E0819
:101DCE00E0001930AE002E08DF000230AE002E0803
:101DDE00DE00DD01DC01DB011E30AE002E08A400AA
:101DEE000530AF002F08A5000330B0003008A60064
:101DFE001930B1003108A7000230B2003208A80035
:101E0E00A901AA01AB010130843127248E310800CB
:101E1E002000B5008731FB278F31252F83317223A8
:101E2E008F313C2F8C31B0248F313C2F853173256F
:101E3E008F313C2F8C31D1248F313C2F200035082F
:101E4E00B300B4013408003A03192E2F3C2F330887
:101E5E00003A0319152F013A0319192F033A0319E2
:101E6E001D2F013A0319212F3C2F8B317F238F31E8
:101E7E0000308C310B248F310800F701F801720805
:101E8E00730403194B2F4C2F7B2FF901F90A582F8E
:101E9E000130F235F30D890B502F0130F600760824
:101EAE00F907F31F5B2F5C2F4F2F0130F735F80D1D
:101EBE00890B5D2F73087502031D672F720874025C
:101ECE00031C6A2F6B2F702F7208F4027308F53BF8
:101EDE0077140130F336F20C890B712F0130F902B1
:101EEE00031D7A2F7B2F5C2F7808F3007708F20002
:101EFE000800FB0100308C310B248F310B136F3037
:101F0E00F2000630F3008B3188238F310B17B82F78
:101F1E008D31B0258F318D31CD258F312000530875
:101F2E0003199A2F9B2FA52FD3010130B600360827
:101F3E00FB0700308C310B248F31B82F7A08031930
:101F4E00A92FAA2FB82FFA0100308C310B248F3114
:101F5E007B088F310F278F3101302000B6003608F5
:101F6E00FB0704307B02031CBD2FBE2F8F2F0800F2
:101F7E002000AC00D401D40A8C31A0248F31FA3069
:101F8E00F2000030F3008D311F258F312000210823
:101F9E00A200A3012C08A400A5012408F400250822
:101FAE00F5001030F6000E30F7008E3108268F3116
:101FBE0074082000A6007508A7002008A800A90133
:101FCE002808F4002908F5003C30F6000030F70030
:101FDE008E3108268F31740820002607AA00750856
:101FEE00273DAB0022082A07CA0023082B3DCB0051
:021FFE000800D9
:020000040001F9
:0A000E00EC3FFF379F3FFF3FFF3F2D
:00000001FF
