:020000040000FA
:10000000803143280A3008007E1480312E00161CEF
:100010000A280B2813280C1C0E280F2813288F31B0
:100020002627803141280B1F162817284128991CA4
:100030001A281B2820288F1C1E281F28202841280A
:10004000191C2328242829280F1C27282828292878
:1000500041281A1C2C282D283528101C302831281E
:10006000352887312827803141289A1C382839289B
:100070004128901C3C283D2841288F312C27803175
:1000800041287E10090080314528213084008F30BE
:1000900085001200DE001200DF001200E0001200F6
:1000A000E1001200E200F801F901FA0120308400B9
:1000B0000030850020308F31442780317E102000B1
:1000C000803162288731AC27803187310F2780311A
:1000D0008B170B177C30F3000330F4008F3132277D
:1000E0008031E130F3000F30F4008F313827803158
:1000F0008F31862780312000931513163E00CF15CF
:100100004F1663000B13200039080319882889282B
:100110008D28B9018F3164278031200034080319FC
:1001200092289328D428B4010B178731E227803115
:100130002000CF004F08B60036080139CF00CF0E9F
:1001400016084F06EF394F06960036360139CF00B4
:10015000CF0ECF0D16084F06DF394F0696008031BF
:10016000022080312000CF004F08B70087313F27A1
:10017000803120005E083602031CBF28C028C62834
:100180005F0837020318C528C628D5283803031D81
:10019000CA28CB28D5283508031DCF28D028D52834
:1001A00085315F258031D5280B17200035080319CC
:1001B000DA28DB2826297808CF00D0017A08D10078
:1001C000D2015108F3005208F4001030F5000E304F
:1001D000F60086314126803173082000D300740870
:1001E000D4007908D500D6015508F3005608F4006C
:1001F0003C30F5000030F60086314126803173082E
:1002000020005307D7007408543DD8004F08570703
:10021000D9005008583DDA0024085902DB002508AF
:100220005A3BDC005C08803ADD0080305D02031D33
:100230001B2960085B02031C1E291F292629FF3089
:10024000F3000330F4008731812780312E0016102F
:1002500020003A0803192D292E293D29BA01BC0195
:1002600017168531A22580317C30F3000330F4006D
:100270008F31322780312E000C102E001614812869
:10028000803143280A30F3000030F4007A0820005F
:10029000C400C5014408F5004508F60083311C235D
:1002A000813173082000C6004608C9000A30F300F7
:1002B0000030F4007A08C400C5014408F500450880
:1002C000F60084313024813173082000C6004608CE
:1002D000CA000230C4004408F500490886311726D8
:1002E00081312000C5004508C90002304906031DC0
:1002F0007A297B298F2904304A02031C802981290D
:100300008229CA010330C4004408F5004A08863136
:10031000172681312000C5004508CA009B290930F5
:10032000C4004408F5004A088631172681312000B0
:10033000C5004508CA000A30F3000030F40079080F
:10034000C400C5014408F5004508F60083311C23AC
:10035000813173082000C6004608C7000A30F30048
:100360000030F4007908C400C5014408F5004508D0
:10037000F60083311C23813173082000C600460833
:10038000C8000530C4004408F50047088631172628
:1003900081312000C5004508C7000930C400440869
:1003A000F50048088631172681312000C500450830
:1003B000C8000A30C4004408F30049088731972771
:1003C000813120004A07C5004508FA000A30C40000
:1003D0004408F300470887319727813120004807F8
:1003E000C5004508F9008F316427813108002000DD
:1003F000C6000A30F3007030F4008F31922781314B
:100400000B3E2000C700703003187130C800470849
:10041000FE3EF300FF30483DF4008F3192278131DA
:1004200020004206031D152A162A272A4708FF3EE8
:10043000F300FF30483DF4008F31922781312000D6
:100440004306031D242A252A272A0030942A013036
:10045000F3007030F4008F3192278131063E200086
:10046000C400703003187130C50048084502031DF0
:100470003B2A4708440203183E2A3F2A432A0B30EE
:10048000C7007030C8004808F4004708F300460869
:10049000C4004408F50086318126813120004708D8
:1004A000013EF3000030483DF4004008C400440819
:1004B000F50086318126813120004708023EF30095
:1004C0000030483DF4004108C4004408F50086317E
:1004D0008126813120004708033EF3000030483D6B
:1004E000F4004208C4004408F500863181268131B9
:1004F00020004708043EF3000030483DF400430864
:10050000C4004408F5008631812681310A30F300A9
:100510007030F40020004708FA3EC4004408F5009B
:10052000863181268131013008000830F3007030B7
:10053000F4008F31922782312000C0000730F30091
:100540007030F4008F31922782312000C1000630D4
:10055000F3007030F4008F31922782312000C20006
:100560000530F3007030F4008F3192278231200083
:10057000C3000430F3007030F4008F3192278231D1
:100580002000C4000330F3007030F4008F31922754
:1005900082312000C5000230F3007030F4008F314A
:1005A000922782312000C6000130F3007030F40041
:1005B0008F319227823120004607450744074307C1
:1005C000420741074007C7004708F5000A30F3001B
:1005D0007030F4008F31922782312000C000400833
:1005E000F6000B30F3007030F4008F319227823127
:1005F0002000C0004008F70076087707C0004008D8
:10060000F507142B0130C0004008F7077708C10038
:10061000C2014108F3004208F4008F319227823171
:100620002000C3004308F50776087702031C192B46
:100630001A2B022B750808002000C101F41F212B82
:10064000222B292BF309F409F30A0319F40AC10137
:10065000C10AF61F2C2B2D2B362BF509F609F50AAE
:100660000319F60A0130F7007708C106C201C30179
:100670007308740403193D2B3E2B6D2BC001C00A77
:100680004A2B0130F335F40D890B422B0130F70072
:100690007708C007F41F4D2B4E2B412B0130C2357C
:1006A000C30D890B4F2B74087602031D592B730859
:1006B0007502031C5C2B5D2B622B7308F50274081A
:1006C000F63B42140130F436F30C890B632B0130F6
:1006D000C002031D6C2B6D2B4E2B41080319712B8F
:1006E000722B772BC209C309C20A0319C30A430834
:1006F000F4004208F300080003102000961F0314C2
:100700000318832B862B20009617882B2000961326
:100710006208031D8C2B8D2B8E2BD72B2708F10005
:100720002608F000A60A0319A70A7108803AF20009
:1007300080307202031D9E2B62087002031CA12BE5
:10074000A22BA92B2000A601A7010130F000700800
:10075000B4003B3078020318AE2BAF2BB42B013022
:10076000F0007008F807CD2BF8013B307902031830
:10077000BA2BBB2BC02B0130F0007008F907CD2B32
:10078000F90117307A020318C62BC72BCC2B013086
:10079000F0007008FA07CD2BFA017808031DD12B61
:1007A000D22BD72B0130F00070082000B9000800D0
:1007B0000A30F3000030F40020005F08C400C501D7
:1007C0004408F5004508F60083311C238331730883
:1007D0002000C6004608C8000A30F3000030F400CC
:1007E0005F08C400C5014408F5004508F6008431DF
:1007F0003024833173082000C6004608C700053046
:10080000C4004408F50048088631172683312000CB
:10081000C5004508C80005304806031D102C112CE2
:10082000162C3230C4004408DF002F2C0930C400DD
:100830004408F50047088631172683312000C5009B
:100840004508C7000A30C4004408F300480887314F
:100850009727833120004707C5004508DF000800BF
:100860002000C101F61F352C362C3D2CF509F60968
:10087000F50A0319F60AC101C10AF41F402C412CE4
:10088000462CF309F409F30A0319F40A73087404F3
:1008900003194B2C4C2C752CC001C00A582C01306C
:1008A000F335F40D890B502C0130F7007708C007A1
:1008B000F41F5B2C5C2C4F2C74087602031D622CF9
:1008C00073087502031C652C662C6A2C7308F502EC
:1008D0007408F63B0130F436F30C890B6B2C0130B5
:1008E000C002031D742C752C5C2C41080319792C53
:1008F0007A2C7F2CF509F609F50A0319F60A760811
:10090000F4007508F3000800F400740823008C005C
:10091000901F8B2C8C2C8D2CCE2C0F301005F300BF
:10092000083073060319952C962CAC2C0F3010054B
:10093000F3000B30730603199E2C9F2CAC2C101661
:100940002E000F1CA42CA52CA02C23000F19A92CC1
:10095000AA2CCE2C0F08CE2C0F301005F300083037
:1009600073060319B42CB52CBE2C0F301005F30000
:100970000B307306031DBD2CBE2CCE2C0F18C12CC2
:10098000C22CBE2C0F0C890C0139F30011081F3941
:100990007304031DCC2CCD2CC22C11080800002D93
:1009A0000310961F03140318D62CD92C2000961779
:1009B000DB2C20009613172D0310161F03140318A9
:1009C000E22CE52C20001617E72C20001613172D1B
:1009D0000310961E03140318EE2CF12C200096161B
:1009E000F32C20009612172D0310161E0314031863
:1009F000FA2CFD2C20001616FF2C20001612172DA5
:100A000020003D08F000F1017108003A0319092D9A
:100A1000172D7008003A0319D02C013A0319DC2C69
:100A2000033A0319E82C013A0319F42C172D080096
:100A300020009A01990196019701980107309500CD
:100A40000F309100FF309200FF309300FF30940090
:100A5000FF303E00D900C730CE00EF30C300073072
:100A6000E4000F30B800DA01E501C401B901CF019B
:100A7000E601BA01C501D001DB01FF30BB00FF3048
:100A8000C600FF30D100FF30DC000730E700FF3048
:100A9000BC00FF30C700FF30D200FF30DD00073060
:100AA000E8000C303D0090001330C50014303E00CB
:100AB000A3001530A40014303D00C600080020003B
:100AC000B501B50A8F31F0278531FA30F3000030D7
:100AD000F4008731812785318F311D2785317808D2
:100AE0002000C200C3017A08C400C5014408F30015
:100AF0004508F4001030F5000E30F600863141262E
:100B0000853173082000C6007408C7007908C80042
:100B1000C9014808F3004908F4003C30F5000030F2
:100B2000F600863141268531730820004607CA0049
:100B30007408473DCB0042084A07A40043084B3DD8
:100B4000A50008002000BD0100308F316E278531DF
:100B5000CF30F3000430F4008F3132278531DA2DA5
:100B60008631BD26853186319F26853120003C089F
:100B70000319BB2DBC2DC62DBC010130CE004E0883
:100B8000BD0700308F316E278531DA2D3B08031900
:100B9000CA2DCB2DDA2DBB0100308F316E27853168
:100BA00020003D088531E225853101302000CE004E
:100BB0004E08BD07043020003D02031CE02DE12D4E
:100BC000B02D08002000CD008F311A278531F82D77
:100BD0008131422185310F2E8F317A2785310F2EB9
:100BE0008331D82385310F2E8731F22785310F2E9F
:100BF00020004D08CB00CC014C08003A0319012E0F
:100C00000F2E4B08003A0319E82D013A0319EC2D79
:100C1000033A0319F02D013A0319F42D0F2E8F31E9
:100C20001727853100308F316E2785310800F70096
:100C300077088F316E2786318631BD268631863121
:100C40009F26863120003B080319272E282E392E97
:100C5000BB010130F6007608F70777087502031824
:100C6000322E332E342EF70177088F316E278631DE
:100C70001C2E3C0803193D2E3E2E1C2EBC0177086D
:100C800008002000C001C101731C472E482E4D2EC4
:100C900075082000C0077608C13D0130F535F60D16
:100CA000890B4E2E0130F436F30C890B532E73084A
:100CB0007404031D5C2E5D2E442E20004108F400B8
:100CC0004008F300080024008F01900104309100D7
:100CD00086308D00E8308C000D082000B300240021
:100CE0000C082000B2002E0010101A140F30F30070
:100CF0000F30F4008F3132278631053024008E000A
:100D0000080000308B1B0130F600740830009B0097
:100D100073089A0075089C001E171E158B1355301A
:100D20009F00AA309F009E149E18972E982E942EF6
:100D30001E11760C031C8B1303188B170800200060
:100D40003E08031DA42EA52EB52E8E1AA82EA92E60
:100D5000BC2E2130F3007630890BAC2EF30BAC2E79
:100D600000322000BE01BE0ABC2E8E1EB82EB92E47
:100D7000BC2EBE01BB01BB0A080020003F08031DBA
:100D8000C22EC32ED32E0D1AC62EC72EDA2E213018
:100D9000F3007630890BCA2EF30BCA2E00322000E6
:100DA000BF01BF0ADA2E0D1ED62ED72EDA2EBF01B6
:100DB000BC01BC0A08000F3023001005F300083006
:100DC00073060319E42EE52EEE2E0F301005F30006
:100DD0000B307306031DED2EEE2EEF2E91150F1C1A
:100DE000F22EF32EEF2E0C0808002000C100073071
:100DF000F3007030F4004108C0004008F50086316F
:100E0000812686310830F3007030F4007708200026
:100E1000C0004008F50086318126863108008F31F8
:100E20004A2787318531182587318F315B278731F4
:100E30008F31C527873187316B2787318731552718
:100E400087318631632687318F31B8278731080093
:100E50002E00101020003308F1003208F000873116
:100E6000D12787312000300831040319382F392F5A
:100E70003E2F31088A0030080A00873108007908BF
:100E80002000C9004908C0007808CA004A08C1000B
:100E90003708CB004B08C2003608CC004C08C30012
:100EA0007A088131F7218731080001302500900050
:100EB0008F019101FF308D008C012E0090109A144B
:100EC0001030F3000F30F4008F313E27873180302F
:100ED00025008E00080022008E018F0190019101F3
:100EE000920193018D0121009E019B0194019501C6
:100EF000960197019A0199019801803093009D0114
:100F000008007408F6007308F500F636F50CF6369E
:100F1000F50C750827008D0073080339F5000530BE
:100F2000F535FF3E031D902F75358C000800F60047
:100F3000F501761C9C2F9D2FA12F7308F4007408D7
:100F4000F5070310F30D0310F60C7608031DA92F07
:100F5000AA2F992F75080800823195228731200029
:100F6000C8004808C9000030F3007030F400490898
:100F7000C8004808F5008631812687310800F60050
:100F8000760821009E00931713131314000021000C
:100F90001318CB2FCC2FC72F0D08F4000C08F3002B
:100FA000080024000E1DD52FD62FDD2F0E1071083E
:100FB0008D0070088C000E14E12F71088D007008F0
:100FC0008C00080000308731BF278731730820006C
:100FD000C0007408C1000E30C136C00C890BEC2F64
:100FE0004008080003302000C0004008F5005E08FB
:100FF0008631172687312000C1004108DE00080035
:101E1C0008000800080025008E13080025008E1706
:101E2C00080024000E14080024000E1008008F3146
:101E3C0014278F3108000234193403341E3405344E
:101E4C002E000C108F319E278F3108002E00901021
:101E5C008F31AB278F31080074082000B100730854
:101E6C00B000080074082000AF007308AE00080032
:101E7C0074082000A9007308A80008006400800101
:101E8C000131890B452F00342F00960197019801E1
:101E9C0099019A019B0108008F31D2278F318F3124
:101EAC0011278F312000B5010800623031008D0000
:101EBC008F019101023093009201080079082000F3
:101ECC00C2004208F7007A088631F5268F310800E7
:101EDC00F4007408F3000330F335FF3E031D722F3A
:101EEC007335200096000800F501F50A200038082B
:101EFC00863117268F312000C0004008B80008003A
:101F0C002300901A8A2F8B2F912F8F01283090004D
:101F1C00910103308D000800740830009B00730899
:101F2C009A001E171E140000000030001C08080048
:101F3C0020002E082F040319A42FA52FAA2F2F0839
:101F4C008A002E080A008F31080020002808290476
:101F5C000319B12FB22FB72F29088A0028080A00BD
:101F6C008F3108002E000C100B140E30F3000F30C4
:101F7C00F4008F3138278F312E0016140800803072
:101F8C0027008E00FF308D00C0308C0024001F080D
:101F9C00F33904389F00080055303D008F00AA30FB
:101FAC008F000F103E00960155303D008F00AA3077
:101FBC008F000F140800200035080319E62FE72FB7
:101FCC00EB2F8F3152278F31EF2F0130F00070083B
:101FDC00BA00080055303D008F00AA308F000F105A
:101FEC000E303E00960055303D008F00AA308F0019
:041FFC000F140800B6
:020000040001F9
:0A000E00EC3FFF379F3FFF3FFF3F2D
:00000001FF
