:020000040000FA
:0400000080313728EC
:1000060008007E1480312E00161C0A280B2813289F
:100016000C1C0E280F2813288C311D2480313528FE
:100026000B1F162817283528991C1A281B28202844
:100036008F1C1E281F2820283528191C2328242811
:1000460029280F1C27282828292835281A1C2C2857
:100056002D283528101C3028312835288D31EC25DF
:10006600803135287E10090080313928FA01FB01DC
:1000760040308400003085001C308C312F248031C4
:100086007E1020008131542923000F0C890C013980
:10009600F40011081F397404031D522853284728F9
:1000A600111411185728582854280F0C890C013997
:1000B600F40011081F397404031D622863285828A8
:1000C6009A3086310726803123000F0C890C0139BE
:1000D600F40011081F397404031D72287328672859
:1000E600013086310726803123000F0C890C013937
:1000F600F40011081F397404031D82288328772809
:10010600911491188728882884280F0C890C0139A6
:10011600F40011081F397404031D922893288828B7
:100126009B3086310726803123000F0C890C01395C
:10013600F40011081F397404031DA228A328972868
:100146008E311C268031F4007408F50023000F0C54
:10015600890C0139F40011081F397404031DB428F1
:10016600B528A92891161116111ABA28BB28B7283E
:100176000F0C890C0139F40011081F397404031D92
:10018600C528C628BB2811151119CA28CB28C72887
:10019600751FCE28CF2847280F0C890C0139F4008B
:1001A60011081F397404031DD928DA28CF28111421
:1001B6001118DE28DF28DB280F0C890C0139F40022
:1001C60011081F397404031DE928EA28DF289A302C
:1001D60086310726803123000F0C890C0139F40083
:1001E60011081F397404031DF928FA28EE28003077
:1001F60086310726803123000F0C890C0139F40063
:1002060011081F397404031D09290A29FE289114AF
:1002160091180E290F290B290F0C890C0139F400AE
:1002260011081F397404031D19291A290F299B3037
:1002360086310726803123000F0C890C0139F40022
:1002460011081F397404031D29292A291E298E31F4
:100256001C268031F4007408F50023000F0C890C6D
:100266000139F40011081F397404031D3B293C2988
:10027600302991161116111A412942293E290F0CCF
:10028600890C0139F40011081F397404031D4C2927
:100296004D29422911151119512952294E2975083E
:1002A60008008E31032681318C319E2481318531BF
:1002B600BA2581318C313C2481318B170B172830BC
:1002C600F2000730F3008C31232481311030F20024
:1002D6000D30F3008C31292481318C31C0248131D9
:1002E6002000931513163E00CF154F160B13200052
:1002F600580803197F2980298429D8018C31942430
:100306008131200057085A02031C8A298B29D229D9
:10031600570803198F299029D229DA010B178D3135
:100326001F2581312000B1003108D1005108013963
:10033600B100B10E16083106EF3931069600513676
:100346000139B100B10EB10D16083106DF3931069B
:1003560096008031472081312000B1003108D2005B
:1003660000008D31D6258131200054085102031C2E
:10037600BD29BE29C429520855020318C329C42918
:10038600D3295303031DC829C929D3294D08031DA1
:10039600CD29CE29D3298731AD278131D3290B1712
:1003A60020004D080319D829D929242A5008B1005C
:1003B600B2017B08B300B4013308F4003408F50039
:1003C6001030F6000E30F7008E31C72681317408E2
:1003D6002000B5007508B6007A08B700B8013708DE
:1003E600F4003808F5003C30F6000030F7008E3196
:1003F600C7268131740820003507B9007508363DD7
:10040600BA0031083907BB0032083A3DBC0044083F
:100416003B02BD0045083C3BBE003E08803ABF009B
:1004260080303F02031D192A56083D02031C1C2A70
:100436001D2A252A8D312E258131200016176300AD
:10044600252A63002E0016102000590803192C2AAD
:100456002D2A3C2AD90187316B2781310B1328308D
:10046600F2000730F3008C31232481310B172E0064
:100476000C102E0016147929803137282000A80088
:100486000A30F200F030F3008C31B42482312000BF
:10049600A400A5012408A9002508AA0029080B3EE6
:1004A600AB00F0302A3DAC002B08FE3EF200FF30D8
:1004B6002C3DF3008C31B424823120002206031D2A
:1004C600652A662A772A2B08FF3EF200FF302C3D6C
:1004D600F3008C31B424823120002306031D742AD4
:1004E600752A772A0030152B0130F200F030F30020
:1004F6008C31B42482312000A400A5012408F40024
:100506002508F5000530F6000030F7008E31C726C5
:1005160082317408063E2000A600F030753DA70023
:100526002C082702031D992A2B08260203189C2A49
:100536009D2AAC2A0B30AB00F030AC000930F40039
:10054600F030F5005530A4002408F6008E318B26D5
:10055600823120002C08F5002B08F4002808A4009E
:100566002408F6008E318B26823120002B08013EAE
:10057600F40000302C3DF5002008A4002408F60005
:100586008E318B26823120002B08023EF40000308B
:100596002C3DF5002108A4002408F6008E318B2698
:1005A600823120002B08033EF40000302C3DF5007C
:1005B6002208A4002408F6008E318B268231200002
:1005C6002B08043EF40000302C3DF5002308A4005F
:1005D6002408F6008E318B2682310A30F400F03082
:1005E600F50020002B08FA3EA4002408F6008E3100
:1005F6008B2682310030F400F030F5000030F20036
:10060600F030F3008C31B42482312000A400290894
:1006160024022B07FA3EA5002508F6008E318B260C
:100626008231013008000A30F2000030F3007B0806
:100636002000A600A7012608F4002708F50084314B
:100646005824833172082000A8002808AB000A301D
:10065600F2000030F3007B08A600A7012608F4008C
:100666002708F50085316725833172082000A80028
:100676002808AC000230A6002608F4002B088E31AC
:10068600E62683312000A7002708AB0002302B06A0
:10069600031D4E2B4F2B632B04302C02031C542BB3
:1006A600552B562BAC010330A6002608F4002C0867
:1006B6008E31E62683312000A7002708AC006F2B79
:1006C6000930A6002608F4002C088E31E626833170
:1006D6002000A7002708AC000A30F2000030F30023
:1006E6007A08A600A7012608F4002708F500843139
:1006F6005824833172082000A8002808A9000A306F
:10070600F2000030F3007A08A600A7012608F400DC
:100716002708F50085316725833172082000A80077
:100726002808AA000530A6002608F40029088E31FC
:10073600E62683312000A7002708A9000930A60075
:100746002608F4002A088E31E62683312000A70009
:100756002708AA000A30A6002608F2002B088D31C9
:100766008025833120002C07A7002708FB000A30CC
:10077600A6002608F20029088D3180258331200045
:100786002A07A7002708FA008C3194248331080031
:10079600F90079080319D02BD12BD92B0A30F40094
:1007A600F030F500F6018E318B2683310130F400EE
:1007B600F030F50020002008F8007808F6008E31A9
:1007C6008B2683310230F400F030F500200021083A
:1007D600F8007808F6008E318B2683310330F4005A
:1007E600F030F50020002208F8007808F6008E3177
:1007F6008B2683310430F400F030F5002000230806
:10080600F8007808F6008E318B2683310530F40027
:10081600F030F50020002408F8007808F6008E3144
:100826008B2683310630F400F030F50020002508D1
:10083600F8007808F6008E318B2683310730F400F5
:10084600F030F50020002608F8007808F6008E3112
:100856008B2683310830F400F030F500200027089D
:10086600F8007808F6008E318B2683310930F400C3
:10087600F030F500AA30F8007808F6008E318B26A5
:1008860083310030F400F030F50020002008210705
:10089600220723072407250726072707F8007808D5
:1008A600F6008E318B26833108002000A101F31F4C
:1008B6005D2C5E2C652CF209F309F20A0319F30A82
:1008C600A101A10AF51F682C692C722CF409F509FF
:1008D600F40A0319F50A0130F6007608A106A2010A
:1008E600A301720873040319792C7A2CA92CA00190
:1008F600A00A862C0130F235F30D890B7E2C0130CF
:10090600F6007608A007F31F892C8A2C7D2C01306F
:10091600A235A30D890B8B2C73087502031D952C2C
:1009260072087402031C982C992C9E2C7208F402EF
:100936007308F53B22140130F336F20C890B9F2C19
:100946000130A002031DA82CA92C8A2C210803190A
:10095600AD2CAE2CB32CA209A309A20A0319A30A33
:100966002308F3002208F20008000A30F2000030E3
:10097600F30020005508A400A5012408F40025086A
:10098600F50084315824843172082000A600260818
:10099600A8000A30F2000030F3005508A400A501B3
:1009A6002408F4002508F50085316725843172088E
:1009B6002000A6002608A7000530A4002408F4009D
:1009C60028088E31E62684312000A5002508A800D7
:1009D60005302806031DF02CF12CF62C3230A4002D
:1009E6002408D5000F2D0930A4002408F400270898
:1009F6008E31E62684312000A5002508A7000A309E
:100A0600A4002408F20028088D31802584312000B6
:100A16002707A5002508D50055088F316A27843198
:100A260008000830F200F030F3008C31B424853130
:100A36002000A0000730F200F030F3008C31B4241F
:100A460085312000A1000630F200F030F3008C3131
:100A5600B42485312000A2000530F200F030F30006
:100A66008C31B42485312000A3000430F200F0302C
:100A7600F3008C31B42485312000A4000330F20049
:100A8600F030F3008C31B42485312000A50002300B
:100A9600F200F030F3008C31B42485312000A6003A
:100AA6000130F200F030F3008C31B424853120009F
:100AB6002607250724072307220721072007A70063
:100AC6002708F40074080800F801F51F6B2D6C2D3B
:100AD600732DF409F509F40A0319F50AF801F80A61
:100AE600F31F762D772D7C2DF209F309F20A0319EF
:100AF600F30A720873040319812D822DAB2DF701B9
:100B0600F70A8E2D0130F235F30D890B862D013053
:100B1600F6007608F707F31F912D922D852D7308A1
:100B26007502031D982D72087402031C9B2D9C2DC3
:100B3600A02D7208F4027308F53B0130F336F20C6F
:100B4600890BA12D0130F702031DAA2DAB2D922D85
:100B560078080319AF2DB02DB52DF409F509F40A5F
:100B66000319F50A7508F3007408F20008008E31BF
:100B760036268531003A0319C12DC22D032E8D313B
:100B860095258531003A0319C92DCA2D032E8C31BE
:100B96007B2485312000AD002D08D7008C317324CD
:100BA60085312000AD002D08CA008C3183248531A3
:100BB6002000AD002D08D6008C315B248531200045
:100BC600AD002D08D5008C31532485312000AD00B1
:100BD6002D08D4008C314B2485312000AD002D0822
:100BE600D3008C31632485312000AD002D08FB0035
:100BF6008C316B2485312000AD002D08FA00062EBD
:100C06008F31972785310800F300730823008C0085
:100C1600901F0E2E0F2E102E512E0F301005F200A3
:100C2600083072060319182E192E2F2E0F301005B4
:100C3600F2000B3072060319212E222E2F2E1016CB
:100C46002E000F1C272E282E232E23000F192C2EA4
:100C56002D2E512E0F08512E0F301005F2000830A0
:100C660072060319372E382E412E0F301005F2006A
:100C76000B307206031D402E412E512E0F18442EA6
:100C8600452E412E0F0C890C0139F20011081F392F
:100C96007204031D4F2E502E452E11080800832E78
:100CA6000310961F03140318592E5C2E2000961766
:100CB6005E2E200096139A2E0310161F0314031897
:100CC600652E682E200016176A2E200016139A2EFF
:100CD6000310961E03140318712E742E2000961608
:100CE600762E200096129A2E0310161E0314031851
:100CF6007D2E802E20001616822E200016129A2E89
:100D060020005B08F000F1017108003A03198C2EEF
:100D16009A2E7008003A0319532E013A03195F2ED2
:100D2600033A03196B2E013A0319772E9A2E0800FF
:100D360020009A01990196019701980107309500C4
:100D46000F309100FF309200FF309300FF30940087
:100D5600FF303E00D900C730CE00EF30C300073069
:100D6600E4000F30B800DA01E501C401B901CF0192
:100D7600E601BA01C501D001DB01FF30BB00FF303F
:100D8600C600FF30D100FF30DC000730E700FF303F
:100D9600BC00FF30C700FF30D200FF30DD00073057
:100DA600E8000C303D0090001330C50014303E00C2
:100DB600A3001530A40014303D00C6000800F90059
:100DC6000030F400F030F5000830F200F030F300A7
:100DD6008C31B42486312000A0000730F200F030B8
:100DE600F3008C31B42486312000A1000030F200DB
:100DF600F030F3008C31B42486312000A2002108A3
:100E06002202A3002008230279077807A4002408F9
:100E1600F6008E318B2686310730F400F030F5006F
:100E260079082000A0002008F6008E318B26863136
:100E36000830F400F030F50078082000A000200803
:100E4600F6008E318B268631080003102000961F8F
:100E5600031403182F2F322F20009617342F20004B
:100E6600961357080319382F392F3D2F0130F000FC
:100E76007008DA073B3050020318422F432F482FE1
:100E86000130F0007008D007612FD0013B307A02A4
:100E960003184E2F4F2F542F0130F0007008FA0719
:100EA600612FFA0117307B0203185A2F5B2F602F30
:100EB6000130F0007008FB07612FFB015008031D8D
:100EC600652F662F6A2F0130F0007008D8000800E1
:100ED6002000DB0100308C31A82487310B135230FF
:100EE600F2000630F3008C31232487310B17A52F2F
:100EF6008E31512687318E316E26873120004B0880
:100F06000319862F872F912FCB010130B0003008AF
:100F1600DB0700308C31A8248731A52F4C08031934
:100F2600952F962FA52FCC0100308C31A824873120
:100F360020005B088F31CB27873101302000B000BD
:100F46003008DB07043020005B02031CAB2FAC2FFC
:100F56007B2F08002000CD01CD0A8D313D2587313C
:100F6600FA30F2000030F3008D31AA2587312000D7
:100F76005008A000A1017B08A200A3012208F400EA
:100F86002308F5001030F6000E30F7008E31C72624
:100F9600873174082000A4007508A5007A08A60009
:100FA600A7012608F4002708F5003C30F6000030BB
:100FB600F7008E31C7268731740820002407A80061
:100FC6007508253DA90020082807C4002108293DE9
:100FD600C5000800F500750821009E00931713133D
:100FE6001314000021001318F92FFA2FF52F0D08FE
:0A0FF600F3000C08F20008000800E8
:10182E0024000E14080024000E1008002E000C10C8
:10183E008C31CC248C31080073082000DF00720834
:10184E00DE00080073082000DD007208DC000800CE
:10185E00640080010131890B302C00348D3101255B
:10186E008C3120001613CD0108008D312E258C31C0
:10187E0020001613CD0108002F0096019701980144
:10188E0099019A019B0108000630F200F030F30036
:10189E008C31B4248C3108000530F200F030F300A6
:1018AE008C31B4248C3108000430F200F030F30097
:1018BE008C31B4248C3108000730F200F030F30084
:1018CE008C31B4248C3108000830F200F030F30073
:1018DE008C31B4248C3108000130F200F030F3006A
:1018EE008C31B4248C3108000230F200F030F30059
:1018FE008C31B4248C3108000330F200F030F30048
:10190E008C31B4248C310800623031008D008F018F
:10191E00910102309300920108007A082000A50080
:10192E002508F8007B088631E2268C31080020005D
:10193E00DA01D901D801C401C501CF01CE01CD0113
:10194E000800F3007308F2000330F235FF3E031D6A
:10195E00AC2C7235200096000800730830009B00F6
:10196E0072089A001E171E140000000030001C089A
:10197E0008002300901AC42CC52CCB2C8F012830C4
:10198E009000910103308D00080020005C085D047A
:10199E000319D22CD32CD82C5D088A005C080A00BF
:1019AE008C3108002E000C100B140330F2000030A6
:1019BE00F3008C3129248C312E001614080080304F
:1019CE0027008E00FF308D00C0308C0024001F08D1
:1019DE00F33904389F0008000130250090008F0174
:1019EE009101FF308D008C012E009010803025006B
:1019FE008E00080055303D008F00AA308F000F106A
:101A0E003E00960155303D008F00AA308F000F1416
:101A1E00080020004D080319152D162D1A2D8C3196
:101A2E0035248D311E2D0130F0007008D9000800CC
:101A3E0000308731ED278D317208F6007308F700FC
:101A4E000E30F736F60C890B282D76080800553027
:101A5E003D008F00AA308F000F103E0096015530CA
:101A6E003D008F00AA308F000F14080055303D0046
:101A7E008F00AA308F000F100E303E0096005530AA
:101A8E003D008F00AA308F000F140800F401F40AF5
:101A9E00200053088E31E6268D31F900790820009A
:101AAE00D30053088F3110278D31080024000E1DEE
:101ABE00612D622D692D0E1071088D0070088C003D
:101ACE000E146D2D71088D0070088C000800033007
:101ADE002000A3002308F40054088E31E6268D3131
:101AEE002000A4002408D40054088F313D278D31E6
:101AFE000800F500F401751C852D862D8A2D7208BF
:101B0E00F3007308F4070310F20D0310F50C7508BB
:101B1E00031D922D932D822D740808000030F200C3
:101B2E00F030F3008C31B4248D31F5007508F600D9
:101B3E00853114258D3176060319A62DA82D013079
:101B4E00A92D003008007308F5007208F400F53670
:101B5E00F40CF536F40C740827008D007208033966
:101B6E00F4000530F435FF3E031DB92D74358C009D
:101B7E00080022008E018F019001910192019301C4
:101B8E008D0121009E019B01940195019601970103
:101B9E009A0199019801803093009D0108007A08FE
:101BAE002000AD002D08A0005008AE002E08A100A8
:101BBE005208AF002F08A2005108B0003008A30051
:101BCE007B08823141228D3108002E00101020003A
:101BDE006108F1006008F0008D315D258D31200027
:101BEE005E085F040319FC2DFD2D022E5F088A008E
:101BFE005E080A008E3108008C3143248E31863106
:101C0E009B268E318C318B248E318C31E6248E3195
:101C1E008D31C0258E318C31F3248E318E31A92633
:101C2E008E318C31D9248E3108000F3023001005EF
:101C3E00F200083072060319252E262E2F2E0F3095
:101C4E001005F2000B307206031D2E2E2F2E302E95
:101C5E0091150F1C332E342E302E0C08080009302F
:101C6E00F200F030F3008C31B4248E31F40074089D
:101C7E00F600F501F50AAA3076060319472E482E0E
:101C8E004F2E5530760603194D2E4E2E4F2EF50142
:101C9E007508080020004F08031D562E572E662E7D
:101CAE000D1A5A2E5B2E6D2E6230F2006630890BA5
:101CBE005E2EF20B5E2E2000CF01CF0A6D2E0D1E72
:101CCE00692E6A2E6D2ECF01CB01CB0A08002000A3
:101CDE004E08031D732E742E832E8E1A772E782E99
:101CEE008A2E6230F2006630890B7B2EF20B7B2E31
:101CFE002000CE01CE0A8A2E8E1E862E872E8A2E8A
:101D0E00CE01CC01CC0A080000308B1B0130F7004D
:101D1E00750830009B0074089A0076089C001E1708
:101D2E001E158B1355309F00AA309F009E149E18CF
:101D3E00A12EA22E9E2E1E11770C031C8B130318A0
:101D4E008B17080024008F0190010430910086301B
:101D5E008D00E8308C000D082000E10024000C08F6
:101D6E002000E0002E0010101A14FF30F200073091
:101D7E00F3008C3123248E31053024008E000800B0
:101D8E00F801F901741CCC2ECD2ED12E7608F80751
:101D9E007708F93D0130F635F70D890BD22E01305B
:101DAE00F536F40C890BD72E74087504031DE02E3E
:101DBE00E12EC92E7908F5007808F4000800F60027
:101DCE0076088C31A8248E318E3151268E318E318B
:101DDE006E268E3120004C080319F62EF72E082F92
:101DEE00CC010130F5007508F60776087402031869
:101DFE00012F022F032FF60176088C31A8248E3185
:101E0E00EB2E4B0803190C2F0D2FEB2ECB01760862
:101E1E000800F8000030F400F030F5000630F20053
:101E2E00F030F3008C31B4248F312000A00000304C
:101E3E00F200F030F3008C31B4248F312000A10079
:101E4E00200821027807A2002208F6008E318B2688
:101E5E008F310630F400F030F50078082000A00035
:101E6E002008F6008E318B268F310800F8000030E6
:101E7E00F400F030F5000530F200F030F3008C3154
:101E8E00B4248F312000A0000030F200F030F300B7
:101E9E008C31B4248F312000A10020082102780754
:101EAE00A2002208F6008E318B268F310530F40009
:101EBE00F030F50078082000A0002008F6008E31E2
:101ECE008B268F310800F8000030F400F030F5005A
:101EDE000430F200F030F3008C31B4248F31200046
:101EEE00A0000030F200F030F3008C31B4248F31BA
:101EFE002000A100200821027807A2002208F60087
:101F0E008E318B268F310430F400F030F5007808D6
:101F1E002000A0002008F6008E318B268F3108009D
:101F2E0005302000A8002808D7001E30A800280879
:101F3E00CA000330A8002808D6001930A8002808C7
:101F4E00D5000230A8002808D400D301FB01FA0105
:101F5E001E30A8002808A0000530A9002908A100FD
:101F6E000330AA002A08A2001930AB002B08A300E8
:101F7E000230AC002C08A400A501A601A701013077
:101F8E008331CB238F3108002000AF008C311A240F
:101F9E008F31E12F833116238F31F82F8D314D255F
:101FAE008F31F82F8431B8248F31F82F8D316E2573
:101FBE008F31F82F20002F08AD00AE012E08003A09
:101FCE000319EA2FF82F2D08003A0319D12F013AE1
:101FDE000319D52F033A0319D92F013A0319DD2F0F
:101FEE00F82F8C3117248F3100308C31A8248F318B
:021FFE000800D9
:020000040001F9
:0A000E00EC3FFF379F3FFF3FFF3F2D
:00000001FF
