:020000040000FA
:10000000803143280A3008007E1480312E00161CEF
:100010000A280B2813280C1C0E280F2813288E31B1
:100020009E26803141280B1F162817284128991C2D
:100030001A281B2820288F1C1E281F28202841280A
:10004000191C2328242829280F1C27282828292878
:1000500041281A1C2C282D283528101C302831281E
:1000600035288731C527803141289A1C38283928FE
:100070004128901C3C283D2841288E31A4268031FF
:1000800041287E10090080314528993084008E3047
:1000900085001200E3001200E4001200E5001200E7
:1000A000E6001200E700F801F901FA01433084008C
:1000B0000030850020308E31BC2680317E1020003B
:1000C000813171290730F3007030F4008F310A2735
:1000D00080312000A2002208F5000830F3007030C3
:1000E000F4008F310A2780312000A3002308F60096
:1000F00021088A0020080A0080312000A40024087A
:10010000AE000630F3007030F4008F310A278031E2
:100110002000A2002208F5002E08A3002308F60004
:1001200021088A0020080A0080312000A400240849
:10013000A8000530F3007030F4008F310A278031B9
:100140002000A2002208F5002808A3002308F600DA
:1001500021088A0020080A0080312000A400240819
:10016000A9000430F3007030F4008F310A27803189
:100170002000A2002208F5002908A3002308F600A9
:1001800021088A0020080A0080312000A4002408E9
:10019000AA000330F3007030F4008F310A27803159
:1001A0002000A2002208F5002A08A3002308F60078
:1001B00021088A0020080A0080312000A4002408B9
:1001C000AB000230F3007030F4008F310A27803129
:1001D0002000A2002208F5002B08A3002308F60047
:1001E00021088A0020080A0080312000A400240889
:1001F000AC000130F3007030F4008F310A278031F9
:100200002000A2002208F5002C08A3002308F60015
:1002100021088A0020080A0081312000A400240857
:10022000B0000930F3007030F4008F310A278031BC
:100230002000A2002208AD000A30F3007030F40064
:100240008F310A2780312000A2002208AF002D083C
:10025000A2002208F5002F08A3002308F6002108B9
:100260008A0020080A0081312000A4002408AE0082
:100270003008A2002208F5002E08A3002308F6008B
:1002800021088A0020080A0081312000A4002408E7
:10029000B00069293008A2002208F5000130A3004F
:1002A0002308AF072F08A400A5012408F3002508A0
:1002B000F4008F310A2780312000A6002608F600BE
:1002C00021088A0020080A0081312000A7002708A1
:1002D000B0002D082F02031C6E296F294A2930080F
:1002E000080092302000B1000E30B2008731AD27F7
:1002F00081318731942781318B170B170130F3003F
:100300000430F4008E31AA2681311630F3000F300C
:10031000F4008E31B02681310B138E31FE268131EF
:100320002000931513163E00CF154F1620005C08D1
:1003300003199B299C29A029DC018E31DC268131FF
:10034000200057080319A529A629E529D7018F31CF
:10035000762781312000B4003408D90059080139CA
:10036000B400B40E16083406EF3934069600593638
:100370000139B400B40EB40D16083406DF39340662
:1003800096008031022081312000B4003408DA0068
:100390008731DC278131200063085902031CD129F1
:1003A000D229D82964085A020318D729D829E5295F
:1003B0005B03031DDC29DD29E5295808031DE1291C
:1003C000E229E5298531E425813120005808031907
:1003D000EA29EB29362A7808B400B5017A08B60074
:1003E000B7013608F3003708F4001030F5000E307E
:1003F000F6008631C626813173082000B8007408E3
:10040000B9007908BA00BB013A08F3003B08F400D0
:100410003C30F5000030F6008631C6268131730885
:1004200020003807BC007408393DBD0034083C0783
:10043000BE0035083D3DBF0047083E02C0004808E9
:100440003F3BC1004108803AC20080304202031D98
:100450002B2A03304002031C2E2A2F2A362AFF3073
:10046000F3000330F4008F31BE27813120005D0896
:1004700003193B2A3C2A9629DD01DF011716863134
:10048000272681310130F3000430F4008E31AA2692
:1004900081312E000C109629803143280A30F30058
:1004A0000030F4007A082000A400A5012408F5001B
:1004B0002508F6008331A123823173082000A600AD
:1004C0002608A9000A30F3000030F4007A08A400DE
:1004D000A5012408F5002508F6008431B5248231F1
:1004E00073082000A6002608AA000230A4002408F1
:1004F000F500290886319C2682312000A5002508B8
:10050000A90002302906031D862A872A9B2A043067
:100510002A02031C8C2A8D2A8E2AAA010330A400E9
:100520002408F5002A0886319C2682312000A50087
:100530002508AA00A72A0930A4002408F5002A08E3
:1005400086319C2682312000A5002508AA000A30A9
:10055000F3000030F4007908A400A5012408F50098
:100560002508F6008331A123823173082000A600FC
:100570002608A7000A30F3000030F4007908A40030
:10058000A5012408F5002508F6008331A123823156
:1005900073082000A6002608A8000530A40024083F
:1005A000F500270886319C2682312000A500250809
:1005B000A7000930A4002408F500280886319C26ED
:1005C00082312000A5002508A8000A30A4002408D4
:1005D000F30029088F31A927823120002A07A500BE
:1005E0002508FA000A30A4002408F30027088F31F8
:1005F000A927823120002807A5002508F9008E319F
:10060000DC26823108002000A6000930F30070309B
:10061000F4008F310A2783310A3E2000A700703092
:1006200003187130A8002708FE3EF300FF30283D74
:10063000F4008F310A27833120002206031D212B6D
:10064000222B332B2708FF3EF300FF30283DF40018
:100650008F310A27833120002306031D302B312BD5
:10066000332B0030A02B0130F3007030F4008F31B9
:100670000A278331053E2000A40070300318713032
:10068000A50028082502031D472B2708240203186C
:100690004A2B4B2B4F2B0A30A7007030A80028089C
:1006A000F4002708F3002608A4002408F500873189
:1006B0000627833120002708013EF3000030283D43
:1006C000F4002008A4002408F500873106278331B0
:1006D00020002708023EF3000030283DF4002108E6
:1006E000A4002408F500873106278331200027085D
:1006F000033EF3000030283DF4002208A400240843
:10070000F50087310627833120002708043EF300D7
:100710000030283DF4002308A4002408F5008731A8
:10072000062783310930F3007030F40020002708D9
:10073000FB3EA4002408F5008731062783310130F1
:1007400008002000A101F41FA62BA72BAE2BF30954
:10075000F409F30A0319F40AA101A10AF61FB12B47
:10076000B22BBB2BF509F609F50A0319F60A01307D
:10077000F7007708A106A201A30173087404031906
:10078000C22BC32BF22BA001A00ACF2B0130F335D3
:10079000F40D890BC72B0130F7007708A007F41F71
:1007A000D22BD32BC62B0130A235A30D890BD42B12
:1007B00074087602031DDE2B73087502031CE12BFF
:1007C000E22BE72B7308F5027408F63B2214013084
:1007D000F436F30C890BE82B0130A002031DF12B3A
:1007E000F22BD32B21080319F62BF72BFC2BA20994
:1007F000A309A20A0319A30A2308F4002208F3009C
:10080000080003102000961F03140318082C0B2C5B
:10081000200096170D2C200096136708031D112C3D
:10082000122C132C5C2C4A08F1004908F000C90A6C
:100830000319CA0A7108803AF20080307202031D5F
:10084000232C67087002031C262C272C2E2C20003A
:10085000C901CA010130F0007008D7003B307802AE
:100860000318332C342C392C0130F0007008F807B1
:10087000522CF8013B30790203183F2C402C452CB8
:100880000130F0007008F907522CF90117307A0294
:1008900003184B2C4C2C512C0130F0007008FA0737
:1008A000522CFA017808031D562C572C5C2C013071
:1008B000F00070082000DC0008000A30F30000306F
:1008C000F40020006408A400A5012408F500250810
:1008D000F6008331A123843173082000A600260886
:1008E000A8000A30F3000030F4006408A400A50159
:1008F0002408F5002508F6008431B52484317308F6
:100900002000A6002608A7000530A4002408F50052
:10091000280886319C2684312000A5002508A800DF
:1009200005302806031D952C962C9B2C3230A400F4
:100930002408E400B42C0930A4002408F50027089A
:1009400086319C2684312000A5002508A7000A30A6
:10095000A4002408F30028088F31A927843120003F
:100960002707A5002508E40008002000A101F61FC4
:10097000BA2CBB2CC22CF509F609F50A0319F60AA4
:10098000A101A10AF41FC52CC62CCB2CF309F40934
:10099000F30A0319F40A730874040319D02CD12C38
:1009A000FA2CA001A00ADD2C0130F335F40D890BDF
:1009B000D52C0130F7007708A007F41FE02CE12CBC
:1009C000D42C74087602031DE72C73087502031CEF
:1009D000EA2CEB2CEF2C7308F5027408F63B01307F
:1009E000F436F30C890BF02C0130A002031DF92C16
:1009F000FA2CE12C21080319FE2CFF2C042DF509FB
:100A0000F609F50A0319F60A7608F4007508F300EA
:100A10000800F400740823008C00901F102D112D85
:100A2000122D532D0F301005F300083073060319F3
:100A30001A2D1B2D312D0F301005F3000B307306CE
:100A40000319232D242D312D10162E000F1C292DB6
:100A50002A2D252D23000F192E2D2F2D532D0F0854
:100A6000532D0F301005F300083073060319392D8C
:100A70003A2D432D0F301005F3000B307306031D84
:100A8000422D432D532D0F18462D472D432D0F0C6E
:100A9000890C0139F30011081F397304031D512D0E
:100AA000522D472D11080800852D0310961F0314A1
:100AB00003185B2D5E2D20009617602D20009613E5
:100AC0009C2D0310161F03140318672D6A2D200098
:100AD00016176C2D200016139C2D0310961E031460
:100AE0000318732D762D20009616782D200096126F
:100AF0009C2D0310161E031403187F2D822D200039
:100B00001616842D200016129C2D20006008F0007F
:100B1000F1017108003A03198E2D9C2D7008003ADE
:100B20000319552D013A0319612D033A03196D2D4F
:100B3000013A0319792D9C2D080020009A01990192
:100B4000960197019801073095000F309100FF3012
:100B50009200FF309300FF309400FF303E00D90038
:100B6000C730CE00EF30C3000730E4000F30B800CC
:100B7000DA01E501C401B901CF01E601BA01C501FD
:100B8000D001DB01FF30BB00FF30C600FF30D100D9
:100B9000FF30DC000730E700FF30BC00FF30C7004B
:100BA000FF30D200FF30DD000730E8000C303D00A0
:100BB00090001330C50014303E00A3001530A4008F
:100BC00014303D00C60008002000D801D80A8F313B
:100BD00066278531FA30F3000030F4008F31BE27EC
:100BE00085318E319526853178082000A200A30139
:100BF0007A08A400A5012408F3002508F4001030A9
:100C0000F5000E30F6008631C626853173082000C7
:100C1000A6007408A7007908A800A9012808F30015
:100C20002908F4003C30F5000030F6008631C62675
:100C30008531730820002607AA007408273DAB0001
:100C400022082A07C70023082B3DC80008002000FF
:100C5000E00100308E31E62686315430F300053055
:100C6000F4008E31AA2686315F2E873142278631E5
:100C700087312427863120005F080319402E412E3A
:100C80004B2EDF010130AE002E08E00700308E3120
:100C9000E62686315F2E5E0803194F2E502E5F2EFA
:100CA000DE0100308E31E626863120006008863174
:100CB0006726863101302000AE002E08E0070430A0
:100CC00020006002031C652E662E352E08002000D1
:100CD000AD008E318F2686317D2E82314E228631B7
:100CE000942E8E31F2268631942E84315D24863105
:100CF000942E8731F2278631942E20002D08AB00E8
:100D0000AC012C08003A0319862E942E2B08003AC9
:100D100003196D2E013A0319712E033A0319752E2A
:100D2000013A0319792E942E8E318C2686310030AB
:100D30008E31E62686310800F70077088E31E626E8
:100D4000863187314227863187312427863120003A
:100D50005E080319AC2EAD2EBE2EDE010130F6006A
:100D60007608F707770875020318B72EB82EB92E44
:100D7000F70177088E31E6268631A12E5F08031928
:100D8000C22EC32EA12EDF01770808002000A0018B
:100D9000A101731CCC2ECD2ED22E75082000A007E9
:100DA0007608A13D0130F535F60D890BD32E0130C3
:100DB000F436F30C890BD82E73087404031DE12E4E
:100DC000E22EC92E20002108F4002008F3000800BC
:100DD00024008F0190010430910086308D00E830AE
:100DE0008C000D082000D60024000C082000D5003F
:100DF0002E0010101A148430F3000E30F4008E31DF
:100E0000AA268631013024008E00080000308B1B9A
:100E10000130F600740830009B0073089A007508D2
:100E20009C001E171E158B1355309F00AA309F0083
:100E30009E149E181C2F1D2F192F1E11760C031C9B
:100E40008B1303188B17080020006108031D292F3E
:100E50002A2F3A2F8E1A2D2F2E2F412F2130F300BB
:100E60007630890B312FF30B312F00322000E10156
:100E7000E10A412F8E1E3D2F3E2F412FE101DE0161
:100E8000DE0A080020006208031D472F482F582F54
:100E90000D1A4B2F4C2F5F2F2130F3007630890B2A
:100EA0004F2FF30B4F2F00322000E201E20A5F2F99
:100EB0000D1E5B2F5C2F5F2FE201DF01DF0A0800B0
:100EC0000F3023001005F300083073060319692F53
:100ED0006A2F732F0F301005F3000B307306031DBC
:100EE000722F732F742F91150F1C772F782F742F5B
:100EF0000C0808002000A1000730F3007030F40057
:100F00002108A0002008F500873106278731083026
:100F1000F3007030F40077082000A0002008F500EE
:100F200087310627873108008E31C2268731853107
:100F30009D2587318E31D32687318F314A278731DE
:100F40008F31D42787318F31EA2787318F313D2781
:100F500087318631E8268731080020003208A10059
:100F60003108A000803162208731F7007708200027
:100F7000B3000030F3007030F4003308F700770856
:100F8000F50087310627873108002E001010200059
:100F90005608F1005508F0008F3186278731200070
:100FA000530854040319D52FD62FDB2F54088A0079
:100FB00053080A008731080079082000A900290891
:100FC000A0007808AA002A08A1005A08AB002B0844
:100FD000A2005908AC002C08A3007A08833103232F
:100FE0008731080003302000A0002008F5006308C6
:100FF00086319C2687312000A1002108E3000800EB
:101D060008000800080025008E13080025008E171D
:101D1600080024000E14080024000E1008007508A0
:101D2600760608008E3189268E3108000234193471
:101D360003341E3405342E000C108F3123278E31C8
:101D460008002E0090108F3130278E31080074085D
:101D56002000D4007308D300080074082000D200C5
:101D66007308D100080074082000CC007308CB006B
:101D76000800640080010131890BBD2E00342F005C
:101D860096019701980199019A019B0108008F31EC
:101D960057278E318E3186268E312000D8010800D5
:101DA600623031008D008F01910102309300920163
:101DB600080079082000A2002208F7007A08873177
:101DC6007A278E310800F4007408F3000330F335E7
:101DD600FF3E031DEA2E7335200096000800F5012C
:101DE600F50A20005B0886319C268E312000A00073
:101DF6002008DB0008002300901A022F032F092F6A
:101E06008F0128309000910103308D00080074087E
:101E160030009B0073089A001E171E140000000075
:101E260030001C08080003102000161F03140318B6
:101E36001D2F202F20001617222F20001613080012
:101E46002000510852040319292F2A2F2F2F520838
:101E56008A0051080A008F31080020004B084C0404
:101E66000319362F372F3C2F4C088A004B080A00DF
:101E76008F3108002E000C100B148330F3000E3047
:101E8600F4008E31B0268F312E00161408008030F3
:101E960027008E00FF308D00C0308C0024001F0804
:101EA600F33904389F00080055303D008F00AA30F2
:101EB6008F000F103E00960155303D008F00AA306E
:101EC6008F000F14080055303D008F00AA308F0098
:101ED6000F100E303E00960055303D008F00AA30A0
:101EE6008F000F14080000308F3197278F31730849
:101EF6002000A0007408A1000E30A136A00C890BAA
:101F0600802F2008080024000E1D8A2F8B2F922F69
:101F16000E1071088D0070088C000E14962F710833
:101F26008D0070088C000800F600760821009E00DF
:101F3600931713131314000021001318A32FA42FB3
:101F46009F2F0D08F4000C08F3000800F600F501B9
:101F5600761CAE2FAF2FB32F7308F4007408F50765
:101F66000310F30D0310F60C7608031DBB2FBC2FD0
:101F7600AB2F750808007408F6007308F500F636EE
:101F8600F50CF636F50C750827008D007308033935
:101F9600F5000530F535FF3E031DCD2F75358C0058
:101FA600080022008E018F01900191019201930198
:101FB6008D0121009E019B019401950196019701D7
:101FC6009A0199019801803093009D010800013023
:101FD600250090008F019101FF308D008C012E00AD
:101FE60090109A148530F3000E30F4008E31B62628
:0A1FF6008F31803025008E000800B6
:020000040001F9
:0A000E00EC3FFF379F3FFF3FFF3F2D
:00000001FF
