:020000040000FA
:10000000803137280A3008007E1480312E00161CFB
:100010000A280B2813280C1C0E280F2813288D31B2
:100020002A25803135280B1F162817283528991CBA
:100030001A281B2820288F1C1E281F282028352816
:10004000191C2328242829280F1C27282828292878
:1000500035281A1C2C282D283528101C302831282A
:1000600035288E31F526803135287E100900803103
:100070003928FA01FB0140308400003085001F3030
:100080008D313C2580317E1020008031472887311A
:10009000E72780318D31AB2580318431C324803115
:1000A0008D31492580318B170B173430F200063023
:1000B000F3008D31302580311D30F2000E30F30019
:1000C0008D31362580318D31CD258031200093153D
:1000D00013163E00CF154F160B1320005C080319B2
:1000E000722873287728DC018D31A125803120000A
:1000F0005608B1003108D3005508B1003108D200CC
:100100005408B1003108D1005E08031988288928F5
:100110008F285E085B0203188E288F28F2285B0860
:10012000031993289428F2280130B1003108DE0029
:100130000B178E312C2680312000B1003108CF0002
:100140004F080139B100B10E16083106EF393106FA
:1001500096004F360139B100B10EB10D16083106C7
:10016000DF39310696008031022080312000B10055
:100170003108D0005208B1003108A0005108B20087
:100180003208A1005008B3003308A2004F08B400A1
:100190003408A30053088231162280312000580809
:1001A0004F02031CD428D528DB2850085902031815
:1001B000DA28DB28F3285703031DDF28E028F3287B
:1001C0004C08031DE428E528F3285208B100310843
:1001D000A0005108B2003208A100530886317726EA
:1001E0008031F3280B1720004C080319F828F92850
:1001F00044295108B100B2015308B300B4013308D7
:10020000F4003408F5001030F6000E30F7008F319E
:10021000B727803174082000B5007508B600520871
:10022000B700B8013708F4003808F5003C30F60094
:100230000030F7008F31B727803174082000350770
:10024000B9007508363DBA0031083907BB003208DD
:100250003A3DBC0044083B02BD0045083C3BBE00A3
:100260003E08803ABF0080303F02031D39295A08FA
:100270003D02031C3C293D2945298E313B26803116
:10028000200016176300452963002E001610200079
:100290005D0803194C294D295C29DD018631B826FA
:1002A00080310B133430F2000630F3008D313025ED
:1002B00080310B172E000C102E0016146C28803184
:1002C00037280A30F2000030F30020005608A6005C
:1002D000A7012608F4002708F50083315723813150
:1002E00072082000A8002808AB000A30F200003095
:1002F000F3005608A600A7012608F4002708F50019
:1003000084317024813172082000A8002808AC00D4
:100310000230A6002608F4002B088F31D627813141
:100320002000A7002708AB0002302B06031D9929E7
:100330009A29AE2904302C02031C9F29A029A12947
:10034000AC010330A6002608F4002C088F31D62714
:1003500081312000A7002708AC00BA290930A60087
:100360002608F4002C088F31D62781312000A70001
:100370002708AC000A30F2000030F3005508A60050
:10038000A7012608F4002708F5008331572381319F
:1003900072082000A8002808A9000A30F2000030E6
:1003A000F3005508A600A7012608F4002708F50069
:1003B00084317024813172082000A8002808AA0026
:1003C0000530A6002608F40029088F31D627813190
:1003D0002000A7002708A9000930A6002608F4007D
:1003E0002A088F31D62781312000A7002708AA00CC
:1003F0000A30A6002608F2002B088E319F26813194
:1004000020002C07A7002708D6000A30A6002608DF
:10041000F20029088E319F26813120002A07A7008B
:100420002708D5008D31A125813108002000A800C2
:100430000A30F200F030F3008D31C1258231200006
:10044000A400A5012408A9002508AA0029080B3E3C
:10045000AB00F0302A3DAC000130F200F030F30088
:100460008D31C12582312000A400A5012408F400AB
:100470002508F5000530F6000030F7008F31B7276A
:1004800082317408063E2000A600F030753DA700BA
:100490002C082702031D4E2A2B0826020318512A76
:1004A000522A612A0B30AB00F030AC000930F40066
:1004B000F030F5005530A4002408F6008F317B277A
:1004C000823120002C08F5002B08F4002808A40035
:1004D0002408F6008F317B27823120002B08013E53
:1004E000F40000302C3DF5002008A4002408F6009C
:1004F0008F317B27823120002B08023EF400003030
:100500002C3DF5002108A4002408F6008F317B273C
:10051000823120002B08033EF40000302C3DF50012
:100520002208A4002408F6008F317B2782312000A6
:100530002B08043EF40000302C3DF5002308A400F5
:100540002408F6008F317B2782310A30F400F03026
:10055000F50020002B08FA3EA4002408F6008F3195
:100560007B2782310030F400F030F5000030F200DB
:10057000F030F3008D31C12582312000A40029081C
:1005800024022B07FA3EA5002508F6008F317B27B1
:1005900082310800F90079080319CF2AD02AD82A15
:1005A0000A30F400F030F500F6018F317B278231FC
:1005B0000130F400F030F50020002008F800780841
:1005C000F6008F317B2782310230F400F030F500E5
:1005D00020002108F8007808F6008F317B2782314F
:1005E0000330F400F030F50020002208F80078080D
:1005F000F6008F317B2782310430F400F030F500B3
:1006000020002308F8007808F6008F317B2782311C
:100610000530F400F030F50020002408F8007808D8
:10062000F6008F317B2782310630F400F030F50080
:1006300020002508F8007808F6008F317B278231EA
:100640000730F400F030F50020002608F8007808A4
:10065000F6008F317B2782310830F400F030F5004E
:1006600020002708F8007808F6008F317B278231B8
:100670000930F400F030F500AA30F8007808F600F0
:100680008F317B2782310030F400F030F5002000FC
:100690002008210722072307240725072607270705
:1006A000F8007808F6008F317B278231080020009F
:1006B000A101F31F5C2B5D2B642BF209F309F20AF5
:1006C0000319F30AA101A10AF51F672B682B712BEF
:1006D000F409F509F40A0319F50A0130F600760861
:1006E000A106A201A301720873040319782B792BC8
:1006F000A82BA001A00A852B0130F235F30D890B40
:100700007D2B0130F6007608A007F31F882B892B7C
:100710007C2B0130A235A30D890B8A2B730875023F
:10072000031D942B72087402031C972B982B9D2B8E
:100730007208F4027308F53B22140130F336F20C10
:10074000890B9E2B0130A002031DA72BA82B892B00
:1007500021080319AC2BAD2BB22BA209A309A20AC5
:100760000319A30A2308F3002208F20008000A3044
:10077000F200F030F3008D31C12583312000A0005C
:100780000830F200F030F3008D31C12583312000B4
:10079000A1000730F200F030F3008D31C125833124
:1007A0002000A2000630F200F030F3008D31C125A8
:1007B00083312000A3000530F200F030F3008D31CA
:1007C000C12583312000A4000430F200F030F30092
:1007D0008D31C12583312000A5000330F200F030B7
:1007E000F3008D31C12583312000A6000230F200D4
:1007F000F030F3008D31C12583312000A700013096
:10080000F200F030F3008D31C1258331200027073D
:100810002607250724072307220721072007A8000A
:100820002808F400740808000A30F2000030F300D1
:1008300020005908A400A5012408F4002508F500AB
:1008400083315723843172082000A6002608A800AF
:100850000A30F2000030F3005908A400A501240872
:10086000F4002508F50084317024843172082000DA
:10087000A6002608A7000530A4002408F4002808D4
:100880008F31D62784312000A5002508A800053027
:100890002806031D4C2C4D2C522C3230A400240869
:1008A000D9006B2C0930A4002408F40027088F31EC
:1008B000D62784312000A5002508A7000A30A4000F
:1008C0002408F20028088E319F2684312000270753
:1008D000A5002508D9005908873160278431080010
:1008E000F801F51F742C752C7C2CF409F509F40A19
:1008F0000319F50AF801F80AF31F7F2C802C852CC8
:10090000F209F309F20A0319F30A720873040319CE
:100910008A2C8B2CB42CF701F70A972C0130F23576
:10092000F30D890B8F2C0130F6007608F707F31FC3
:100930009A2C9B2C8E2C73087502031DA12C720817
:100940007402031CA42CA52CA92C7208F4027308B1
:10095000F53B0130F336F20C890BAA2C0130F7027B
:10096000031DB32CB42C9B2C78080319B82CB92C7C
:10097000BE2CF409F509F40A0319F50A7508F30009
:100980007408F20008008F3126278431003A0319D9
:10099000CA2CCB2C0C2D8E31B4268431003A03198D
:1009A000D22CD32C0C2D8D31882584312000AD0024
:1009B0002D08DB008D31802584312000AD002D080D
:1009C000CA008D31902584312000AD002D08DA0059
:1009D0008D31682584312000AD002D08D9008D317E
:1009E000602584312000AD002D08D8008D315825B8
:1009F00084312000AD002D08D7008D317025843161
:100A00002000AD002D08D6008D31782584312000DE
:100A1000AD002D08D5000F2D87312C27843108001B
:100A2000452D03102000961F03140318182D1B2DAD
:100A3000200096171D2D200096135B2D031020001B
:100A4000161F03140318252D282D200016172A2DF4
:100A5000200016135B2D03102000961E03140318AC
:100A6000322D352D20009616372D200096125B2D45
:100A700003102000161E031403183F2D422D2000E2
:100A80001616442D200016125B2D7B08F000F10194
:100A90007108003A03194D2D5B2D7008003A0319B7
:100AA000112D013A03191E2D033A03192B2D013A7A
:100AB0000319382D5B2D0800F300730823008C0008
:100AC000901F632D642D652DA62D0F301005F200AB
:100AD0000830720603196D2D6E2D842D0F30100510
:100AE000F2000B3072060319762D772D842D101627
:100AF0002E000F1C7C2D7D2D782D23000F19812DAC
:100B0000822DA62D0F08A62D0F301005F2000830FB
:100B1000720603198C2D8D2D962D0F301005F200C5
:100B20000B307206031D952D962DA62D0F18992DAD
:100B30009A2D962D0F0C890C0139F20011081F39DE
:100B40007204031DA42DA52D9A2D11080800200064
:100B50009A019901960197019801073095000F308D
:100B60009100FF309200FF309300FF309400FF307F
:100B70003E00D900C730CE00EF30C3000730E4009C
:100B80000F30B800DA01E501C401B901CF01E60177
:100B9000BA01C501D001DB01FF30BB00FF30C60048
:100BA000FF30D100FF30DC000730E700FF30BC0031
:100BB000FF30C700FF30D200FF30DD000730E80013
:100BC0000C303D0090001330C50014303E00A300EF
:100BD0001530A40014303D00C6000800F9000030B4
:100BE000F400F030F5000830F200F030F3008D3101
:100BF000C12585312000A0000730F200F030F3005D
:100C00008D31C12585312000A1000030F200F03087
:100C1000F3008D31C12585312000A2002108220278
:100C2000A3002008230279077807A4002408F6000F
:100C30008F317B2785310730F400F030F5007908DB
:100C40002000A0002008F6008F317B278531083076
:100C5000F400F030F50078082000A0002008F6002D
:100C60008F317B278531080003102000961F031465
:100C700003183B2E3E2E20009617402E2000961380
:100C80005B080319442E452E492E0130F0007008F0
:100C9000DE073B30540203184E2E4F2E542E0130E7
:100CA000F0007008D4076D2ED4013B3055020318B4
:100CB0005A2E5B2E602E0130F0007008D5076D2E85
:100CC000D501173056020318662E672E6C2E0130A0
:100CD000F0007008D6076D2ED6015408031D712E42
:100CE000722E762E0130F0007008DC000800200023
:100CF000AC00CC01CC0A8E314A268631FA30F200A3
:100D00000030F3008E31C926863120002108A20070
:100D1000A3012C08A400A5012408F4002508F5006F
:100D20001030F6000E30F7008F31B7278631740887
:100D30002000A6007508A7002008A800A90128081F
:100D4000F4002908F5003C30F6000030F7008F3140
:100D5000B7278631740820002607AA007508273DAA
:100D6000AB0022082A07C40023082B3DC500080059
:100D7000FB0100308D31B52586310B131030F200A8
:100D80000530F3008D31302586310B17F02E8F3171
:100D9000412786318F315E27863120004B080319A9
:100DA000D22ED32EDD2ECB010130B0003008FB0750
:100DB00000308D31B5258631F02E7A080319E12EE9
:100DC000E22EF02EFA0100308D31B52586317B08F8
:100DD0008631F726863101302000B0003008FB074D
:100DE00004307B02031CF52EF62EC72E08002000CF
:100DF000AF008D31272586310D2F8131612186315C
:100E0000242F8E315A268631242F843114248631A2
:100E1000242F8E317B268631242F20002F08AD0011
:100E2000AE012E08003A0319162F242F2D08003A80
:100E30000319FD2E013A0319012F033A0319052F57
:100E4000013A0319092F242F8D31242586310030D2
:100E50008D31B5258631080005302000A80028080E
:100E6000DB001E30A8002808CA000330A8002808AC
:100E7000DA001930A8002808D9000230A800280894
:100E8000D800D701D601D5011E30A8002808A0003F
:100E90000530A9002908A1000330AA002A08A200F1
:100EA0001930AB002B08A3000230AC002C08A400C2
:100EB000A501A601A70101308231CA2287310800AD
:100EC000F8000030F400F030F5000430F200F030AB
:100ED000F3008D31C12587312000A0000030F200E1
:100EE000F030F3008D31C12587312000A1002008AA
:100EF00021027807A2002208F6008F317B27873174
:100F00000430F400F030F50078082000A00020083C
:100F1000F6008F317B2787310800F8000030F4009D
:100F2000F030F5000530F200F030F3008D31C125CE
:100F300087312000A0000030F200F030F3008D3146
:100F4000C12587312000A100200821027807A200D6
:100F50002208F6008F317B2787310530F400F0300E
:100F6000F50078082000A0002008F6008F317B27CC
:100F700087310800F8000030F400F030F50006304A
:100F8000F200F030F3008D31C12587312000A00040
:100F90000030F200F030F3008D31C12587312000A0
:100FA000A100200821027807A2002208F6008F3154
:100FB0007B2787310630F400F030F50078082000F8
:100FC000A0002008F6008F317B27873108008D3183
:100FD000502587318531A72587318D319825873177
:100FE0008D31F32587318E31DF2687318E31002612
:100FF00087318F31992787318D31E6258731080078
:101A44000800080024000E14080024000E100800EA
:101A54002E000C108D31D9258D310800730820001B
:101A6400E2007208E100080073082000E000720838
:101A7400DF000800640080010131890B3D2D003432
:101A84008E310E268D3120001613CC0108008E31C4
:101A94003B268D3120001613CC0108002F0096013F
:101AA4009701980199019A019B0108000630F20000
:101AB400F030F3008D31C1258D3108000530F2007E
:101AC400F030F3008D31C1258D3108000430F2006F
:101AD400F030F3008D31C1258D3108000730F2005C
:101AE400F030F3008D31C1258D3108000830F2004B
:101AF400F030F3008D31C1258D3108000130F20042
:101B0400F030F3008D31C1258D3108000230F20030
:101B1400F030F3008D31C1258D3108000330F2001F
:101B2400F030F3008D31C1258D3108006230310071
:101B34008D008F0191010230930092010800200072
:101B44005508A5002508F80056088531EE258D3185
:101B540008002000DE01DD01DC01C401C501CE0165
:101B6400CD01CC010800F3007308F2000330F23514
:101B7400FF3E031DB92D723520009600080073083E
:101B840030009B0072089A001E171E14000000000B
:101B940030001C0808002300901AD12DD22DD82D16
:101BA4008F0128309000910103308D00080020003F
:101BB4005F0860040319DF2DE02DE52D60088A001D
:101BC4005F080A008D3108002E000C100B1422301F
:101BD400F2000D30F3008D3136258D312E001614B0
:101BE4000800803027008E00FF308D00C0308C004C
:101BF40024001F08F33904389F0008000130250031
:101C040090008F019101FF308D008C012E00901007
:101C1400803025008E00080055303D008F00AA302A
:101C24008F000F103E00960155303D008F00AA3002
:101C34008F000F14080020004C080319222E232EB5
:101C4400272E8D3142258E312B2E0130F000700865
:101C5400DD00080000308E318D268E317208F600CA
:101C64007308F7000E30F736F60C890B352E76081C
:101C7400080055303D008F00AA308F000F103E0041
:101C8400960155303D008F00AA308F000F140800D4
:101C940055303D008F00AA308F000F100E303E00EB
:101CA400960055303D008F00AA308F000F140800B5
:101CB400F401F40A200057088F31D6278E31F90039
:101CC40079082000D70057088731BA278E310800D9
:101CD40024000E1D6E2E6F2E762E0E1071088D00B0
:101CE40070088C000E147A2E71088D0070088C0018
:101CF400080003302000A3002308F40058088F31A3
:101D0400D6278E312000A4002408D8005808873133
:101D14008D278E310800F500750821009E00931769
:101D240013131314000021001318992E9A2E952EC4
:101D34000D08F3000C08F2000800F500F401751C0E
:101D4400A42EA52EA92E7208F3007308F40703101D
:101D5400F20D0310F50C7508031DB12EB22EA12E41
:101D6400740808000030F200F030F3008D31C12512
:101D74008E31F5007508F6008331B7238E3176066F
:101D84000319C52EC72E0130C82E00300800730871
:101D9400F5007208F400F536F40CF536F40C74080A
:101DA40027008D0072080339F4000530F435FF3E36
:101DB400031DD82E74358C00080022008E018F017B
:101DC40090019101920193018D0121009E019B01DB
:101DD40094019501960197019A0199019801803027
:101DE40093009D0108002E00101020006408F100EB
:101DF4006308F0008E316A268E3120006108620487
:101E04000319052F062F0B2F62088A0061080A00A8
:101E14008F3108000F3023001005F20008307206DD
:101E24000319152F162F1F2F0F301005F2000B303A
:101E34007206031D1E2F1F2F202F91150F1C232FF9
:101E4400242F202F0C0808000930F200F030F30092
:101E54008D31C1258F31F4007408F600F501F50ABF
:101E6400AA3076060319372F382F3F2F55307606C0
:101E740003193D2F3E2F3F2FF50175080800200060
:101E84004E08031D462F472F562F0D1A4A2F4B2F4E
:101E94005D2F6230F2006630890B4E2FF20B4E2F0D
:101EA4002000CE01CE0A5D2F0D1E592F5A2F5D2F13
:101EB400CE01CB01CB0A080020004D08031D632F7F
:101EC400642F732F8E1A672F682F7A2F6230F200D7
:101ED4006630890B6B2FF20B6B2F2000CD01CD0ADE
:101EE4007A2F8E1E762F772F7A2FCD01FA01FA0AD8
:101EF400080000308B1B0130F700750830009B0090
:101F040074089A0076089C001E171E158B13553012
:101F14009F00AA309F009E149E18912F922F8E2FFF
:101F24001E11770C031C8B1303188B170800240055
:101F34008F0190010430910086308D00E8308C00D0
:101F44000D082000E40024000C082000E3002E000B
:101F540010101A142330F2000D30F3008D313025A7
:101F64008F31053024008E000800F801F901741C3B
:101F7400BC2FBD2FC12F7608F8077708F93D013033
:101F8400F635F70D890BC22F0130F536F40C890BA9
:101F9400C72F74087504031DD02FD12FB92F7908CA
:101FA400F5007808F4000800F60076088D31B525B0
:101FB4008F318F3141278F318F315E278F317A08EE
:101FC4000319E52FE62FF72FFA010130F500750804
:101FD400F607760874020318F02FF12FF22FF6019A
:101FE40076088D31B5258F31DB2F20004B0803197E
:0C1FF400FC2FFD2FDB2FCB01760808002E
:020000040001F9
:0A000E00EC3FFF379F3FFF3FFF3F2D
:00000001FF
