:020000040000FA
:1000000080315528080008007E1480312E00161C0F
:100010000A280B2813280C1C0E280F2813289231AD
:10002000F222803153280B1F162817285328991CB9
:100030001A281B2820288F1C1E281F2820285328F8
:10004000191C232824282A280F1C272828282A2876
:1000500053285328191E2D282E2839280F1E3128E1
:1000600032283928210068088A0067080A00803190
:100070005328991E3C283D2848288F1E4028412897
:100080004828210066088A0065080A008031532844
:100090001A1C4B284C282928101C4F285028292886
:1000A0009531252580317E10090080315728FA01CD
:1000B000FB016830840000308500083093312E2326
:1000C0008031A0308400003085003F3093312E23F2
:1000D00080312030840001308500163093312E238A
:1000E00080317E102000803175289531A425803123
:1000F0009331B02380318D313B25803193314423BE
:1001000080318B170B178730F2000B30F3009231E0
:10011000FE2280311530F2001430F3009331222397
:1001200080318230F2001430F30093311623803195
:100130009331D32380312000931513163E00CF1541
:100140004F16573097314E278031933174238031C9
:100150009331282380310B13210058080319B1284B
:10016000B228B628D8019331A623803120006A082E
:10017000D90059082100D50020006908D900590884
:100180002100D40020006808D90059082100D300BC
:100190004F080319CC28CD28D4284F082000D900B7
:1001A00059082100CE00CF015A080319D828D928B0
:1001B000E0285A0820006D020318DF28E028612992
:1001C00020006D080319E528E62861290130D900CF
:1001D00059082100DA000B179431242480312000C3
:1001E000D90059082100D100510801392000D90057
:1001F000D90E16085906EF395906960021005136D6
:1002000001392000D900D90ED90D16085906DF3959
:10021000590696008331292380312000D9005908DE
:100220002100D20054082000D9005908A400210060
:1002300053082000DA005A08A500210052082000C7
:10024000DB005B08A600210051082000DC005C08F0
:10025000A700210055088131FE218031003A0319A1
:100260003229332936298D31DE2580312100560887
:100270005102031C3C293D294429520820006C02EC
:10028000031843294429622920006B03031D4929CF
:100290004A29622921005008031D4F29502962294B
:1002A00054082000D9005908A0002100530820005C
:1002B000DA005A08A100210055088B314223803111
:1002C00062290B172200B601B7016E298C31142464
:1002D000803101302200B6070030B73D3708803A40
:1002E0002000D90080305902031D7A2921004E08D0
:1002F00022003602031C7D297E2966292100CE01B9
:100300002E00161021005008031987298829E0299A
:100310002E001614210053082000D900DA01210014
:1003200055082000DB00DC015B08F4005C08F500E8
:100330001030F6000E30F7009531FB25803174083F
:100340002000DD007508DE00210054082000DF00D9
:10035000E0015F08F4006008F5003C30F600003072
:10036000F7009531FB258031740820005D07E1001E
:1003700075085E3DE20059086107E3005A08623DD6
:10038000E4002100430820006302E5002100440846
:100390002000643BE6006608803AE7008030670290
:1003A000031DD6292100570820006502031CD92906
:1003B000DA29E22994313324803120001617E2290A
:1003C0002E0016142E001610210059080319E929D1
:1003D000EA29F929D9018A31FF2280310B138730AC
:1003E000F2000B30F3009231FE2280310B172E0009
:1003F0000C102E001614AB28803155282000AC00BC
:100400000A30F200F030F3009331C723813120002D
:10041000A800A9012808AD002908AE002E08F500A3
:100420002D08F4000530F6000030F7009531FB256B
:10043000813174080B3E2000AF00F030753DB000F4
:100440002D082E040319252A262A6B2A2F08FE3E82
:10045000F200FF30303DF3009331C723813120009B
:100460002606031D342A352A6B2A2F08FF3EF20088
:10047000FF30303DF3009331C72381312000270640
:10048000031D432A442A6B2A9631392681312000E4
:10049000A8000230F4000030F5009331742381315C
:1004A0002000A900AA012908F6002A08F7008F31C8
:1004B0003D2781317508803A2000AB0080302B0247
:1004C000031D642A28087402031C672A692A013064
:1004D0006A2A0030282B0130F200F030F30093310B
:1004E000C72381312000A800A9012808F4002908A9
:1004F000F5000530F6000030F7009531FB2581311D
:100500007408063E2000AA00F030753DAB003008AC
:100510002B02031D8D2A2F082A020318902A912AE4
:10052000A02A0B30AF00F030B0000930A000F0304E
:10053000A1005530A8002808A2009731002781317A
:1005400020003008A1002F08A0002C08A8002808CF
:10055000A20097310027813120002F08013EA00022
:100560000030303DA1002408A8002808A2009731DF
:100570000027813120002F08023EA0000030303DCE
:10058000A1002508A8002808A20097310027813182
:1005900020002F08033EA0000030303DA1002608B7
:1005A000A8002808A20097310027813120002F08D9
:1005B000043EA0000030303DA1002708A800280814
:1005C000A2009731002781310A302000A000F030CE
:1005D000A1000530F2000030F3002F08FA3EF400CD
:1005E0000F30303DF5008A31402281317208200001
:1005F000A8002808A2009731002781310030200090
:10060000A000F030A1000530F2000030F3002F0808
:10061000FA3EF4000F30303DF5008A31402281313E
:1006200072082000A8007308A9000030F200F03022
:10063000F3009331C723813120002807AA002D0839
:100640002A02AB002B08A200973100278131442AEF
:10065000080023000F0C890C0139F40011081F3920
:100660007404031D342B352B292B11141118392B2D
:100670003A2B362B0F0C890C0139F40011081F3965
:100680007404031D442B452B3A2B9A308C31A5243E
:10069000833123000F0C890C0139F40011081F3934
:1006A0007404031D542B552B492B01308C31A52488
:1006B000833123000F0C890C0139F40011081F3914
:1006C0007404031D642B652B592B91149118692B0D
:1006D0006A2B662B0F0C890C0139F40011081F39A5
:1006E0007404031D742B752B6A2B9B308C31A5244D
:1006F000833123000F0C890C0139F40011081F39D4
:100700007404031D842B852B792B95316F25833140
:10071000F4007408F50023000F0C890C0139F40073
:1007200011081F397404031D962B972B8B2B9116E0
:100730001116111A9C2B9D2B992B0F0C890C01392A
:10074000F40011081F397404031DA72BA82B9D2B3F
:1007500011151119AC2BAD2BA92B751FB02BB12B7B
:10076000292B0F0C890C0139F40011081F3974046E
:10077000031DBB2BBC2BB12B11141118C02BC12B8B
:10078000BD2B0F0C890C0139F40011081F397404BA
:10079000031DCB2BCC2BC12B9A308C31A52483315C
:1007A00023000F0C890C0139F40011081F3974045F
:1007B000031DDB2BDC2BD02B00308C31A5248331A7
:1007C00023000F0C890C0139F40011081F3974043F
:1007D000031DEB2BEC2BE02B91149118F02BF12B3C
:1007E000ED2B0F0C890C0139F40011081F3974042A
:1007F000031DFB2BFC2BF12B9B308C31A52483316B
:1008000023000F0C890C0139F40011081F397404FE
:10081000031D0B2C0C2C002C95316F258331F4001B
:100820007408F50023000F0C890C0139F40011083D
:100830001F397404031D1D2C1E2C122C9116111629
:10084000111A232C242C202C0F0C890C0139F400B4
:1008500011081F397404031D2E2C2F2C242C111564
:100860001119332C342C302C750808002000B800E6
:100870009331742384312000AD002D08B9009331E9
:100880008C2384312000AD002D08BA00943142241D
:100890008431003A031D4D2C4E2C572C20003A0871
:1008A000AD00AE012D08B4002E08B5005F2C20006D
:1008B0003908AD00AE012D08B4002E08B50034088B
:1008C000AD002D08B3003A082C020318682C692CDF
:1008D000832C2C083807AD00AE01AE0D2D08FF3E6D
:1008E000AF00FF302E3DB0003008803AB1008030BC
:1008F0003102031D7D2C3A082F02031C802C812C11
:10090000B22C0030002D2C083807AD00AE01AE0D22
:100910002E08803A803C031D8F2C2D0839020318C5
:10092000922C932CB22C20002C083807AD00AE017D
:10093000AE0D2E08B00039082D02AF00031CB00325
:100940002F08FF3EB100FF30303DB2003208803A40
:10095000803C031DAD2C31083A020318B02CB12C99
:10096000B22C812C2000B601B701F22C20002C08FB
:100970009631DD26843120002C087A06031DC12C17
:10098000C22CD82C3908AD00AE012D08F2002E087B
:10099000F3007A08013EF400003003180130F5003E
:1009A0008D318B25843172082000AF002F08FA00AA
:1009B0003308AD00AE012D08F2002E08F3002C081C
:1009C000013EF400003003180130F5008D318B2515
:1009D000843172082000AF002F08AC000130B60748
:1009E0000030B73D3708803AAD0080302D02031D3E
:1009F000FB2C38083602031CFE2CFF2CB62C0130D1
:100A000008000A30F4000030F50020006A08AC004D
:100A1000AD012C08F6002D08F7008F313D278531F8
:100A200074082000AE002E08B1000A30F200003039
:100A3000F3006A08AC00AD012C08F4002D08F500A5
:100A40008D318B25853172082000AE002E08B20052
:100A50000230AC002C08F40031089731242785318E
:100A60002000AD002D08B10002303106031D392DE4
:100A70003A2D4E2D04303202031C3F2D402D412DC6
:100A8000B2010330AC002C08F4003208973124275F
:100A900085312000AD002D08B2005A2D0930AC0080
:100AA0002C08F40032089731242785312000AD004E
:100AB0002D08B2000A30F4000030F5006908AC00DF
:100AC000AD012C08F6002D08F7008F313D27853148
:100AD00074082000AE002E08AF000A30F20000308B
:100AE000F3006908AC00AD012C08F4002D08F500F6
:100AF0008D318B25853172082000AE002E08B000A4
:100B00000530AC002C08F4002F08973124278531DC
:100B10002000AD002D08AF000930AC002C08F40017
:100B200030089731242785312000AD002D08B00012
:100B30000A30AC002C08F20031089431B924853118
:100B400020003207AD002D08EA000A30AC002C0866
:100B5000F2002F089431B924853120003007AD0010
:100B60002D08E9009331A623853108002000C70035
:100B70009331742385312000BB003B08C0009331C2
:100B80008C2385312000BB003B08C40094314224F3
:100B90008531003A031DCD2DCE2DD72D20004408E0
:100BA000BB00BC013B08C2003C08C300DF2D200095
:100BB0004008BB00BC013B08C2003C08C30042081F
:100BC000BB003B08C60047080319E72DE82D172E88
:100BD000470895313C258531023072067304031DA8
:100BE000F22DF32D172E20004708860087010108FB
:100BF000C1004602031CFD2DFE2D172E470886005E
:100C00008701413FC5004608FF3EBB00FF30031887
:100C10000030BC003C08803ABD0080303D02031D1E
:100C2000132E45083B020318162E172E212EFF30D7
:100C30002000BB003B08F800CB3095310F258531F3
:100C4000512E20004608BB00BC013B08F2003C08C6
:100C5000F30045084407F400F501F50D8D318B25AF
:100C6000853172082000BD003D08C5004508BB0065
:100C70003B08AC004108843136248531003A031D1D
:100C8000422E432E4D2EFF302000BB003B08F800C3
:100C9000CB3095310F258531512EFE3093312823ED
:100CA000853108002000AD002D080319582E592E5B
:100CB000612E0A30A000F030A100A2019731002778
:100CC000863101302000A000F030A1002408AC00E3
:100CD0002C08A20097310027863102302000A000A6
:100CE000F030A1002508AC002C08A20097310027A5
:100CF000863103302000A000F030A1002608AC00AF
:100D00002C08A20097310027863104302000A00073
:100D1000F030A1002708AC002C08A2009731002772
:100D2000863105302000A000F030A1002808AC007A
:100D30002C08A20097310027863106302000A00041
:100D4000F030A1002908AC002C08A2009731002740
:100D5000863107302000A000F030A1002A08AC0046
:100D60002C08A20097310027863108302000A0000F
:100D7000F030A1002B08AC002C08A200973100270E
:100D8000863109302000A000F030A100AA30AC006C
:100D90002C08A20097310027863100302000A000E7
:100DA000F030A10024082507260727072807290770
:100DB0002A072B07AC002C08A200973100278631A8
:100DC00008002000CB004B08860087010108C800FE
:100DD0004808CA004B0895313C25863172037304DC
:100DE000031DF32EF42EF72E2000CC013E2F200001
:100DF0004B08013EC8004808CC003E2F8831C62071
:100E000086316C2F4C0887316D2786316C2F9631D7
:100E10001A2686316C2F9531C02586316C2F4C08EF
:100E200089312A2186316C2F4C08893196218631EF
:100E30006C2F9631BA2686316C2F4C088A31BD2230
:100E400086316C2F4C088931602186316C2F8E31B0
:100E5000312686316C2F4C088F319D2786316C2FBF
:100E60004C088531B62586316C2FFF30C800480804
:100E7000F8004A0895310F2586316C2F4A08C800C2
:100E8000C9014908003A0319462F352F4808C03ACE
:100E90000319FE2E013A0319022F033A0319072FF3
:100EA000013A03190B2F073A03190F2F013A0319BF
:100EB000142F033A0319192F013A03191D2F0F3A62
:100EC0000319222F013A0319272F033A03192B2F55
:100ED000013A0319302F352F08002000B0003008E8
:100EE0000319732F742FBA2F300895313C258731A1
:100EF000033072067304031D7E2F7F2FBA2F20004C
:100F0000300886008701183001020318882F8A2FC5
:100F100001308B2F0030AC002C08AD002D08031DD4
:100F2000922F932FBA2F300A860087013C3001029E
:100F300003189B2F9D2F01309E2F0030AC002C08F2
:100F4000AE002E08031DA52FA62FBA2F3008023E93
:100F5000860087013C3001020318AF2FB12F01300A
:100F6000B22F0030AC002C08AF002F080319B92FA6
:100F7000BA2FC42FFF302000AC002C08F800C1307D
:100F800095310F258731DA2F0B132D08AC002C0873
:100F9000EA002E08AC002C08E9002F08AC002C0851
:100FA000E8000B179331A6238731F801C130953142
:100FB0000F25873108002000A7002008A100A2010A
:100FC0002708A300A4012308F4002408F500053035
:100FD000F6000030F7009531FB258731200021080D
:100FE0007407A5002208753DA60025080B3EF200F7
:100FF000F030263DF3009331C72387310800080005
:101000000130250090008F019101FF308D008C018F
:101010002E009010803025008E0008002000A700D0
:101020000030A000F030A1000530F200F030F300F5
:101030009331C72388312000A4000030F200F03043
:10104000F3009331C72388312000A500240825022E
:101050002707A6002608A20097310027883105300F
:101060002000A000F030A1002708A4002408A2005E
:1010700097310027883108002000A7000030A00029
:10108000F030A1000430F200F030F3009331C723B8
:1010900088312000A4000030F200F030F3009331DA
:1010A000C72388312000A500240825022707A600B1
:1010B0002608A20097310027883104302000A000C4
:1010C000F030A1002708A4002408A20097310027CF
:1010D000883108002000A7000030A000F030A100F7
:1010E0000230F200F030F3009331C7238831200042
:1010F000A4000030F200F030F3009331C7238831B0
:101100002000A500240825022707A6002608A20023
:1011100097310027883102302000A000F030A10074
:101120002708A4002408A20097310027883108006E
:101130002000A7000030A000F030A1000330F20032
:10114000F030F3009331C72388312000A400003031
:10115000F200F030F3009331C72388312000A5005E
:10116000240825022707A6002608A2009731002799
:10117000883103302000A000F030A1002708A4002F
:101180002408A20097310027883108000B132000A3
:101190006A08F8007808A3006908F8007808A40035
:1011A0006808F8007808A5000B1726308600003084
:1011B00087000530F80000301E00F80BDC28C03036
:1011C000F8007808A6002308F8007808A70024088B
:1011D000F8007808A8002508F8007808A900AA01F6
:1011E000263097317827883108002000B5009231E9
:1011F000E72288310B298531012588312229943154
:101200006124883122298E31842688312229943123
:10121000A5248831222920003508B300B401340800
:10122000003A0319142922293308003A0319FB282C
:10123000013A0319FF28033A03190329013A031954
:10124000072922299231E422883100309331BB23CF
:10125000883108002000A900290803193029312904
:101260004529290895313C25893172037304031DF2
:101270003A293B2945292000290886008701643046
:101280000102031C442945294F29FF302000A800F2
:101290002808F800C43095310F2589315F292908C5
:1012A000860087010108A8002808ED006D08883134
:1012B0006A208931F801C43095310F258931080041
:1012C0002000A90029080319662967297B29290814
:1012D00095313C25893172037304031D70297129EE
:1012E0007B29200029088600870102300102031CA7
:1012F0007A297B298529FF302000A8002808F800DA
:10130000C83095310F258931952929088600870134
:101310000108A8002808EB006B089731D227893113
:10132000F801C83095310F25893108002000A90047
:10133000290803199C299D29B129290895313C25A3
:10134000893172037304031DA629A729B12920003E
:101350002908860087013D300102031CB029B1290C
:10136000BB29FF302000A8002808F800C5309531BF
:101370000F258931CC292908860087010108A8009A
:1013800028082100D7005708883198208931F801B2
:10139000C53095310F25893108007B08A03E8600B5
:1013A0008701810122001D1DD629D729E2297B084A
:1013B000A03E860087018114210064088A0063082A
:1013C0000A00893122009D1CE629E729F2297B08C1
:1013D000A03E860087010115210062088A0061088D
:1013E0000A0089317B08A03E8600870101080319A5
:1013F000FA29FB29022A210060088A005F080A00F6
:101400008A31052A9531552589310800053020009B
:10141000AE002E08ED002130AE002E082100CB00DA
:1014200003302000AE002E082100D7001930200024
:10143000AE002E08EC000230AE002E082100D600CF
:101440002000EB01EA01E9012130AE002E08A400E2
:101450000530AF002F08A5000330B0003008A6000B
:101460001930B1003108A7000230B2003208A800DC
:10147000A901AA01AB010130863152268A31080048
:10148000F801F901720873040319472A482A772AD8
:10149000F701F70A542A0130F235F30D890B4C2A73
:1014A0000130F6007608F707F31F572A582A4B2A0F
:1014B0000130F835F90D890B592A73087502031D9F
:1014C000632A72087402031C662A672A6C2A72084F
:1014D000F4027308F53B78140130F336F20C890BF3
:1014E0006D2A0130F702031D762A772A582A7908D7
:1014F000F3007808F20008002E009912CD30F200B7
:101500000930F300933116238A312E0019129830D6
:10151000F2001630F30093311C238A310830220088
:101520009F0090309D0024309E0019309B009C014C
:10153000FF30F2000730F30093310A238A31EE3096
:10154000F2001230F300933110238A31EA30F200B6
:101550001230F300933104238A312100DB01DE01D4
:10156000DD010830F4007408EF00FB012000EF01FA
:101570002100DC012E00991608002000A800280890
:101580000319C32AC42AE22A280895313C258A3146
:10159000023072067304031DCE2ACF2AE22A2000ED
:1015A000280886008701333001020318D82AD92A77
:1015B000E22A280A8600870104300102031CE12A7E
:1015C000E22AEC2AFF302000A7002708F800C730E5
:1015D00095310F258A31FE2A2808860087010108E7
:1015E000A7002708EC00280886008701413F21005A
:1015F000D600F801C73095310F258A310800200048
:10160000EE0100309331BB238A310B135C30F200C2
:101610000C30F3009231FE228A310B173A2B9631AF
:1016200058268A31963178268A3121004C080319D0
:101630001A2B1B2B262BCC0101302000B6003608BC
:10164000EE0700309331BB238A313A2B4D08031942
:101650002A2B2B2B3A2BCD0100309331BB238A311F
:1016600020006E088831F5208A3101302000B60054
:101670003608EE07043020006E02031C402B412B7D
:101680000F2B08002000AC002100D001D00A9431BB
:1016900051248B31FA30F2000030F3009431E3240E
:1016A0008B3120002108A200A3012C08A400A50171
:1016B0002408F4002508F5001030F6000E30F7007D
:1016C0009531FB258B3174082000A6007508A70012
:1016D0002008A800A9012808F4002908F5003C30DA
:1016E000F6000030F7009531FB258B31740820009F
:1016F0002607AA007508273DAB0022082A0721000B
:10170000C300200023082B3D2100C4000800031063
:101710002000961F031403188E2B912B2000961780
:10172000932B200096136D080319972B982B9D2B54
:101730000130F00070082100DA073B302000680219
:101740000318A32BA42BA92B0130F0007008E80785
:10175000C22BE8013B3069020318AF2BB02BB52B2D
:101760000130F0007008E907C22BE90117306A0266
:101770000318BB2BBC2BC12B0130F0007008EA070B
:10178000C22BEA016808031DC62BC72BCC2B0130E6
:10179000F00070082100D80008002000AA000030E6
:1017A000A000F030A1000830F200F030F3009331D7
:1017B000C7238B312000A5000730F200F030F30082
:1017C0009331C7238B312000A6000030F200F030A7
:1017D000F3009331C7238B312000A700260827028E
:1017E000A800250828022A072407A9002908A20022
:1017F000973100278B3107302000A000F030A10086
:101800002A08A5002508A200973100278B3108304F
:101810002000A000F030A1002408A5002508A200A7
:10182000973100278B3108002000D601D70197316E
:10183000A5278C312000CD004D08D800FD3058067A
:101840000319232C242C2C2C93319D238C31003A0A
:10185000031D2B2C2C2C172C2000D601D701432C38
:101860009731A5278C312000CD004D08D8005808AD
:10187000CD0056084E3E860087014D08810001309C
:10188000D6070030D73DFE3058060319482C492CA6
:10189000512C93319D238C31003A031D502C512C37
:1018A000302C200056084E3E8600870181014E30C4
:1018B0008631E1268C3108008D2C0310961F03140D
:1018C0000318632C662C20009617682C20009613B2
:1018D000A42C0310161F031403186F2C722C200065
:1018E0001617742C20001613A42C0310961E031434
:1018F00003187B2C7E2C20009616802C200096123C
:10190000A42C0310161E03140318872C8A2C200005
:1019100016168C2C20001612A42C20006E08F00045
:10192000F1017108003A0319962CA42C7008003AB2
:1019300003195D2C013A0319692C033A0319752C1C
:10194000013A0319812CA42C0800F300730823002A
:101950008C00901FAC2CAD2CAE2CEF2C0F30100552
:10196000F200083072060319B62CB72CCD2C0F30BC
:101970001005F2000B3072060319BF2CC02CCD2CC1
:1019800010162E000F1CC52CC62CC12C23000F19BD
:10199000CA2CCB2CEF2C0F08EF2C0F301005F200C7
:1019A000083072060319D52CD62CDF2C0F30100509
:1019B000F2000B307206031DDE2CDF2CEF2C0F180B
:1019C000E22CE32CDF2C0F0C890C0139F2001108FA
:1019D0001F397204031DED2CEE2CE32C11080800B6
:1019E00020009A019901960197019801073095000E
:1019F0000F309100FF309200BF309300FF30940011
:101A0000FF303E00D9004730CE00EF30C300073032
:101A1000E4000F30B800DA01E501C401B901CF01DB
:101A2000E601BA01C501D001DB01FF30BB00FF3088
:101A3000C600FF30D100FF30DC000730E700FF3088
:101A4000BC00FF30C700FF30D200FF30DD000730A0
:101A5000E8000C303D0090001730CB001330C5007B
:101A600014303E00A3001530A4001030A60014303E
:101A70003D00C6000800953189258D31003A0319D3
:101A8000422D432D872D9431CE248D31003A0319F8
:101A90004A2D4B2D872D93317C238D312000B300AF
:101AA0003308ED00933174238D312000B3003308E7
:101AB0002100CB00933184238D312000B300330803
:101AC0002100D70093315C238D312000B30033080F
:101AD000EC00933154238D312000B30033082100F2
:101AE000D60093314C238D312000B3003308EB0036
:101AF000933164238D312000B3003308EA00933121
:101B00006C238D312000B3003308E9008A2D8A311F
:101B100006228D310800F801F51F8F2D902D972D8D
:101B2000F409F509F40A0319F50AF801F80AF31F94
:101B30009A2D9B2DA02DF209F309F20A0319F30A3D
:101B4000720873040319A52DA62DCF2DF701F70AEE
:101B5000B22D0130F235F30D890BAA2D0130F600BC
:101B60007608F707F31FB52DB62DA92D730875025A
:101B7000031DBC2D72087402031CBF2DC02DC42D83
:101B80007208F4027308F53B0130F336F20C890B4E
:101B9000C52D0130F702031DCE2DCF2DB62D7808AF
:101BA0000319D32DD42DD92DF409F509F40A0319FD
:101BB000F50A7508F3007408F200080093317423E5
:101BC0008D31F80078082000AD0093318C238D31E1
:101BD000F80078082000AE00943142248D31003A9C
:101BE000031DF32DF42DFD2D20002E08F800F90122
:101BF0007808AB007908AC00052E20002D08F8000D
:101C0000F9017808AB007908AC002B08F8007808D7
:101C1000A9007A08F8007808AA002330860000306E
:101C200087000630F80000301E00F80B142ECC3070
:101C3000F8007808A3002D08F8007808A400290807
:101C4000F8007808A5002A08F8007808A6002E08F1
:101C5000F8007808A700A8012330973178278D3144
:101C60000800933174238E31F80078082000AD000D
:101C700093318C238E31F80078082000AE00943127
:101C800042248E31003A031D462E472E502E20004E
:101C90002E08F800F9017808AB007908AC00582E3E
:101CA00020002D08F800F9017808AB007908AC0095
:101CB0002B08F8007808A9007A08F8007808AA002C
:101CC00023308600003087000630F80000301E0008
:101CD000F80B672EC930F8007808A3002D08F8002B
:101CE0007808A4002908F8007808A5002A08F80058
:101CF0007808A6002E08F8007808A700A80123306D
:101D0000973178278E3108000A30F4000030F50052
:101D100020006C08A800A9012808F6002908F7008F
:101D20008F313D278E3174082000AA002A08AC00AC
:101D30000A30F2000030F3006C08A800A90128085E
:101D4000F4002908F5008D318B258E3172082000B2
:101D5000AA002A08AB000530A8002808F4002C08C7
:101D6000973124278E312000A9002908AC000530C6
:101D70002C06031DBC2EBD2EC22E3230A800280812
:101D8000EC00DB2E0930A8002808F4002B0897315E
:101D900024278E312000A9002908AB000A30A800B2
:101DA0002808F2002C089431B9248E3120002B072A
:101DB000A9002908EC006C0888313C208E3108000D
:101DC0000A30F200F030F3009331C7238E31200047
:101DD000A0000830F200F030F3009331C7238E31B9
:101DE0002000A1000730F200F030F3009331C72348
:101DF0008E312000A2000630F200F030F300933163
:101E0000C7238E312000A3000530F200F030F3002C
:101E10009331C7238E312000A4000430F200F0304B
:101E2000F3009331C7238E312000A5000330F20068
:101E3000F030F3009331C7238E312000A60002302A
:101E4000F200F030F3009331C7238E312000A70059
:101E50000130F200F030F3009331C7238E312000BF
:101E6000270726072507240723072207210720071E
:101E7000A8002808F400740808002000A101F51F3C
:101E8000422F432F4A2FF409F509F40A0319F50AE2
:101E9000A101A10AF71F4D2F4E2F572FF609F70961
:101EA000F60A0319F70A0130F8007808A106A20122
:101EB000A3017408750403195E2F5F2F8E2FA001F4
:101EC000A00A6B2F0130F435F50D890B632F01301B
:101ED000F8007808A007F51F6E2F6F2F622F0130D2
:101EE000A235A30D890B702F75087702031D7A2F79
:101EF00074087602031C7D2F7E2F832F7408F60250
:101F00007508F73B22140130F536F40C890B842F49
:101F10000130A002031D8D2F8E2F6F2F2108031972
:101F2000922F932F982FA209A309A20A0319A30A9B
:101F30002308F5002208F40008002000C2009431B4
:101F400042248F31003A031DA62FA72FB22F9331C1
:101F50008C238F312000BB00BC013B08C0003C0833
:101F6000C100BC2F933174238F312000BB00BC0112
:101F70003B08C0003C08C1004008BB003B08BE0055
:101F800042080319C42FC52FDA2F420895313C258A
:101F90008F3172037304031DCE2FCF2FDA2F200051
:101FA0004208860087010108BF003E020318D92FAE
:101FB000DA2FE42FFF302000BB003B08F800CA30C6
:101FC00095310F258F31FF2F7A08BB003B08AC00FD
:101FD0003F08843136248F31003A031DF02FF12F52
:101FE000FB2FFF302000BB003B08F800CA309531C2
:101FF0000F258F31FF2FFE30933128238F310800BA
:1025C80024000E14080024000E100800953155252B
:1025D8009231080022001D121D1608002E000C1052
:1025E8009331DF23923108007B08A73E86008701DC
:1025F8000108080073082100EC007208EB000800CD
:1026080073082100E0007208DF0008007308210049
:10261800E4007208E300080073082100E200720871
:10262800E100080073082100E6007208E5000800D0
:1026380073082100E8007208E70008007308210009
:10264800EA007208E9000800F400740897314E2780
:1026580093310800640080010131890B2F2B00346D
:10266800943106249331200016132100D00108006C
:102678002F0096019701980199019A019B01080082
:10268800943133249331200016132100D00108001F
:102698000630F200F030F3009331C723933108007D
:1026A8000530F200F030F3009331C723933108006E
:1026B8000430F200F030F3009331C723933108005F
:1026C8000730F200F030F3009331C723933108004C
:1026D8000830F200F030F3009331C723933108003B
:1026E8000130F200F030F3009331C7239331080032
:1026F8000230F200F030F3009331C7239331080021
:102708000330F200F030F3009331C723933108000F
:102718000A30F200F030F3009331C72393310800F8
:10272800623031008D008F019101023093009201D7
:10273800080021005C08031DA22BA42B0130A52B47
:102748000030080020006908AB002B08A4006A08C4
:102758008B31CD2393310800FA012100CF01CE013E
:10276800DA01D901D801C301C401D0010800F3007E
:102778007308F2000330F235FF3E031DBF2B72359C
:10278800200096000800730830009B0072089A0029
:102798001E171E140000000030001C08080023004B
:1027A800901AD72BD82BDE2B8F012830900091015F
:1027B80003308D000800210069086A040319E52B1D
:1027C800E62BEB2B6A088A0069080A009331080097
:1027D8002E000C100B140230F2000030F30093317D
:1027E800222393312E0016140800803027008E0013
:1027F800FF308D00C0308C0024001F08F3390438E6
:102808009F00080055303D008F00AA308F000F1040
:102818003E00960155303D008F00AA308F000F14FE
:1028280008002100500803191A2C1B2C1F2C933167
:1028380034239431232C0130F0007008D9000800AB
:1028480000309431932494317208F6007308F7002D
:102858000E30F736F60C890B2D2C7608080055300B
:102868003D008F00AA308F000F103E0096015530B2
:102878003D008F00AA308F000F1408000930F200C5
:10288800F030F3009331C7239431553A03194D2C96
:102898004F2C0130502C0030080055303D008F007F
:1028A800AA308F000F100E303E00960055303D00C4
:1028B8008F00AA308F000F140800F401F40A2000DA
:1028C8006B089731242794312000A8002808EB00D2
:1028D8006B089731D2279431080024000E1D752CFF
:1028E800762C7D2C0E1071088D0070088C000E144B
:1028F800812C71088D0070088C0008008931CD2169
:1029080094319231F8229431FE3A031D8C2C8D2C8F
:10291800922C0130F10071082100CF070800F50062
:10292800750821009E00931713131314000021004B
:1029380013189F2CA02C9B2C0D08F3000C08F200F8
:10294800080003302000A8002808F40021005608D9
:102958009731242794312000A90029082100D600A6
:10296800560888310E2094310800F500F401751CD2
:10297800BE2CBF2CC32C7208F3007308F407031095
:10298800F20D0310F50C7508031DCB2CCC2CBB2CB9
:10299800740808000030F200F030F3009331C723C8
:1029A8009431F5007508F6008E31E02694317606EC
:1029B8000319DF2CE12C0130E22C003008007308E9
:1029C800F5007208F400F536F40CF536F40C7408CA
:1029D80027008D0072080339F4000530F435FF3EF6
:1029E800031DF22C74358C00080022008E018F0123
:1029F80090019101920193018D0121009E019B019B
:102A080094019501960197019A01990198018030E6
:102A180093009D0108002000A3000030A4000030AE
:102A2800A5000030A6002308F9007908A40078085A
:102A3800F9007908A500A601243097317827953147
:102A480008002E00101021006E08F1006D08F0003B
:102A580094317124953121006B086C040319352DCC
:102A6800362D3B2D6C088A006B080A00953108004A
:102A7800F6007608F4007408F500462D0130F400DD
:102A88007408F6077608860087010108031D4D2D96
:102A98004E2D422D75087602F200F301F21BF30366
:102AA800080022001908F0007B08A83E860087016C
:102AB800700881000130F0007008FB0708307B02C5
:102AC800031C672D682D692DFB010130F00070088B
:102AD8002100DC0708000F3023001005F200083041
:102AE80072060319782D792D822D0F301005F2000A
:102AF8000B307206031D812D822D832D91150F1C1D
:102B0800862D872D832D0C0808000930F200F0303F
:102B1800F3009331C7239531F4007408F600F501EA
:102B2800F50AAA30760603199A2D9B2DA22D553049
:102B380076060319A02DA12DA22DF5017508080010
:102B480093313C2395318C31F02495319331942382
:102B580095319331F92395319431F92495318831A0
:102B6800002095319331EC2395319531DD25953150
:102B78008A317C229531080000302000A600003000
:102B8800A5000030A4000030A300C330F800780886
:102B9800A3006D08F8007808A40021005708F80081
:102BA80078082000A500A6012330973178279531B1
:102BB800080024008F0190010430910086308D00B8
:102BC800E8308C000D082100EE0024000C082100DC
:102BD800ED002E0010101A140330F2000030F3003C
:102BE8009231FE229531053024008E000800F8014C
:102BF800F901741C002E012E052E7608F8077708B7
:102C0800F93D0130F635F70D890B062E0130F53602
:102C1800F40C890B0B2E74087504031D142E152E45
:102C2800FD2D7908F5007808F40008000030200030
:102C3800A6000030A5000030A4000030A300C23078
:102C4800F8007808A30021005208F800780820004E
:102C5800A40021005108F80078082000A500A6016A
:102C68002330973178279631080093318C23963199
:102C7800F4007A087402F5007508F8007808031D56
:102C8800462E472E4F2E9331742396317807F6003F
:102C9800F701F70D562E7808F400F5017408F600D0
:102CA8007508F7007608080021004A08031D5D2E04
:102CB8005E2E6E2E20000D1A622E632E772E623045
:102CC800F2006630890B662EF20B662E2100CA01CF
:102CD800CA0A772E20000D1E722E732E772E210021
:102CE800CA01CC01CC0A080021004908031D7D2E29
:102CF8007E2E8E2E20008E1A822E832E972E6230E4
:102D0800F2006630890B862EF20B862E2100C9014F
:102D1800C90A972E20008E1E922E932E972E2100E0
:102D2800C901CD01CD0A0800083021006F0203183F
:102D38009E2E9F2EB72E5D08B03E860087010108A3
:102D480022009A000130F00070082100DD070830E9
:102D58005D02031CB02EB12EB22EDD010130F00051
:102D68007008EF07B92E2E001912080023308600CC
:102D7800003087000530F80000301E00F80BC12E27
:102D8800C630F80078082000A3006C08F80078081E
:102D9800A40021005608F80078082000A5006B0858
:102DA800F8007808A600A7012330973178279631D4
:102DB80008002000A900AA01AB0120002A08A800E9
:102DC8002808A00029088731DB279631933128236A
:102DD800963101302000AA070030AB3D2B08803A1D
:102DE800A80080302802031DFB2E05302A02031C90
:102DF800FE2EFF2EE12E080000308B1B0130200034
:102E0800A300210830009B002000200830009A0011
:102E18002000220830009C001E171E158B13553009
:102E28009F00AA309F009E149E181B2F1C2F182F3E
:102E38001E112000230C031C8B1303188B1708008A
:102E4800F60076089331BB2397319631582697318F
:102E580096317826973121004D080319342F352FE4
:102E6800462FCD010130F5007508F6077608740283
:102E780003183F2F402F412FF60176089331BB23CB
:102E88009731292F4C0803194A2F4B2F292FCC0192
:102E980076080800F30021006F080319542F552FF6
:102EA8004F2F2E00191A592F5A2F5E2F7308220000
:102EB8009A00752F19127308F20021005E08B03EBF
:102EC80086008701720881000130F2007208DE076F
:102ED80008305E02031C712F722F732FDE01013040
:102EE800EF022E00191608002000A200FD309731CD
:102EF8004E2797312000A001A101912F2008220719
:102F0800F700770886008701010897314E27973127
:102F180001302000A0070030A13D220895313C2552
:102F28009731730820002102031D9C2F720820028C
:102F3800031C9F2FA02F822FFE3097314E279731E9
:102F4800080021005C080319AA2FAB2FA52F200029
:102F58006F08A03E860087010108F2007208210070
:102F6800DB0020006F08A83E860087010108F200F8
:102F78007208F3000130F2007208EF0708306F02A0
:102F8800031CC72FC82FC92FEF012E00991201303B
:102F98002100DC022E009916730808002000A70003
:102FA8000030A000F030A1000630F200F030F3004D
:102FB8009331C72397312000A4000030F200F0308D
:102FC800F3009331C72397312000A5002408250278
:102FD8002707A6002608A200973100279731063058
:102FE8002000A000F030A1002708A4002408A200B7
:082FF800973100279731080012
:020000040001F9
:0A000E00EC3FFF379F3FFF3FFF3F2D
:00000001FF
