:020000040000FA
:10000000803137280A3008007E1480312E00161CFB
:100010000A280B2813280C1C0E280F2813288E31B1
:100020001D26803135280B1F162817283528991CC6
:100030001A281B2820288F1C1E281F282028352816
:10004000191C2328242829280F1C27282828292878
:1000500035281A1C2C282D283528101C302831282A
:1000600035288F31E927803135287E10090080310D
:100070003928FA01FB013E308400003085001C3035
:100080008E312F2680317E10200080314728873125
:10009000BF2780318E319E2680318431FD2480310E
:1000A0008E313C2680318B170B178530F2000530DE
:1000B000F3008E31232680311030F2000F30F30030
:1000C0008E31292680318E31C02680312000931553
:1000D00013163E00CF154F160B13200056080319B8
:1000E000722873287728D6018E319426803120001B
:1000F00055085802031C7D287E28C428550803197A
:1001000082288328C428D8010B178F311F278031FC
:100110002000AF002F08CF004F080139AF00AF0E0D
:1001200016082F06EF392F0696004F360139AF001B
:10013000AF0EAF0D16082F06DF392F06960080315F
:10014000022080312000AF002F08D0008F31D3274C
:100150008031200052084F02031CAF28B028B62877
:10016000500853020318B528B628C5285103031DAB
:10017000BA28BB28C5284B08031DBF28C028C5289E
:10018000853142258031C5280B1720004B08031903
:10019000CA28CB2816294E08AF00B0017B08B10051
:1001A000B2013108F2003208F3001030F4000E30D2
:1001B000F5008631F126803172082000B300730803
:1001C000B4007A08B500B6013508F2003608F3002D
:1001D0003C30F4000030F5008631F12680317208A1
:1001E00020003307B7007308343DB8002F083707E5
:1001F000B9003008383DBA0042083902BB00430854
:100200003A3BBC003C08803ABD0080303D02031DF3
:100210000B2954083B02031C0E290F2917298F3183
:100220002E278031200016176300172963002E0047
:1002300016102000570803191E291F292E29D7013F
:100240008531C82580310B138530F2000530F3006D
:100250008E31232680310B172E000C102E00161421
:100260006C28803137280A30F2000030F3007B0818
:100270002000A400A5012408F4002508F50083311E
:100280001323813172082000A6002608A9000A3035
:10029000F2000030F3007B08A400A5012408F4005C
:1002A0002508F5008331CF23813172082000A60094
:1002B0002608AA000230A4002408F4002908863188
:1002C000C72681312000A5002508A9000230290693
:1002D000031D6B296C29802904302A02031C712913
:1002E00072297329AA010330A4002408F4002A0803
:1002F0008631C72681312000A5002508AA008C2957
:100300000930A4002408F4002A088631C726813168
:100310002000A5002508AA000A30F2000030F300F2
:100320007A08A400A5012408F4002508F50083310B
:100330001323813172082000A6002608A7000A3086
:10034000F2000030F3007A08A400A5012408F400AC
:100350002508F5008331CF23813172082000A600E3
:100360002608A8000530A4002408F40027088631D8
:10037000C72681312000A5002508A7000930A40068
:100380002408F40028088631C72681312000A50002
:100390002508A8000A30A4002408F20029088F319B
:1003A0009227813120002A07A5002508FB000A308A
:1003B000A4002408F20027088F3192278131200001
:1003C0002807A5002508FA008E31942681310800FF
:1003D0002000A4000A30F200F030F3008E31B42681
:1003E00081310B3E2000A500F0300318F130A6004B
:1003F0002508FE3EF200FF30263DF3008E31B42684
:10040000813120002206031D062A072A182A250802
:10041000FF3EF200FF30263DF3008E31B4268131DD
:1004200020002306031D152A162A182A0030852AC3
:100430000130F200F030F3008E31B4268131063EF7
:10044000F800F0300318F130F90020002608790296
:10045000031D2C2A2508780203182F2A302A342A53
:100460000B30A500F030A6002608F5002508F400A2
:100470002408F8007808F60087312E278131200003
:100480002508013EF4000030263DF5002008F80064
:100490007808F60087312E27813120002508023E9A
:1004A000F4000030263DF5002108F8007808F60039
:1004B00087312E27813120002508033EF4000030CB
:1004C000263DF5002208F8007808F60087312E272F
:1004D000813120002508043EF4000030263DF5005F
:1004E0002308F8007808F60087312E2781310A307A
:1004F000F400F030F50020002508FA3EF8007808F6
:10050000F60087312E27813101300800F900790883
:1005100003198B2A8C2A942A0A30F400F030F50053
:10052000F60187312E2782310130F400F030F500DA
:1005300020002008F8007808F60087312E27823145
:100540000230F400F030F50020002108F8007808AF
:10055000F60087312E2782310330F400F030F500A9
:1005600020002208F8007808F60087312E27823113
:100570000430F400F030F50020002308F80078087B
:10058000F60087312E2782310530F400F030F50077
:1005900020002408F8007808F60087312E278231E1
:1005A0000630F400F030F50020002508F800780847
:1005B000F60087312E2782310730F400F030F50045
:1005C00020002608F8007808F60087312E278231AF
:1005D0000830F400F030F50020002708F800780813
:1005E000F60087312E2782310930F400F030F50013
:1005F000AA30F8007808F60087312E2782310030C3
:10060000F400F030F500200020082107220723071E
:100610002407250726072707F8007808F600873102
:100620002E27823108002000A101F31F182B192B5F
:10063000202BF209F309F20A0319F30AA101A10A16
:10064000F51F232B242B2D2BF409F509F40A03198C
:10065000F50A0130F6007608A106A201A30172088E
:1006600073040319342B352B642BA001A00A412BF2
:100670000130F235F30D890B392B0130F600760885
:10068000A007F31F442B452B382B0130A235A30DB7
:10069000890B462B73087502031D502B72087402D8
:1006A000031C532B542B592B7208F4027308F53B8F
:1006B00022140130F336F20C890B5A2B0130A002C0
:1006C000031D632B642B452B21080319682B692B11
:1006D0006E2BA209A309A20A0319A30A2308F30097
:1006E0002208F20008000A30F2000030F300200077
:1006F0005308A400A5012408F4002508F50083315F
:100700001323833172082000A6002608A8000A30AF
:10071000F2000030F3005308A400A5012408F400FF
:100720002508F5008331CF23833172082000A6000D
:100730002608A7000530A4002408F4002808863104
:10074000C72683312000A5002508A800053028060B
:10075000031DAB2BAC2BB12B3230A4002408D300EB
:10076000CA2B0930A4002408F40027088631C726C4
:1007700083312000A5002508A7000A30A400240822
:10078000F20028088F319227833120002707A50027
:100790002508D30053088631402683310800F8012C
:1007A000F51FD32BD42BDB2BF409F509F40A03191D
:1007B000F50AF801F80AF31FDE2BDF2BE42BF20910
:1007C000F309F20A0319F30A720873040319E92BF7
:1007D000EA2B132CF701F70AF62B0130F235F30D53
:1007E000890BEE2B0130F6007608F707F31FF92B83
:1007F000FA2BED2B73087502031D002C720874028E
:10080000031C032C042C082C7208F4027308F53B1B
:100810000130F336F20C890B092C0130F702031D6D
:10082000122C132CFA2B78080319172C182C1D2CBA
:10083000F409F509F40A0319F50A7508F3007408B8
:10084000F2000800F300730823008C00901F292C8D
:100850002A2C2B2C6C2C0F301005F200083072065D
:100860000319332C342C4A2C0F301005F2000B30B6
:10087000720603193C2C3D2C4A2C10162E000F1C1E
:10088000422C432C3E2C23000F19472C482C6C2C57
:100890000F086C2C0F301005F20008307206031997
:1008A000522C532C5C2C0F301005F2000B307206CA
:1008B000031D5B2C5C2C6C2C0F185F2C602C5C2CAB
:1008C0000F0C890C0139F20011081F397204031D45
:1008D0006A2C6B2C602C110808009E2C0310961FAC
:1008E00003140318742C772C20009617792C200001
:1008F0009613B52C0310161F03140318802C832C99
:1009000020001617852C20001613B52C0310961EF8
:10091000031403188C2C8F2C20009616912C200089
:100920009612B52C0310161E03140318982C9B2C3A
:10093000200016169D2C20001612B52C20005908F8
:10094000F000F1017108003A0319A72CB52C7008CA
:10095000003A03196E2C013A03197A2C033A031951
:10096000862C013A0319922CB52C080020009A011C
:100970009901960197019801073095000F30910079
:10098000FF309200FF309300FF309400FF303E00B4
:10099000D900C730CE00EF30C3000730E4000F307D
:1009A000B800DA01E501C401B901CF01E601BA01DD
:1009B000C501D001DB01FF30BB00FF30C600FF30B6
:1009C000D100FF30DC000730E700FF30BC00FF3013
:1009D000C700FF30D200FF30DD000730E8000C30E8
:1009E0003D0090001330C50014303E00A3001530C8
:1009F000A40014303D00C60008008731F12784317F
:100A0000003A0319042D052D3E2D8E317B268431AD
:100A10002000AD002D08D5008E31732684312000D2
:100A2000AD002D08C8008E31832684312000AD0032
:100A30002D08D4008E315B2684312000AD002D08B6
:100A4000D3008E31532684312000AD002D08D20012
:100A50008E314B2684312000AD002D08D1008E311F
:100A6000632684312000AD002D08FB008E316B26FB
:100A700084312000AD002D08FA00412D87318827F0
:100A8000843108002000CB01CB0A8F313D2785310E
:100A9000FA30F2000030F3008F31A72785318E3114
:100AA0001926853120004E08A000A1017B08A20074
:100AB000A3012208F2002308F3001030F4000E30E6
:100AC000F5008631F126853172082000A4007308F4
:100AD000A5007A08A600A7012608F2002708F3005F
:100AE0003C30F4000030F5008631F1268531720883
:100AF00020002407A8007308253DA9002008280726
:100B0000C2002108293DC300080003102000961FE1
:100B1000031403188C2D8F2D20009617912D200083
:100B2000961355080319952D962D9A2D0130F00036
:100B30007008D8073B304E0203189F2DA02DA52D1D
:100B40000130F0007008CE07BE2DCE013B307A0296
:100B50000318AB2DAC2DB12D0130F0007008FA0751
:100B6000BE2DFA0117307B020318B72DB82DBD2D0D
:100B70000130F0007008FB07BE2DFB014E08031D7D
:100B8000C22DC32DC72D0130F0007008D60008001B
:100B90002000D90100308E31A82685310B136D302D
:100BA000F2000430F3008E31232685310B17022E1C
:100BB00087316A27853187314C27853120004908E4
:100BC0000319E32DE42DEE2DC9010130AE002E08EE
:100BD000D90700308E31A8268531022E4A08031924
:100BE000F22DF32D022ECA0100308E31A826853158
:100BF0002000590886310A26853101302000AE00D8
:100C00002E08D907043020005902031C082E092E93
:100C1000D82D08002000AD008E3116268631212EF9
:100C20008131332186310000382E8F314D278631B6
:100C3000382E833173238631382E8F316E278631DB
:100C4000382E20002D08AB00AC012C08003A031907
:100C50002A2E382E2B08003A0319102E013A0319B8
:100C6000152E033A0319192E013A03191D2E382E99
:100C70008E311326863100308E31A8268631080049
:100C8000F8000030F400F030F5000430F200F030ED
:100C9000F3008E31B42686312000A0000030F2002F
:100CA000F030F3008E31B42686312000A1002008F8
:100CB00021027807A2002208F60087312E2786310C
:100CC0000430F400F030F50078082000A00020087F
:100CD000F60087312E2786310800F8000030F40036
:100CE000F030F5000530F200F030F3008E31B4261C
:100CF00086312000A0000030F200F030F3008E3189
:100D0000B42686312000A100200821027807A20025
:100D10002208F60087312E2786310530F400F030A6
:100D2000F50078082000A0002008F60087312E2763
:100D300086310800F8000030F400F030F50006308D
:100D4000F200F030F3008E31B42686312000A0008E
:100D50000030F200F030F3008E31B42686312000EE
:100D6000A100200821027807A2002208F60087319E
:100D70002E2786310630F400F030F5007808200088
:100D8000A0002008F60087312E2786310800F600E3
:100D900076088E31A826863187316A2786318731D9
:100DA0004C27863120004A080319D72ED82EE92E69
:100DB000CA010130F5007508F607760874020318B9
:100DC000E22EE32EE42EF60176088E31A826863137
:100DD000CC2E49080319ED2EEE2ECC2EC901760833
:100DE0000800F601F701721CF62EF72EFB2E740890
:100DF000F6077508F73D0130F435F50D890BFC2E2B
:100E00000130F336F20C890B012F72087304031DB5
:100E10000A2F0B2FF32E7708F3007608F200080054
:100E200024008F0190010430910086308D00E8305D
:100E30008C000D082000DF0024000C082000DE00DC
:100E40002E0010101A140F30F2000E30F3008E3105
:100E500023268731053024008E00080000308B1BCC
:100E60000130F700750830009B0074089A0076087E
:100E70009C001E171E158B1355309F00AA309F0033
:100E80009E149E18442F452F412F1E11770C031CD2
:100E90008B1303188B17080020004C08031D512FDB
:100EA000522F622F8E1A552F562F692F4130F20084
:100EB000EE30890B592FF20B592F00322000CC0154
:100EC000CC0A692F8E1E652F662F692FCC01CA01AF
:100ED000CA0A080020004D08031D6F2F702F802FB5
:100EE0000D1A732F742F872F4130F200EE30890BCB
:100EF000772FF20B772F00322000CD01CD0A872FFC
:100F00000D1E832F842F872FCD01C901C90A080028
:100F10001E302000A8002808A0000530A9002908DC
:100F2000A1000330AA002A08A2001930AB002B0848
:100F3000A3000230AC002C08A400A501A601A70163
:100F4000013082318622873108000F3023001005DE
:100F5000F200083072060319AE2FAF2FB82F0F30F2
:100F60001005F2000B307206031DB72FB82FB92FF2
:100F700091150F1CBC2FBD2FB92F0C0808008E3106
:100F8000432687318431B62487318E318B268731D1
:100F90008E31E62687318F31BD2787318E31F3269A
:100FA00087318731102787318E31D9268731080064
:100FB0002000A0000730F400F030F5002008F90010
:100FC0007908F60087312E2787310830F400F03099
:100FD000F5007808F9007908F60087312E27873167
:100FE00008000930F200F030F3008E31B42687316A
:100FF000AA3A0319FC2FFE2F0130FF2F0030080002
:101C1C000800080025008E17080024000E14080088
:101C2C0024000E1008008E3110268E3108002E0074
:101C3C000C108E31CC268E31080073082000DD008C
:101C4C007208DC00080073082000DB007208DA0060
:101C5C000800640080010131890B302E00348F3173
:101C6C0001278E3120001613CB0108008F312E274F
:101C7C008E3120001613CB0108002F00960197011E
:101C8C00980199019A019B0108000630F200F0308E
:101C9C00F3008E31B4268E3108000530F200F0309E
:101CAC00F3008E31B4268E3108000430F200F0308F
:101CBC00F3008E31B4268E3108000730F200F0307C
:101CCC00F3008E31B4268E3108000830F200F0306B
:101CDC00F3008E31B4268E3108000130F200F03062
:101CEC00F3008E31B4268E3108000230F200F03051
:101CFC00F3008E31B4268E3108000330F200F03040
:101D0C00F3008E31B4268E310800623031008D0024
:101D1C008F01910102309300920108007A08200093
:101D2C00A1002108F8007B088731D8278E310800E4
:101D3C002000D801D701D601C201C301CD01CC01CD
:101D4C00CB010800F3007308F2000330F235FF3EBC
:101D5C00031DAC2E7235200096000800730830006D
:101D6C009B0072089A001E171E1400000000300021
:101D7C001C0808002300901AC42EC52ECB2E8F01F0
:101D8C0028309000910103308D00080020005A0883
:101D9C005B040319D22ED32ED82E5B088A005A0866
:101DAC000A008E3108002E000C100B140E30F200BD
:101DBC000E30F3008E3129268E312E0016140800B9
:101DCC00803027008E00FF308D00C0308C00240046
:101DDC001F08F33904389F000800013025009000DB
:101DEC008F019101FF308D008C012E0090108030FE
:101DFC0025008E00080055303D008F00AA308F0062
:101E0C000F103E00960155303D008F00AA308F0018
:101E1C000F14080020004B080319152F162F1A2F2A
:101E2C008E3135268F311E2F0130F0007008D7000F
:101E3C00080000308F3180278F317208F60073084C
:101E4C00F7000E30F736F60C890B282F76080800B1
:101E5C0055303D008F00AA308F000F103E009601C8
:101E6C0055303D008F00AA308F000F1408005530FC
:101E7C003D008F00AA308F000F100E303E009600F0
:101E8C0055303D008F00AA308F000F140800F4016C
:101E9C00F40A200051088631C7268F31F9007908E1
:101EAC002000D100510886319A268F310800240079
:101EBC000E1D612F622F692F0E1071088D00700896
:101ECC008C000E146D2F71088D0070088C000800AA
:101EDC0003302000A3002308F40052088631C726E3
:101EEC008F312000A4002408D200520886316D26C0
:101EFC008F310800F500750821009E00931713130D
:101F0C0013140000210013188C2F8D2F882F0D080F
:101F1C00F3000C08F2000800F500F401751C972F73
:101F2C00982F9C2F7208F3007308F4070310F20D1E
:101F3C000310F50C7508031DA42FA52F942F7408FE
:101F4C0008007308F5007208F400F536F40CF53649
:101F5C00F40C740827008D0072080339F400053066
:101F6C00F435FF3E031DB62F74358C00080022009B
:101F7C008E018F0190019101920193018D0121003D
:101F8C009E019B0194019501960197019A0199017B
:101F9C009801803093009D0108007A082000A7006A
:101FAC002708A0004E08A8002808A1005008A90086
:101FBC002908A2004F08AA002A08A3007B08813137
:101FCC00E8218F3108002E00101020005F08F1006E
:101FDC005E08F0008F315D278F3120005C085D04B6
:101FEC000319F92FFA2FFF2F5D088A005C080A00ED
:041FFC008F31080019
:020000040001F9
:0A000E00EC3FFF379F3FFF3FFF3F2D
:00000001FF
