:020000040000FA
:0400000080314328E0
:1000060008007E1480312E00161C0A280B2813289F
:100016000C1C0E280F2813288F31672780314128A2
:100026000B1F162817284128991C1A281B28202838
:100036008F1C1E281F2820284128191C2328242805
:1000460029280F1C27282828292841281A1C2C284B
:100056002D283528101C30283128352887310027CF
:10006600803141289A1C382839284128901C3C2880
:100076003D2841288F316D27803141287E100900A7
:1000860080314528F0308400873085006130860055
:10009600003087000E308F318B278031F801F9014F
:1000A600FA0120308400003085002A308F31852700
:1000B60080317E10200082312B2A0730F300703009
:1000C600F4008F31C02780312000CC004C08F500A9
:1000D6000830F3007030F4008F31C02780312000E3
:1000E600CD004D08F6004B088A004A080A00803108
:1000F6002000CE004E08D8000630F3007030F40021
:100106008F31C02780312000CC004C08F5005808FC
:10011600CD004D08F6004B088A004A080A008031D7
:100126002000CE004E08D2000530F3007030F400F7
:100136008F31C02780312000CC004C08F5005208D2
:10014600CD004D08F6004B088A004A080A008031A7
:100156002000CE004E08D3000430F3007030F400C7
:100166008F31C02780312000CC004C08F5005308A1
:10017600CD004D08F6004B088A004A080A00803177
:100186002000CE004E08D4000330F3007030F40097
:100196008F31C02780312000CC004C08F500540870
:1001A600CD004D08F6004B088A004A080A00803147
:1001B6002000CE004E08D5000230F3007030F40067
:1001C6008F31C02780312000CC004C08F50055083F
:1001D600CD004D08F6004B088A004A080A00803117
:1001E6002000CE004E08D6000130F3007030F40037
:1001F6008F31C02780312000CC004C08F50056080E
:10020600CD004D08F6004B088A004A080A008131E5
:100216002000CE004E08DA000930F3007030F400FA
:100226008F31C02780312000CC004C08D7000A301F
:10023600F3007030F4008F31C02780312000CC00ED
:100246004C08D9005708CC004C08F5005908CD00D9
:100256004D08F6004B088A004A080A008131200042
:10026600CE004E08D8005A08CC004C08F5005808B5
:10027600CD004D08F6004B088A004A080A00813175
:100286002000CE004E08DA0067295A08CC004C0838
:10029600F5000130CD004D08D9075908CE00CF0131
:1002A6004E08F3004F08F4008F31C027803120003C
:1002B600D0005008F6004B088A004A080A0081312F
:1002C6002000D1005108DA0057085902031C6C2996
:1002D6006D2948295A0808000A30F3000030F40056
:1002E60020003308F6003208F50083313B238131C4
:1002F60073082000CE004E08D4000A30F300003008
:10030600F4003308F6003208F5008331F823813112
:1003160073082000CE004E08D5000230F6000030EB
:10032600F70054088531772581312000CE004E082C
:10033600D40002305406031DA129A229B62904308F
:100346005502031CA729A829A929D5010330F600BF
:100356000030F70055088531772581312000CE0021
:100366004E08D500C2290930F6000030F7005508BE
:100376008531772581312000CE004E08D5000A3020
:10038600F3000030F4003508F6003408F500833138
:100396003B23813173082000CE004E08D2000A307C
:1003A600F3000030F4003508F6003408F500833118
:1003B6003B23813173082000CE004E08D300053060
:1003C600F6000030F700520885317725813120008C
:1003D600CE004E08D2000930F6000030F700530870
:1003E6008531772581312000CE004E08D30055088F
:1003F600CE00CF015408D000D1015008F3005108B7
:10040600F4000A30F5000030F6008531E025813130
:1004160020004E087307B2004F08743DB30053081E
:10042600CE00CF015208D000D1015008F300510888
:10043600F4000A30F5000030F6008531E025813100
:1004460020004E087307B4004F08743DB50008003D
:1004560057302000DB000F30DC008631E826823181
:100466008631CF2682318B170B17CF30F30002303F
:10047600F4008F3173278231D230F3000730F40055
:100486008F31792782318F31B4278231200093153D
:1004960013163E00CF154F16200046080319542A9E
:1004A600552A962AC60187315927823120004B08E2
:1004B600E4004A08E30063080139DE00DE0E160890
:1004C6005E06EF395E0696006408DF006308DE000C
:1004D6005F0DDF0CDE0C5E080139E000E00EE00D7A
:1004E60016086006DF39600696008F316227823172
:1004F60076082000E2007508E1006408803ADE0014
:100506006608803A5E02031D8A2A6508630203189C
:100516008D2A8E2A962A7808031D922A932A962ACD
:100526008631B5268231780803199A2A9B2AB52A7C
:10053600863102268231200028087302DE0029084F
:10054600743BDF0000305F02043003195E02031CB7
:10055600AD2AAE2AB52AFF30F3000330F400873106
:10056600432782312E001610200047080319BC2AA3
:10057600BD2ACA2AC701FA01171684314C248231D2
:10058600CF30F3000230F4008F31732782312E0012
:1005960016144F2A8031432803102000961F031497
:1005A6000318D62AD92A20009617DB2A200096138C
:1005B6002B08F1002A08F000AA0A0319AB0A7108F1
:1005C600803AF2006E08803A7202031DEC2A6D082A
:1005D6007002031CEF2AF02AF72A2000AA01AB01B9
:1005E6000130F0007008C60020003708803AF0009D
:1005F60080307002031D012B3B3036020318042B9A
:10060600052B0B2B01302000B6070030B73D3A2BE7
:100616002000B601B7013508803AF000803070023C
:10062600031D172B3B30340203181A2B1B2B212BCF
:1006360001302000B4070030B53D3A2B2000B4014C
:10064600B5013308803AF00080307002031D2D2B6F
:10065600173032020318302B312B372B0130200094
:10066600B2070030B33D3A2B2000B201B3010800B7
:100676002000CB01F41F402B412B482BF309F40932
:10068600F30A0319F40ACB01CB0AF61F4B2B4C2BAA
:10069600552BF509F609F50A0319F60A0130F70094
:1006A6007708CB06CC01CD017308740403195C2BC3
:1006B6005D2B8C2BCA01CA0A692B0130F335F40D68
:1006C600890B612B0130F7007708CA07F41F6C2BE2
:1006D6006D2B602B0130CC35CD0D890B6E2B74083C
:1006E6007602031D782B73087502031C7B2B7C2B6B
:1006F600812B7308F5027408F63B4C140130F4366E
:10070600F30C890B822B0130CA02031D8B2B8C2B19
:100716006D2B4B080319902B912B962BCC09CD09E9
:10072600CC0A0319CD0A4D08F4004C08F300080062
:100736000A30F3000030F40020006808F60067086D
:10074600F50083313B23833173082000CE004E0829
:10075600D3000A30F3000030F4006808F60067089A
:10076600F5008331F823833173082000CE004E084C
:10077600D2000530F6000030F700530885317725A2
:1007860083312000CE004E08D30005305306031DEA
:10079600CD2BCE2BD32B3230E7000030E800F72BE1
:1007A6000930F6000030F70052088531772583318D
:1007B6002000CE004E08D2005208CE00CF015308CA
:1007C600D000D1015008F3005108F4000A30F500BA
:1007D6000030F6008531E025833120004E0873078E
:1007E600E7004F08743DE80008002000CB01F61F23
:1007F600FD2BFE2B052CF509F609F50A0319F60A59
:10080600CB01CB0AF41F082C092C0E2CF309F40992
:10081600F30A0319F40A730874040319132C142C2D
:100826003D2CCA01CA0A202C0130F335F40D890B80
:10083600182C0130F7007708CA07F41F232C242C44
:10084600172C74087602031D2A2C73087502031CE4
:100856002D2C2E2C322C7308F5027408F63B013031
:10086600F436F30C890B332C0130CA02031D3C2CE1
:100876003D2C242C4B080319412C422C472CF509FE
:10088600F609F50A0319F60A7608F4007508F30066
:1008960008002000B801B9010030F300F4008F31E0
:1008A600A92784313130F3000530F4008F317327E6
:1008B60084318E2C86317D26843186315F268431C3
:1008C6007A080319672C682C752CFA010130200070
:1008D600B8070030B93D0030F300F4008F31A92786
:1008E60084318E2C79080319792C7A2C8E2CF901F7
:1008F6000030F300F4008F31A92784312000390835
:10090600D7003808D6008531AE2584310130200065
:10091600B8070030B93D20003908803AD800803049
:100926005802031D982C04303802031C9B2C9C2C67
:100936005D2C2E000C100800F400740823008C00B7
:10094600901FA62CA72CA82CE92C0F301005F3001D
:10095600083073060319B02CB12CC72C0F301005C4
:10096600F3000B3073060319B92CBA2CC72C1016DA
:100976002E000F1CBF2CC02CBB2C23000F19C42C1F
:10098600C52CE92C0F08E92C0F301005F3000830B0
:1009960073060319CF2CD02CD92C0F301005F30079
:1009A6000B307306031DD82CD92CE92C0F18DC2C20
:1009B600DD2CD92C0F0C890C0139F30011081F39D5
:1009C6007304031DE72CE82CDD2C11080800200019
:1009D6009A019901960197019801073095000F3009
:1009E6009100FF309200FF309300FF309400FF30FB
:1009F6003E00D900C730CE00EF30C3000730E40018
:100A06000F30B800DA01E501C401B901CF01E601F2
:100A1600BA01C501D001DB01FF30BB00FF30C600C3
:100A2600FF30D100FF30DC000730E700FF30BC00AC
:100A3600FF30C700FF30D200FF30DD000730E8008E
:100A46000C303D0090001330C50014303E00A3006A
:100A56001530A40014303D00C6000800622D0310B6
:100A6600961F03140318382D3B2D200096173D2D95
:100A760020009613762D0310161F03140318442D19
:100A8600472D20001617492D20001613762D03102A
:100A9600961E03140318502D532D20009616552D1F
:100AA60020009612762D0310161E031403185C2DD3
:100AB6005F2D20001616612D20001612762D2000BF
:100AC6003908003A0319682D762D3808003A0319BB
:100AD600322D013A03193E2D033A03194A2D013AE4
:100AE6000319562D762D08002000CC004C08CA00AC
:100AF600CB014A08F3004B08F4008F31A927853152
:100B060086317D26853186315F2685317908031940
:100B16008D2D8E2DA52DF90101302000CA004A0821
:100B2600CC077708803ACB0080304B02031D9D2D01
:100B36004C0876020318A02DA22D2000792D200046
:100B4600CC01792D7A080319A92DAA2D832DFA0136
:100B560020004C0808008F3154278531C22D813181
:100B66006F218531D62D87318F278531D62D83315B
:100B76009B238531D62D87317E278531D62D2000C2
:100B86005708003A0319C82DD62D5608003A0319FE
:100B9600B22D013A0319B62D033A0319BA2D013ABB
:100BA6000319BE2DD62D0030F300F4008F31A9278E
:100BB60085318F315127853108002000CA01CB01CC
:100BC600731CE62DE72DEC2D75082000CA07760864
:100BD600CB3D0130F535F60D890BED2D0130F436A0
:100BE600F30C890BF22D73087404031DFB2DFC2DE9
:100BF600E32D20004B08F4004A08F3000800240007
:100C06008E140C082000CA004A08D20024000D08E1
:100C16002000CA004A08D1005208CA00CB01510878
:100C2600CC00CD014C08CD00CC014A084C04CF00C5
:100C36004B084D04D0005008F4004F08F30008009C
:100C460000308B1B0130F600740830009B007308DF
:100C56009A0075089C001E171E158B1355309F00B1
:100C6600AA309F009E149E18392E3A2E362E1E113B
:100C7600760C031C8B1303188B17080024008F01B6
:100C860090010430910086308D00E8308C000D080C
:100C96002000C50024000C082000C4002E001010FF
:100CA6001A14FF30F3000730F4008F3173278631B2
:100CB600013024008E00080020004808031D642E21
:100CC600652E752E8E1A682E692E7C2E2130F30025
:100CD6007630890B6C2EF30B6C2E00322000C80187
:100CE600C80A7C2E8E1E782E792E7C2EC801F9011C
:100CF600F90A080020004908031D822E832E932E30
:100D06000D1A862E872E9A2E2130F3007630890B07
:100D16008A2EF30B8A2E00322000C901C90A9A2EA8
:100D26000D1E962E972E9A2EC901FA01FA0A080070
:100D36000F3023001005F300083073060319A42EA4
:100D4600A52EAE2E0F301005F3000B307306031DD3
:100D5600AD2EAE2EAF2E91150F1CB22EB32EAF2E8A
:100D66000C080800F801F80A8731C2278631FA30E4
:100D7600F3000030F4008731432786318F315E2738
:100D860086318F315A2786312000CA00CB014A08A6
:100D9600A8004B08A90008008F31982786318431B6
:100DA600EA2486318F31A02786318F31F3278631A9
:100DB60087312D2786318731172786318F31E627F0
:100DC6008631863141268631080020005C08CB003A
:100DD6005B08CA00803160208631F7007708200062
:100DE600DD000030F3007030F4005D08F70077088E
:100DF600F50086312326863108002E0010102000CB
:100E06004508F1004408F0008731A027873120000B
:100E1600420843040319102F112F162F43088A0086
:100E260042080A00873108000130250090008F0132
:100E36009101FF308D008C012E0090109A14FE3027
:100E4600F3000730F4008F317F278731803025008B
:100E56008E00080022008E018F01900191019201FF
:100E660093018D0121009E019B019401950196013C
:100E760097019A0199019801803093009D0108001D
:100E86007408F6007308F500F636F50CF636F50C20
:100E9600750827008D0073080339F5000530F53510
:100EA600FF3E031D522F75358C0008000030873138
:100EB6006C27873173082000CC007408CD000E30F3
:100EC600CD36CC0C890B632F4C08CA004D08CB00DD
:100ED6000800F600760821009E00931713131314DA
:100EE600000021001318782F792F742F0D08F400B5
:100EF6000C08F30008000330F6000030F70020006D
:100F060065088531772587312000CD00CE014D0853
:100F1600E5004E08E60008000130F6000030F70054
:100F2600200030088531772587312000CD00CE019D
:100F36004D08B0004E08B100080024000E1DA42F75
:100F4600A52FAC2F0E1071088D0070088C000E14A2
:100F5600B02F71088D0070088C0008008731E127DA
:100F660087318F314B27873100302000A7000030B2
:100F7600A6000030A5000030A400F8010800553096
:100F86003D008F00AA308F000F100E303E009600F5
:100F960055303D008F00AA308F000F1408007808E6
:100FA6000319D62FD72FDB2F8731B1278731E02FB3
:100FB6000130F00070082000C700080055303D00E1
:100FC6008F00AA308F000F103E00960155303D006D
:100FD6008F00AA308F000F140800FF34FF34FF344F
:100FE600FF340234003419340034033400341E3420
:0A0FF6000034053400340800080040
:101E960025008E13080025008E17080024000E1456
:101EA600080024000E1008007508760608008F3119
:101EB60091278F3108008F314E278F3108000A3065
:101EC600F5000030F60008002E000C108F31CC27EC
:101ED6008F3108002E0090108F31D9278F310800DE
:101EE60074082000C3007308C200080074082000AC
:101EF600C1007308C000080074082000BB00730806
:101F0600BA000800640080010131890B862F003475
:101F1600FE0012001E00FE0B8C2F003425000C085C
:101F2600F3007308F400740808002F009601970167
:101F3600980199019A019B010800623031008D00D9
:101F46008F01910102309300920108007308F50099
:101F56000330F535FF3E031DAC2F75352000960086
:101F660008002300901AB82FB92FBF2F8F012830F1
:101F76009000910103308D000800740830009B002A
:101F860073089A001E171E140000000030001C087B
:101F960008002000400841040319D22FD32FD82F60
:101FA60041088A0040080A008F31080020003A08DC
:101FB6003B040319DF2FE02FE52F3B088A003A0880
:101FC6000A008F3108002E000C100B140330F300AA
:101FD6000030F4008F3179278F312E001614080057
:101FE600803027008E00FF308D00C0308C0024002A
:0A1FF6001F08F33904389F000800AB
:020000040001F9
:0A000E00EC3FFF379F3FFF3FFF3F2D
:00000001FF
