:020000040000FA
:1000000080315528080008007E1480312E00161C0F
:100010000A280B2813280C1C0E280F2813288A31B5
:100020005822803153280B1F162817285328991C53
:100030001A281B2820288F1C1E281F2820285328F8
:10004000191C232824282A280F1C272828282A2876
:1000500053285328191E2D282E2839280F1E3128E1
:100060003228392821005E088A005D080A008031A4
:100070005328991E3C283D2848288F1E4028412897
:10008000482821005C088A005B080A008031532858
:100090001A1C4B284C282928101C4F285028292886
:1000A0008C312A2480317E10090080315728FA01D2
:1000B000FB01203084000030850025308A31882201
:1000C0008031A03084000030850026308A318822BB
:1000D00080317E10200080316D288C319024803159
:1000E0008A31E42280318631782680318A31952226
:1000F00080318B170B17BD30F2000F30F3008A31BF
:100100005E2280316730F2000B30F3008A318222A8
:1001100080318B31172380312000931513163E0058
:10012000CF154F160B1320003D0803199828992866
:100130009D28BD018A31F522803120003708210039
:10014000C60046082000B40036082100C600460854
:100150002000B30035082100C60046082000B20088
:100160003F080319B428B528BB283F083C020318F0
:10017000BA28BB2836293C080319BF28C0283629CD
:1001800001302100C60046082000BF000B178B314C
:10019000762380312100C60046082000B0003008D8
:1001A00001392100C600C60E2000160821004606AF
:1001B000EF39460620009600303601392100C6008E
:1001C000C60EC60D2000160821004606DF39460679
:1001D000200096008131B72180312100C6004608F9
:1001E0002000B10033082100C60046082000C900E5
:1001F00032082100C70047082000CA00310821004A
:10020000C80048082000CB0030082100C900490878
:100210002000CC0034088231C4228031200039080B
:100220003002031C142915291B2931083A0203182E
:100230001A291B2937293803031D1F29202937298B
:100240002F08031D24292529372933082100C6003A
:1002500046082000C50032082100C70047082000DA
:10026000C60034088F313A27803137290B172E000A
:10027000161020002F0803193E293F2998292E0027
:100280001614200032082100C600C70120003408DF
:100290002100C800C9014808F4004908F5001030E1
:1002A000F6000E30F7008D310425803174082100EE
:1002B000CA007508CB00200033082100CC00CD0116
:1002C0004C08F4004D08F5003C30F6000030F70013
:1002D0008D3104258031740821004A07CE0075084D
:1002E0004B3DCF0046084E07D00047084F3DD10098
:1002F0002000240821005002D200200025082100FF
:10030000513BD3005308803AD40080305402031D7F
:100310008D2920003B0821005202031C90299129BD
:100320009B298B31852380312000161763009B2980
:100330002E00161463002E00161020003E0803192C
:10034000A229A329B229BE018F317B2780310B134B
:10035000BD30F2000F30F3008A315E2280310B177E
:100360002E000C102E0016149228803155282300E0
:100370000F0C890C0139F40011081F397404031D96
:10038000C229C329B72911141118C729C829C4299A
:100390000F0C890C0139F40011081F397404031D76
:1003A000D229D329C8299A308731102781312300D7
:1003B0000F0C890C0139F40011081F397404031D56
:1003C000E229E329D7290130873110278131230021
:1003D0000F0C890C0139F40011081F397404031D36
:1003E000F229F329E72991149118F729F829F4291A
:1003F0000F0C890C0139F40011081F397404031D16
:10040000022A032AF8299B308731102781312300E3
:100410000F0C890C0139F40011081F397404031DF5
:10042000122A132A072A8C315B248131F4007408C4
:10043000F50023000F0C890C0139F40011081F3955
:100440007404031D242A252A192A91161116111A3B
:100450002A2A2B2A272A0F0C890C0139F4001108AB
:100460001F397404031D352A362A2B2A1115111938
:100470003A2A3B2A372A751F3E2A3F2AB7290F0CF2
:10048000890C0139F40011081F397404031D492A2D
:100490004A2A3F2A111411184E2A4F2A4B2A0F0CB0
:1004A000890C0139F40011081F397404031D592AFD
:1004B0005A2A4F2A9A3087311027813123000F0C96
:1004C000890C0139F40011081F397404031D692ACD
:1004D0006A2A5E2A003087311027813123000F0CF1
:1004E000890C0139F40011081F397404031D792A9D
:1004F0007A2A6E2A911491187E2A7F2A7B2A0F0C61
:10050000890C0139F40011081F397404031D892A6C
:100510008A2A7F2A9B3087311027813123000F0CD4
:10052000890C0139F40011081F397404031D992A3C
:100530009A2A8E2A8C315B248131F4007408F500EC
:1005400023000F0C890C0139F40011081F397404C1
:10055000031DAB2AAC2AA02A91161116111AB12A32
:10056000B22AAE2A0F0C890C0139F40011081F3988
:100570007404031DBC2ABD2AB22A11151119C12AFF
:10058000C22ABE2A750808002000D1000A30F200F5
:10059000F030F3008B310B2382312000CD00CE01EF
:1005A0004D08D2004E08D3005308F5005208F4005D
:1005B0000530F6000030F7008D31042582317408D3
:1005C0000B3E2000D400F030753DD5005208530496
:1005D0000319EB2AEC2A0B2B5408FE3EF200FF30E5
:1005E000553DF3008B310B23823120004B06031D58
:1005F000FA2AFB2A0B2B5408FF3EF200FF30553D30
:10060000F3008B310B23823120004C06031D092B94
:100610000A2B0B2BC72B0130F200F030F3008B318B
:100620000B2382312000CD00CE014D08F4004E088E
:10063000F5000530F6000030F7008D3104258231D9
:100640007408063E2000CF00F030753DD0005508FC
:100650005002031D2D2B54084F020318302B312B51
:10066000402B0B30D400F030D5000930C500F030FD
:10067000C6005530CD004D08C7008D31452582316B
:1006800020005508C6005408C5005108CD004D088B
:10069000C7008D314525823120005408013EC50038
:1006A0000030553DC6004908CD004D08C7008D31CA
:1006B0004525823120005408023EC5000030553DDA
:1006C000C6004A08CD004D08C7008D31452582314E
:1006D00020005408033EC5000030553DC6004B08BD
:1006E000CD004D08C7008D314525823120005408CA
:1006F000043EC5000030553DC6004C08CD004D08F5
:10070000C7008D31452582310A302000C500F03008
:10071000C6000530F2000030F3005408FA3EF40041
:100720000F30553DF5008E31BF2682317208200012
:10073000CD004D08C7008D314525823100302000A5
:10074000C500F030C6000530F2000030F300540858
:10075000FA3EF4000F30553DF5008E31BF26823150
:1007600072082000CD007308CE000030F200F03097
:10077000F3008B310B23823120004D07CF0052084C
:100780004F02D0005008C7008D3145258231080046
:100790000A30F2000030F30020003708D100D20107
:1007A0005108F4005208F50085310C258331720898
:1007B0002000D3005308D6000A30F2000030F300C6
:1007C0003708D100D2015108F4005208F5008631F3
:1007D0002526833172082000D3005308D700023049
:1007E000D1005108F40056088D316925833120006D
:1007F000D2005208D60002305606031D002C012CF0
:10080000152C04305702031C062C072C082CD7018A
:100810000330D1005108F40057088D316925833128
:100820002000D2005208D700212C0930D1005108F5
:10083000F40057088D31692583312000D200520819
:10084000D7000A30F2000030F3003608D100D201A0
:100850005108F4005208F50085310C2583317208E7
:100860002000D3005308D4000A30F2000030F30017
:100870003608D100D2015108F4005208F500863143
:100880002526833172082000D3005308D500053097
:10089000D1005108F40054088D31692583312000BE
:1008A000D2005208D4000930D1005108F400550894
:1008B0008D31692583312000D2005208D5000A30DD
:1008C000D1005108F20056088B31E9238331200012
:1008D0005707D2005208B7000A30D1005108F20081
:1008E00054088B31E923833120005507D200520888
:1008F000B6008A31F522833108002000D200520868
:100900000319832C842C8C2C0A30C500F030C600CF
:10091000C7018D314525843101302000C500F030FC
:10092000C6004908D1005108C7008D3145258431E2
:1009300002302000C500F030C6004A08D10051083E
:10094000C7008D314525843103302000C500F030CB
:10095000C6004B08D1005108C7008D3145258431B0
:1009600004302000C500F030C6004C08D10051080A
:10097000C7008D314525843105302000C500F03099
:10098000C6004D08D1005108C7008D31452584317E
:1009900006302000C500F030C6004E08D1005108D6
:1009A000C7008D314525843107302000C500F03067
:1009B000C6004F08D1005108C7008D31452584314C
:1009C00008302000C500F030C6005008D1005108A2
:1009D000C7008D314525843109302000C500F03035
:1009E000C600AA30D1005108C7008D314525843199
:1009F00000302000C500F030C60049084A074B0708
:100A00004C074D074E074F075007D1005108C7004C
:100A10008D314525843108002000C601F31F112DBA
:100A2000122D192DF209F309F20A0319F30AC6016E
:100A3000C60AF51F1C2D1D2D262DF409F509F40AF3
:100A40000319F50A0130F6007608C606C701C80189
:100A50007208730403192D2D2E2D5D2DC501C50AB5
:100A60003A2D0130F235F30D890B322D0130F600AD
:100A70007608C507F31F3D2D3E2D312D0130C735BA
:100A8000C80D890B3F2D73087502031D492D72088F
:100A90007402031C4C2D4D2D522D7208F402730864
:100AA000F53B47140130F336F20C890B532D01301E
:100AB000C502031D5C2D5D2D3E2D46080319612DD9
:100AC000622D672DC709C809C70A0319C80A480853
:100AD000F3004708F20008000A30F200F030F3009B
:100AE0008B310B2385312000C5000830F200F03037
:100AF000F3008B310B2385312000C6000730F20054
:100B0000F030F3008B310B2385312000C700063015
:100B1000F200F030F3008B310B2385312000C80048
:100B20000530F200F030F3008B310B2385312000CB
:100B3000C9000430F200F030F3008B310B23853113
:100B40002000CA000330F200F030F3008B310B2399
:100B500085312000CB000230F200F030F3008B3101
:100B60000B2385312000CC000130F200F030F3007F
:100B70008B310B23853120004C074B074A0749076F
:100B80004807470746074507CD004D08F40074089D
:100B900008000A30F2000030F30020003A08CD00CF
:100BA000CE014D08F4004E08F50085310C25853145
:100BB00072082000CF004F08D1000A30F200003048
:100BC000F3003A08CD00CE014D08F4004E08F500C0
:100BD00086312526853172082000CF004F08D000CD
:100BE0000530CD004D08F40051088D31692585315F
:100BF0002000CE004E08D10005305106031D012E05
:100C0000022E072E3230CD004D08BA00202E0930BA
:100C1000CD004D08F40050088D3169258531200044
:100C2000CE004E08D0000A30CD004D08F200510829
:100C30008B31E923853120005007CE004E08BA00E1
:100C40003A088D31EF2585310800F801F51F292E6E
:100C50002A2E312EF409F509F40A0319F50AF801D0
:100C6000F80AF31F342E352E3A2EF209F309F20A50
:100C70000319F30A7208730403193F2E402E692EDC
:100C8000F701F70A4C2E0130F235F30D890B442E93
:100C90000130F6007608F707F31F4F2E502E432E33
:100CA00073087502031D562E72087402031C592E18
:100CB0005A2E5E2E7208F4027308F53B0130F336AB
:100CC000F20C890B5F2E0130F702031D682E692E8E
:100CD000502E780803196D2E6E2E732EF409F50927
:100CE000F40A0319F50A7508F3007408F200080005
:100CF0008C3175248631003A03197F2E802EC12E47
:100D00008731EB278631003A0319872E882EC12EB2
:100D10008A31D42286312000D8005808BC008A319C
:100D2000CC2286312000D8005808AC008A31DC2261
:100D300086312000D8005808BB008A31B4228631A1
:100D40002000D8005808BA008A31AC228631200031
:100D5000D8005808B9008A31A42286312000D80072
:100D60005808B8008A31BC2286312000D8005808C3
:100D7000B7008A31C42286312000D8005808B60056
:100D8000C42E8E311D268631080020009A0199015B
:100D9000960197019801073095000F309100FF30C0
:100DA0009200BF309300FF309400FF303E00D90026
:100DB0004730CE00EF30C3000730E4000F30B800FA
:100DC000DA01E501C401B901CF01E601BA01C501AB
:100DD000D001DB01FF30BB00FF30C600FF30D10087
:100DE000FF30DC000730E700FF30BC00FF30C700F9
:100DF000FF30D200FF30DD000730E8000C303D004E
:100E000090001730CB001330C50014303E00A30013
:100E10001530A4001030A60014303D00C6000800B4
:100E2000F300730823008C00901F172F182F192F21
:100E30005A2F0F301005F200083072060319212FC7
:100E4000222F382F0F301005F2000B3072060319D5
:100E50002A2F2B2F382F10162E000F1C302F312F3A
:100E60002C2F23000F19352F362F5A2F0F085A2FEA
:100E70000F301005F200083072060319402F412F81
:100E80004A2F0F301005F2000B307206031D492F58
:100E90004A2F5A2F0F184D2F4E2F4A2F0F0C890C07
:100EA0000139F20011081F397204031D582F592F00
:100EB0004E2F110808008C2F0310961F03140318DF
:100EC000622F652F20009617672F20009613A32FFF
:100ED0000310161F031403186E2F712F200016170E
:100EE000732F20001613A32F0310961E031403184C
:100EF0007A2F7D2F200096167F2F20009612A32F89
:100F00000310161E03140318862F892F20001616AF
:100F10008B2F20001612A32F20004008F000F101B3
:100F20007108003A0319952FA32F7008003A03198E
:100F30005C2F013A0319682F033A0319742F013A01
:100F40000319802FA32F08002000CF000030C50018
:100F5000F030C6000830F200F030F3008B310B2384
:100F600087312000CA000730F200F030F3008B31E7
:100F70000B2387312000CB000030F200F030F3006B
:100F80008B310B2387312000CC004B084C02CD0065
:100F90004A084D024F074907CE004E08C7008D3161
:100FA0004525873107302000C500F030C6004F08C6
:100FB000CA004A08C7008D31452587310830200016
:100FC000C500F030C6004908CA004A08C7008D3184
:100FD0004525873108000030F200F030F3008B31F6
:100FE0000B238731F5007508F60085316C258731B4
:100FF00076060319FC2FFE2F0130FF2F003008006A
:10149200080024000E14080024000E1008008C31ED
:1014A20041248A31080022001D121D1608002E0058
:1014B2000C108B3123238A31080073082000DF00CF
:1014C2007208DE00080073082100D6007208D500F9
:1014D200080073082100DA007208D90008007308B6
:1014E2002100D8007208D700080073082100DC0030
:1014F2007208DB00080073082100DE007208DD00BC
:10150200080073082000DD007208DC000800640097
:1015120080010131890B892A00348B3158238A31A9
:1015220020001613AF0108008B3185238A31200079
:101532001613AF0108002F00960197019801990137
:101542009A019B0108000630F200F030F3008B3163
:101552000B238A3108000530F200F030F3008B31A2
:101562000B238A3108000430F200F030F3008B3193
:101572000B238A3108000730F200F030F3008B3180
:101582000B238A3108000830F200F030F3008B316F
:101592000B238A3108000130F200F030F3008B3166
:1015A2000B238A3108000230F200F030F3008B3155
:1015B2000B238A3108000330F200F030F3008B3144
:1015C2000B238A3108002000BF01BE01BD01A40126
:1015D200A501AF010800623031008D008F01910139
:1015E200023093009201080020003608D000500813
:1015F200C90037088731A4278A310800F30073082D
:10160200F2000330F235FF3E031D032B723520003A
:1016120096000800730830009B0072089A001E179B
:101622001E140000000030001C0808002300901A5D
:101632001B2B1C2B222B8F01283090009101033091
:101642008D00080020005C085D040319292B2A2B59
:101652002F2B5D088A005C080A008B3108002E00DF
:101662000C100B140230F2000030F3008A31822297
:101672008B312E0016140800803027008E00FF30B8
:101682008D00C0308C0024001F08F33904389F00FD
:1016920008000130250090008F019101FF308D007C
:1016A2008C012E009010803025008E0008005530ED
:1016B2003D008F00AA308F000F103E00960155307A
:1016C2003D008F00AA308F000F14080020002F0861
:1016D20003196C2B6D2B712B8A318E228B31752B5A
:1016E2000130F0007008BE00080000308B31D723B3
:1016F2008B317208F6007308F7000E30F736F60CDD
:10170200890B7F2B7608080055303D008F00AA30E8
:101712008F000F103E00960155303D008F00AA3019
:101722008F000F14080055303D008F00AA308F0043
:101732000F100E303E00960055303D008F00AA304B
:101742008F000F140800F401F40A200038088D31CC
:1017520069258B312000CD004D08B80038088D3145
:1017620093258B31080024000E1DB82BB92BC02BFA
:101772000E1071088D0070088C000E14C42B7108B5
:101782008D0070088C00080003302000CD004D0849
:10179200F40039088D3169258B312000CE004E08C6
:1017A200B90039088D31C1258B310800F500750863
:1017B20021009E0093171313131400002100131825
:1017C200E32BE42BDF2B0D08F3000C08F2000800DA
:1017D200F500F401751CEE2BEF2BF32B7208F300CE
:1017E2007308F4070310F20D0310F50C7508031DBE
:1017F200FB2BFC2BEB2B740808007308F500720816
:10180200F400F536F40CF536F40C740827008D005C
:1018120072080339F4000530F435FF3E031D0D2C28
:1018220074358C00080022008E018F019001910115
:10183200920193018D0121009E019B01940195016A
:10184200960197019A0199019801803093009D01B8
:1018520008002E00101020006108F1006008F0005E
:101862008B31B4238C3120005E085F0403193A2CBB
:101872003B2C402C5F088A005E080A008C3108006D
:1018820022001908F0007B08A83E86008701700834
:1018920081000130F0007008FB0708307B02031C56
:1018A200532C542C552CFB010130F0007008200001
:1018B200C20708000F3023001005F200083072063C
:1018C2000319642C652C6E2C0F301005F2000B30BE
:1018D2007206031D6D2C6E2C6F2C91150F1C722C31
:1018E200732C6F2C0C0808000930F200F030F30062
:1018F2008B310B238C31F4007408F600F501F50AE4
:10190200AA3076060319862C872C8E2C5530760643
:1019120003198C2C8D2C8E2CF501750808008A3148
:101922009C228C318631C5268C318A31EC228C3155
:101932008B313D238C318C3114248C318B314A23F1
:101942008C318B3130238C318C31E6248C318E31C9
:10195200FB268C31080020002B08031DB12CB22C71
:10196200C12C0D1AB52CB62CC82C6230F200663090
:10197200890BB92CF20BB92C2000AB01AB0AC82C95
:101982000D1EC42CC52CC82CAB01AD01AD0A08003C
:1019920020002A08031DCE2CCF2CDE2C8E1AD22C2E
:1019A200D32CE52C6230F2006630890BD62CF20B78
:1019B200D62C2000AA01AA0AE52C8E1EE12CE22CCC
:1019C200E52CAA01AE01AE0A080024008F019001A5
:1019D2000430910086308D00E8308C000D08200024
:1019E200E10024000C082000E0002E0010101A1460
:1019F2000330F2000030F3008A315E228C31053070
:101A020024008E000800F801F901741C092D0A2D2A
:101A12000E2D7608F8077708F93D0130F635F70DF7
:101A2200890B0F2D0130F536F40C890B142D740837
:101A32007504031D1D2D1E2D062D7908F50078084D
:101A4200F40008000830200062020318292D2A2D14
:101A5200422D4308B03E86008701010822009A0009
:101A62000130F00070082000C30708304302031C55
:101A72003B2D3C2D3D2DC3010130F0007008E207E3
:101A8200442D2E001912080000308B1B013020005B
:101A9200C800460830009B002000450830009A002C
:101AA2002000470830009C001E171E158B1355306E
:101AB2009F00AA309F009E149E18602D612D5D2DFF
:101AC2001E112000480C031C8B1303188B170800EF
:101AD200F60076088A31FF228D318C31AC248D31AB
:101AE2008C31C9248D3120002E080319792D7A2DCD
:101AF2008B2DAE010130F5007508F60776087402E9
:101B02000318842D852D862DF60176088A31FF2251
:101B12008D316E2D2D0803198F2D902D6E2DAD0157
:101B2200760808002000CC000030C500F030C60066
:101B32000630F200F030F3008B310B238D312000A0
:101B4200C9000030F200F030F3008B310B238D31ED
:101B52002000CA0049084A024C07CB004B08C700C4
:101B62008D3145258D3106302000C500F030C6008C
:101B72004C08C9004908C7008D3145258D31080040
:101B82002000CC000030C500F030C6000530F20065
:101B9200F030F3008B310B238D312000C90000306F
:101BA200F200F030F3008B310B238D312000CA009C
:101BB20049084A024C07CB004B08C7008D31452526
:101BC2008D3105302000C500F030C6004C08C90038
:101BD2004908C7008D3145258D3108002000CC0011
:101BE2000030C500F030C6000430F200F030F300DF
:101BF2008B310B238D312000C9000030F200F03010
:101C0200F3008B310B238D312000CA0049084A02B0
:101C12004C07CB004B08C7008D3145258D31043070
:101C22002000C500F030C6004C08C9004908C700B2
:101C32008D3145258D31080005302000D300530831
:101C4200BC001E30D3005308AC000330D30053084D
:101C5200BB001930D3005308BA000230D300530836
:101C6200B900B801B701B6011E30D3005308C9004C
:101C72000530D4005408CA000330D5005508CB0003
:101C82001930D6005608CC000230D7005708CD00D4
:101C9200CE01CF01D001013084317D248E31080084
:101CA2002000DA008A314D228E31672E8331C8231B
:101CB2008E317E2E8B31A4238E317E2E8531C92525
:101CC2008E317E2E8B31C5238E317E2E20005A0816
:101CD200D800D9015908003A0319702E7E2E5808EF
:101CE200003A0319572E013A03195B2E033A0319DE
:101CF2005F2E013A0319632E7E2E8A314A228E31DB
:101D020000308A31FF228E3108007B08A03E860017
:101D12008701810122001D1D8F2E902E9B2E7B0894
:101D2200A03E86008701811421005A088A005908C2
:101D32000A008E3122009D1C9F2EA02EAB2E7B0806
:101D4200A03E860087010115210058088A00570825
:101D52000A008E317B08A03E860087010108031924
:101D6200B32EB42EBB2E210056088A0055080A0055
:101D72008E31BE2E8C3141248E310800F701F801DC
:101D8200720873040319C62EC72EF62EF901F90A3A
:101D9200D32E0130F235F30D890BCB2E0130F60034
:101DA2007608F907F31FD62ED72ECA2E0130F73543
:101DB200F80D890BD82E73087502031DE22E7208E6
:101DC2007402031CE52EE62EEB2E7208F402730851
:101DD200F53B77140130F336F20C890BEC2E01300F
:101DE200F902031DF52EF62ED72E7808F300770898
:101DF200F20008002E0099128630F2000E30F30035
:101E02008A3176228E312E0019122330F2000D30E3
:101E1200F3008A317C228E31083022009F009030FC
:101E22009D0004309E0019309B009C014930F20055
:101E32000A30F3008A316A228E315430F2000A30BD
:101E4200F3008A3170228E315030F2000A30F300F2
:101E52008A3164228E312000C101C401C3010830DD
:101E6200F4007408E200FB01FA01C2012E00991687
:101E720008002000D100AF01AF0A8B3194238F31CB
:101E8200FA30F2000030F3008B31FE238F31200054
:101E92004608C700C8015108C900CA014908F40030
:101EA2004A08F5001030F6000E30F7008D31042597
:101EB2008F3174082000CB007508CC004508CD0096
:101EC200CE014D08F4004E08F5003C30F60000301B
:101ED200F7008D3104258F31740820004B07CF00A5
:101EE20075084C3DD00047084F07A4004808503DF4
:101EF200A50008002000C00100308A31FF228F3186
:101F02000B135B30F2000730F3008A315E228F310F
:101F12000B17B52F8C31AC248F318C31C9248F3102
:101F220020002D080319962F972FA12FAD01013004
:101F3200DB005B08C00700308A31FF228F31B52FEA
:101F42002E080319A52FA62FB52FAE0100308A3116
:101F5200FF228F31200040088E3151268F3101300F
:101F62002000DB005B08C007043020004002031C95
:101F7200BB2FBC2F8B2F080003102000961F0314C9
:101F82000318C42FC72F20009617C92F20009613BD
:101F92003C080319CD2FCE2FD22F0130F00070084C
:101FA200BF073B3035020318D72FD82FDD2F013062
:101FB200F0007008B507F62FB5013B303602031862
:101FC200E32FE42FE92F0130F0007008B607F62F57
:101FD200B601173037020318EF2FF02FF52F01301B
:101FE200F0007008B707F62FB7013508031DFA2F66
:0E1FF200FB2FFF2F0130F0007008BD0008002B
:020000040001F9
:0A000E00EC3FFF379F3FFF3FFF3F2D
:00000001FF
