:020000040000FA
:0400000080313728EC
:100008007E1480312E00161C0A280B2813280C1C7D
:100018000E280F28132882316722803135280B1FBC
:10002800162817283528991C1A281B2820288F1CC1
:100038001E281F2820283528191C23282428292869
:100048000F1C27282828292835281A1C2C282D2851
:100058003528101C30283128352881317921803104
:1000680035287E10090080313928EF30840081302E
:1000780085002E308600003087000E3082314F22F6
:100088008031F001F101F201F301F401F5012030B2
:100098008400003085000E308231552280317E1078
:1000A80020008131042903102000961F031403182F
:1000B8005E286128200096176328200096130130D7
:1000C800F2070030F33D7308803AF6003B08803AA7
:1000D8007602031D71283A087202031C74287528D9
:1000E8007B28F201F3010130F6007608F40071086C
:1000F800803AF60080307602031D84283B30700277
:100108000318872888288D280130F0070030F13D32
:10011800BC28F001F10120002908803AF60080305F
:100128007602031D99283B30280203189C289D2835
:10013800A32801302000A8070030A93DBC282000D2
:10014800A801A9012708803AF60080307602031D2D
:10015800AF28173026020318B228B328B92801306F
:100168002000A6070030A73DBC282000A601A70153
:10017800080020009A01990196019701980107301B
:1001880095000F309100FF309200FF309300FF3050
:100198009400FF303E00D900C730CE00EF30C300D6
:1001A8000730E4000F30B800DA01E501C401B901F5
:1001B800CF01E601BA01C501D001DB01FF30BB0068
:1001C800FF30C600FF30D100FF30DC000730E70009
:1001D800FF30BC00FF30C700FF30D200FF30DD0029
:1001E8000730E8000C303D0090001330C500143093
:1001F8003E00A3001530A40014303D00C6000800DE
:100208008131602181318B170B175730F80000308E
:10021800F90082315B2281316D30F8000230F9003B
:100228008231612281318131DF2181318231722233
:1002380081318231322281312000931513163E001C
:10024800CF154F1600308131BC218131780820004C
:10025800C2007908C3000630C336C20C890B3029A6
:100268004208B0004308B1003108F9003008F8002E
:100278008131A621813126298031372824008F0138
:1002880090010430910086308D00E8308C000D0814
:100298002000C10024000C082000C0002E0010100F
:1002A8001A147930F8000230F90082315B2281316A
:1002B800013024008E0008008231472281318031CC
:1002C800BD20813182313E22813182310B22813140
:1002D8008131902181318131FD218131813142216A
:1002E800813182311822813108002E00101020003F
:1002F8004108F7004008F6008131CE218131200005
:100308003E083F04031989298A298F293F088A0052
:100318003E080A008131080022008E018F019001F9
:100328009101920193018D0121009E019B0194018D
:100338009501960197019A019901980180309300DF
:100348009D0108007908FB007808FA00FB36FA0CD2
:10035800FB36FA0C7A0827008D0078080339FA0072
:100368000530FA35FF3E031DB5297A358C000800A3
:10037800FB007B0821009E00931713131314000041
:1003880021001318C829C929C4290D08F9000C0827
:10039800F800080024000E1DD229D329DA290E10EE
:1003A80077088D0076088C000E14DE2977088D00FA
:1003B80076088C00080055303D008F00AA308F0069
:1003C8000F100E303E00960055303D008F00AA30C9
:1003D8008F000F140800FF34FF34FF34FF34023459
:1003E800003419340034033400341E340034053426
:1003F80000340130250090008F019101FF308D00FD
:100408008C012E009010803025008E00080080306E
:1004180027008E007F308D00C0308C0024001F081C
:10042800F33904389F0008002E000C100B147A30A2
:10043800F8000230F9008231612282312E00161450
:10044800080020003C083D0403192B2A2C2A312AD5
:100458003D088A003C080A00823108002300901AEF
:10046800362A372A3D2A8F0128309000910103301F
:100478008D000800623031008D008F01910102303B
:100488009300920108002F009601970198019901A5
:100498009A019B010800FE0012001E00FE0B502A64
:1004A8000034640080010131890B562A0034790830
:1004B8002000BF007808BE00080079082000BD00B1
:1004C8007808BC0008002E000C10823125228231E9
:1004D80008000130F6007608F5000800823176221F
:0E04E8008231080025008E1708000800080069
:020000040001F9
:0A000E00EC3FFF379F3FFF3FFF3F2D
:00000001FF
