:020000040000FA
:1000000080313728080008007E1480312E00161C2D
:100010000A280B2813280C1C0E280F2813288C31B3
:100020004C24803135280B1F162817283528991C99
:100030001A281B2820288F1C1E281F282028352816
:10004000191C2328242829280F1C27282828292878
:1000500035281A1C2C282D283528101C302831282A
:1000600035288E312126803135287E1009008031D7
:100070003928FA01FB0140308400003085001C3033
:100080008C315E2480317E10200081315429230080
:100090000F0C890C0139F40011081F397404031D79
:1000A0005228532847281114111857285828542823
:1000B0000F0C890C0139F40011081F397404031D59
:1000C0006228632858289A308531D9258031230049
:1000D0000F0C890C0139F40011081F397404031D39
:1000E00072287328672801308531D9258031230093
:1000F0000F0C890C0139F40011081F397404031D19
:1001000082288328772891149118872888288428A2
:100110000F0C890C0139F40011081F397404031DF8
:100120009228932888289B308531D9258031230057
:100130000F0C890C0139F40011081F397404031DD8
:10014000A228A32897288E3151268031F400740804
:10015000F50023000F0C890C0139F40011081F3938
:100160007404031DB428B528A92891161116111A74
:10017000BA28BB28B7280F0C890C0139F4001108E4
:100180001F397404031DC528C628BB281115111971
:10019000CA28CB28C728751FCE28CF2847280F0C80
:1001A000890C0139F40011081F397404031DD92882
:1001B000DA28CF2811141118DE28DF28DB280F0CCD
:1001C000890C0139F40011081F397404031DE92852
:1001D000EA28DF289A308531D925803123000F0C99
:1001E000890C0139F40011081F397404031DF92822
:1001F000FA28EE2800308531D925803123000F0CF4
:10020000890C0139F40011081F397404031D0929F0
:100210000A29FE28911491180E290F290B290F0C79
:10022000890C0139F40011081F397404031D1929C0
:100230001A290F299B308531D925803123000F0CD5
:10024000890C0139F40011081F397404031D292990
:100250002A291E298E3151268031F4007408F500B8
:1002600023000F0C890C0139F40011081F397404A4
:10027000031D3B293C29302991161116111A4129D9
:1002800042293E290F0C890C0139F40011081F394D
:100290007404031D4C294D294229111511195129A6
:1002A00052294E29750808008E31382681318C314B
:1002B000CD24813185318C2581318C316B24813184
:1002C0008B170B17FA30F2000630F3008C315224F2
:1002D00081313330F2000D30F3008C3158248131FC
:1002E0008731F42781312000931513163E00CF1576
:1002F0004F160B132000580803197F2980298429E1
:10030000D8018C31C3248131200057085A02031CC4
:100310008A298B29D229570803198F299029D22994
:10032000DA010B178D31422581312000B1003108EF
:10033000D10051080139B100B10E16083106EF396C
:100340003106960051360139B100B10EB10D1608D3
:100350003106DF3931069600803147208131200097
:10036000B1003108D20000008E310B26813120000F
:1003700054085102031CBD29BE29C4295208550244
:100380000318C329C429D3295303031DC829C92924
:10039000D3294D08031DCD29CE29D32987317F27A5
:1003A0008131D3290B1720004D080319D829D929E9
:1003B000242A5008B100B2017B08B300B40133080D
:1003C000F2003408F3001030F4000E30F5008E31E6
:1003D000FC26813172082000B5007308B6007A0847
:1003E000B700B8013708F2003808F3003C30F400D9
:1003F0000030F5008E31FC2681317208200035076F
:10040000B9007308363DBA0031083907BB0032081D
:100410003A3DBC0044083B02BD0045083C3BBE00E1
:100420003E08803ABF0080303F02031D192A56085B
:100430003D02031C1C2A1D2A252A8D31512581319C
:10044000200016176300252A63002E0016102000D6
:10045000590803192C2A2D2A3C2AD90187313D2716
:1004600081310B13FA30F2000630F3008C31522444
:1004700081310B172E000C102E00161479298031B3
:1004800037280A30F2000030F3007B082000A60075
:10049000A7012608F4002708F50084312A248231B8
:1004A00072082000A8002808AB000A30F2000030D3
:1004B000F3007B08A600A7012608F4002708F50032
:1004C00085313925823172082000A8002808AC0047
:1004D0000230A6002608F4002B088F311B2782313A
:1004E0002000A7002708AB0002302B06031D792A45
:1004F0007A2A8E2A04302C02031C7F2A802A812A21
:10050000AC010330A6002608F4002C088F311B270D
:1005100082312000A7002708AC009A2A0930A600E3
:100520002608F4002C088F311B2782312000A700F9
:100530002708AC000A30F2000030F3007A08A60069
:10054000A7012608F4002708F50084312A24823107
:1005500072082000A8002808A9000A30F200003024
:10056000F3007A08A600A7012608F4002708F50082
:1005700085313925823172082000A8002808AA0098
:100580000530A6002608F40029088F311B27823188
:100590002000A7002708A9000930A6002608F400BB
:1005A0002A088F311B2782312000A7002708AA00C4
:1005B0000A30A6002608F2002B088D31B5258231BD
:1005C00020002C07A7002708FB000A30A6002608F9
:1005D000F20029088D31B525823120002A07A700B5
:1005E0002708FA008C31C324823108002000A400BF
:1005F0000A30F200F030F3008C31E3248231F8004D
:10060000F90178082000A5007908A60025080B3E0E
:10061000A700F030263DA8000130F200F030F300D2
:100620008C31E3248231063EF800F0300318F130BB
:10063000F900200028087902031D202B27087802E2
:100640000318232B242B332B0B30A700F030A800EA
:100650000930F400F030F5005530F8007808F60065
:100660008E31C026823120002808F5002708F400CA
:100670002408F8007808F6008E31C0268231200068
:100680002708013EF4000030283DF5002008F8005E
:100690007808F6008E31C026823120002708023EFD
:1006A000F4000030283DF5002108F8007808F60035
:1006B0008E31C026823120002708033EF40000302E
:1006C000283DF5002208F8007808F6008E31C02693
:1006D000823120002708043EF4000030283DF50058
:1006E0002308F8007808F6008E31C02682310A30DF
:1006F000F400F030F50020002708FA3EF8007808F2
:10070000F6008E31C02682310030F400F030F50062
:100710000030F200F030F3008C31E3248231F80035
:100720002000250878022707FA3EF9007908F6002C
:100730008E31C026823101300800F9007908031992
:10074000A22BA32BAB2B0A30F400F030F500F601FE
:100750008E31C02683310130F400F030F5002000E6
:100760002008F8007808F6008E31C0268331023068
:10077000F400F030F50020002108F8007808F600B9
:100780008E31C02683310330F400F030F5002000B4
:100790002208F8007808F6008E31C0268331043034
:1007A000F400F030F50020002308F8007808F60087
:1007B0008E31C02683310530F400F030F500200082
:1007C0002408F8007808F6008E31C0268331063000
:1007D000F400F030F50020002508F8007808F60055
:1007E0008E31C02683310730F400F030F500200050
:1007F0002608F8007808F6008E31C02683310830CC
:10080000F400F030F50020002708F8007808F60022
:100810008E31C02683310930F400F030F500AA3063
:10082000F8007808F6008E31C02683310030F400DD
:10083000F030F500200020082107220723072407B5
:10084000250726072707F8007808F6008E31C0260E
:10085000833108002000A101F31F2F2C302C372CEE
:10086000F209F309F20A0319F30AA101A10AF51F1B
:100870003A2C3B2C442CF409F509F40A0319F50A27
:100880000130F6007608A106A201A30172087304E4
:1008900003194B2C4C2C7B2CA001A00A582C0130A6
:1008A000F235F30D890B502C0130F6007608A007C5
:1008B000F31F5B2C5C2C4F2C0130A235A30D890B50
:1008C0005D2C73087502031D672C72087402031CEB
:1008D0006A2C6B2C702C7208F4027308F53B2214FE
:1008E0000130F336F20C890B712C0130A002031D8C
:1008F0007A2C7B2C5C2C210803197F2C802C852CD6
:10090000A209A309A20A0319A30A2308F3002208D3
:10091000F20008000A30F2000030F3002000550811
:10092000A400A5012408F4002508F50084312A2438
:10093000843172082000A6002608A8000A30F200C0
:100940000030F3005508A400A5012408F400250890
:10095000F50085313925843172082000A60026086B
:10096000A7000530A4002408F40028088F311B27B5
:1009700084312000A5002508A80005302806031DA5
:10098000C22CC32CC82C3230A4002408D500E12C82
:100990000930A4002408F40027088F311B27843174
:1009A0002000A5002508A7000A30A4002408F200B2
:1009B00028088D31B525843120002707A50025089A
:1009C000D50055088F319F27843108000830F20088
:1009D000F030F3008C31E32484312000A000073094
:1009E000F200F030F3008C31E32484312000A100C8
:1009F0000630F200F030F3008C31E3248431200023
:100A0000A2000530F200F030F3008C31E324843191
:100A10002000A3000430F200F030F3008C31E32416
:100A200084312000A4000330F200F030F3008C3158
:100A3000E32484312000A5000230F200F030F300FE
:100A40008C31E32484312000A6000130F200F03024
:100A5000F3008C31E3248431200026072507240786
:100A60002307220721072007A7002708F40074089E
:100A70000800F801F51F3D2D3E2D452DF409F5091F
:100A8000F40A0319F50AF801F80AF31F482D492D55
:100A90004E2DF209F309F20A0319F30A72087304DE
:100AA0000319532D542D7D2DF701F70A602D0130C8
:100AB000F235F30D890B582D0130F6007608F70753
:100AC000F31F632D642D572D73087502031D6A2DC6
:100AD00072087402031C6D2D6E2D722D7208F402C3
:100AE0007308F53B0130F336F20C890B732D01309E
:100AF000F702031D7C2D7D2D642D78080319812DAF
:100B0000822D872DF409F509F40A0319F50A7508F1
:100B1000F3007408F20008008E316B268531003A2C
:100B20000319932D942DD52D8D31CA258531003A89
:100B300003199B2D9C2DD52D8C31AA2485312000A5
:100B4000AD002D08D7008C31A22485312000AD00E6
:100B50002D08CA008C31B22485312000AD002D084B
:100B6000D6008C318A2485312000AD002D08D500B7
:100B70008C31822485312000AD002D08D4008C31C9
:100B80007A2485312000AD002D08D3008C319224C9
:100B900085312000AD002D08FB008C319A24853171
:100BA0002000AD002D08FA00D82D8F31CC278531DB
:100BB0000800F300730823008C00901FE02DE12D46
:100BC000E22D232E0F301005F200083072060319B3
:100BD000EA2DEB2D012E0F301005F2000B307206BE
:100BE0000319F32DF42D012E10162E000F1CF92DD4
:100BF000FA2DF52D23000F19FE2DFF2D232E0F08A2
:100C0000232E0F301005F200083072060319092E4A
:100C10000A2E132E0F301005F2000B307206031D42
:100C2000122E132E232E0F18162E172E132E0F0CE6
:100C3000890C0139F20011081F397204031D212E9D
:100C4000222E172E11080800552E0310961F03148C
:100C500003182B2E2E2E20009617302E20009613D0
:100C60006C2E0310161F03140318372E3A2E200083
:100C700016173C2E200016136C2E0310961E03141C
:100C80000318432E462E20009616482E200096125A
:100C90006C2E0310161E031403184F2E522E200024
:100CA0001616542E200016126C2E20005B08F00041
:100CB000F1017108003A03195E2E6C2E7008003A9B
:100CC0000319252E013A0319312E033A03193D2E3B
:100CD000013A0319492E6C2E080020009A0199014F
:100CE000960197019801073095000F309100FF3071
:100CF0009200FF309300FF309400FF303E00D90097
:100D0000C730CE00EF30C3000730E4000F30B8002A
:100D1000DA01E501C401B901CF01E601BA01C5015B
:100D2000D001DB01FF30BB00FF30C600FF30D10037
:100D3000FF30DC000730E700FF30BC00FF30C700A9
:100D4000FF30D200FF30DD000730E8000C303D00FE
:100D500090001330C50014303E00A3001530A400ED
:100D600014303D00C6000800F9000030F400F030F7
:100D7000F5000830F200F030F3008C31E3248631C6
:100D80002000A0000730F200F030F3008C31E324A3
:100D900086312000A1000030F200F030F3008C31E9
:100DA000E32486312000A20021082202A3002008AB
:100DB000230279077807A4002408F6008E31C026A4
:100DC00086310730F400F030F50079082000A000EB
:100DD0002008F6008E31C02686310830F400F0304D
:100DE000F50078082000A0002008F6008E31C0260B
:100DF0008631080003102000961F03140318012FEA
:100E0000042F20009617062F200096135708031969
:100E10000A2F0B2F0F2F0130F0007008DA073B303C
:100E200050020318142F152F1A2F0130F0007008EC
:100E3000D007332FD0013B307A020318202F212F07
:100E4000262F0130F0007008FA07332FFA0117300F
:100E50007B0203182C2F2D2F322F0130F000700849
:100E6000FB07332FFB015008031D372F382F3C2F72
:100E70000130F0007008D80008002000DB010030CD
:100E80008C31D72487310B132430F2000630F30065
:100E90008C31522487310B17772F8E31862687317C
:100EA0008E31A326873120004B080319582F592F64
:100EB000632FCB010130B0003008DB0700308C31EC
:100EC000D7248731772F4C080319672F682F772F86
:100ED000CC0100308C31D724873120005B0887316A
:100EE000BF27873101302000B0003008DB07043015
:100EF00020005B02031C7D2F7E2F4D2F0800200059
:100F0000CD01CD0A8D3160258731FA30F2000030F5
:100F1000F3008D31DF25873120005008A000A101AA
:100F20007B08A200A3012208F2002308F30010307E
:100F3000F4000E30F5008E31FC2687317208200057
:100F4000A4007308A5007A08A600A7012608F200ED
:100F50002708F3003C30F4000030F5008E31FC2609
:100F60008731720820002407A8007308253DA900D6
:100F700020082807C4002108293DC50008002000DA
:100F8000AF008C3149248731D52F823141228731FE
:100F9000EC2F8D3170258731EC2F84318A248731F5
:100FA000EC2F8D3191258731EC2F20002F08AD00DB
:100FB000AE012E08003A0319DE2FEC2F2D08003A5F
:100FC0000319C52F013A0319C92F033A0319CD2F6D
:100FD000013A0319D12FEC2F8C3146248731003090
:100FE0008C31D724873108002300901AF82FF92F6D
:100FF000FF2F8F0128309000910103308D000800F1
:10188C0024000E14080024000E1008002E000C106A
:10189C008C31EF248C31080073082000DF007208B3
:1018AC00DE00080073082000DD007208DC00080070
:1018BC00640080010131890B5F2C00348D312425AB
:1018CC008C3120001613CD0108008D3151258C313F
:1018DC0020001613CD0108002F00960197019801E6
:1018EC0099019A019B0108000630F200F030F300D8
:1018FC008C31E3248C3108000530F200F030F30019
:10190C008C31E3248C3108000430F200F030F30009
:10191C008C31E3248C3108000730F200F030F300F6
:10192C008C31E3248C3108000830F200F030F300E5
:10193C008C31E3248C3108000130F200F030F300DC
:10194C008C31E3248C3108000230F200F030F300CB
:10195C008C31E3248C3108000330F200F030F300BA
:10196C008C31E3248C310800623031008D008F0102
:10197C00910102309300920108007A082000A50022
:10198C002508F8007B088631B4268C31080020002D
:10199C00DA01D901D801C401C501CF01CE01CD01B5
:1019AC000800F3007308F2000330F235FF3E031D0C
:1019BC00DB2C7235200096000800730830009B0069
:1019CC0072089A001E171E140000000030001C083C
:1019DC00080020005C085D040319F52CF62CFB2C88
:1019EC005D088A005C080A008C3108002E000C107F
:1019FC000B140230F2000030F3008C3158248C317F
:101A0C002E0016140800803027008E00FF308D0049
:101A1C00C0308C0024001F08F33904389F000800E4
:101A2C000130250090008F019101FF308D008C0159
:101A3C002E009010803025008E00080055303D009F
:101A4C008F00AA308F000F103E00960155303D00DC
:101A5C008F00AA308F000F14080020004D080319C6
:101A6C00382D392D3D2D8C3164248D31412D013093
:101A7C00F0007008D900080000308D31A3258D319D
:101A8C007208F6007308F7000E30F736F60C890B67
:101A9C004B2D7608080055303D008F00AA308F0082
:101AAC000F103E00960155303D008F00AA308F007C
:101ABC000F14080055303D008F00AA308F000F1016
:101ACC000E303E00960055303D008F00AA308F003E
:101ADC000F140800F401F40A200053088F311B275F
:101AEC008D31F90079082000D30053088F31452738
:101AFC008D31080024000E1D842D852D8C2D0E108B
:101B0C0071088D0070088C000E14902D71088D00DA
:101B1C0070088C00080003302000A3002308F40098
:101B2C0054088F311B278D312000A4002408D400C9
:101B3C0054088F3172278D310800F500750821008B
:101B4C009E00931713131314000021001318AF2DCC
:101B5C00B02DAB2D0D08F3000C08F2000800F500B9
:101B6C00F401751CBA2DBB2DBF2D7208F300730840
:101B7C00F4070310F20D0310F50C7508031DC72DA7
:101B8C00C82DB72D740808000030F200F030F300B7
:101B9C008C31E3248D31F5007508F6008431E62490
:101BAC008D3176060319DB2DDD2D0130DE2D003055
:101BBC0008007308F5007208F400F536F40CF536DD
:101BCC00F40C740827008D0072080339F4000530FA
:101BDC00F435FF3E031DEE2D74358C0008002200F9
:101BEC008E018F0190019101920193018D012100D1
:101BFC009E019B0194019501960197019A0199010F
:101C0C009801803093009D0108007A082000A900FB
:101C1C002908A0005008AA002A08A1005208AB000D
:101C2C002B08A2005108AC002C08A3007B088231C1
:101C3C00F6228E3108002E00101020006108F100F1
:101C4C006008F0008D3180258E3120005E085F0425
:101C5C000319312E322E372E5F088A005E080A00D7
:101C6C008E3108008C3172248E3186316D268E3186
:101C7C008C31BA248E318D3109258E318D31F5257B
:101C8C008E318D3116258E318E31DE268E318C3192
:101C9C00FC248E3108000F3023001005F2000830B0
:101CAC00720603195A2E5B2E642E0F301005F200AB
:101CBC000B307206031D632E642E652E91150F1CBE
:101CCC00682E692E652E0C0808000930F200F030E1
:101CDC00F3008C31E3248E31F4007408F600F50126
:101CEC00F50AAA30760603197C2E7D2E842E5530EB
:101CFC0076060319822E832E842EF50175080800B2
:101D0C0020004F08031D8B2E8C2E9B2E0D1A8F2E10
:101D1C00902EA22E6230F2006630890B932EF20BBD
:101D2C00932E2000CF01CF0AA22E0D1E9E2E9F2E89
:101D3C00A22ECF01CB01CB0A080020004E08031DB8
:101D4C00A82EA92EB82E8E1AAC2EAD2EBF2E623018
:101D5C00F2006630890BB02EF20BB02E2000CE01B3
:101D6C00CE0ABF2E8E1EBB2EBC2EBF2ECE01CC019A
:101D7C00CC0A080000308B1B0130F70075083000CE
:101D8C009B0074089A0076089C001E171E158B1376
:101D9C0055309F00AA309F009E149E18D62ED72E29
:101DAC00D32E1E11770C031C8B1303188B170800F2
:101DBC0024008F0190010430910086308D00E830B2
:101DCC008C000D082000E10024000C082000E0002D
:101DDC002E0010101A140330F2000030F3008C3176
:101DEC0052248E31053024008E000800F601F701D4
:101DFC00721C012F022F062F7408F6077508F73D89
:101E0C000130F435F50D890B072F0130F336F20C48
:101E1C00890B0C2F72087304031D152F162FFE2E21
:101E2C007708F3007608F2000800F60076088C318B
:101E3C00D7248F318E3186268F318E31A3268F3168
:101E4C0020004C0803192B2F2C2F3D2FCC010130D7
:101E5C00F5007508F607760874020318362F372F2D
:101E6C00382FF60176088C31D7248F31202F4B0870
:101E7C000319412F422F202FCB0176080800F800C0
:101E8C000030F400F030F5000630F200F030F300D2
:101E9C008C31E3248F312000A0000030F200F030B0
:101EAC00F3008C31E3248F312000A10020082102A3
:101EBC007807A2002208F6008E31C0268F3106303A
:101ECC00F400F030F50078082000A0002008F6009F
:101EDC008E31C0268F310800F8000030F400F0304D
:101EEC00F5000530F200F030F3008C31E3248F3133
:101EFC002000A0000030F200F030F3008C31E3241D
:101F0C008F312000A100200821027807A2002208AE
:101F1C00F6008E31C0268F310530F400F030F5001C
:101F2C0078082000A0002008F6008E31C0268F31E2
:101F3C000800F8000030F400F030F5000430F20036
:101F4C00F030F3008C31E3248F312000A0000030FE
:101F5C00F200F030F3008C31E3248F312000A1002B
:101F6C00200821027807A2002208F6008E31C02634
:101F7C008F310430F400F030F50078082000A00018
:101F8C002008F6008E31C0268F3108000530200065
:101F9C00A8002808D7001E30A8002808CA00033063
:101FAC00A8002808D6001930A8002808D50002304F
:101FBC00A8002808D400D301FB01FA011E30A800A8
:101FCC002808A0000530A9002908A1000330AA00A8
:101FDC002A08A2001930AB002B08A3000230AC0079
:101FEC002C08A400A501A601A701013083319D2373
:041FFC008F31080019
:020000040001F9
:0A000E00EC3FFF379F3FFF3FFF3F2D
:00000001FF
