:020000040000FA
:10000000803143280A3008007E1480312E00161CEF
:100010000A280B2813280C1C0E280F2813288E31B1
:100020008326803141280B1F162817284128991C48
:100030001A281B2820288F1C1E281F28202841280A
:10004000191C2328242829280F1C27282828292878
:1000500041281A1C2C282D283528101C302831281E
:10006000352887318B27803141289A1C3828392838
:100070004128901C3C283D2841288E31892680311A
:1000800041287E100900803145287E3084008E3062
:1000900085001200E1001200E2001200E3001200ED
:1000A000E4001200E500F801F901FA014130840092
:1000B0000030850018308731FA2780317E1020000B
:1000C000803162282000C701C801D301D201C501D7
:1000D000C601D801D701CE01873172278031853121
:1000E000E52580318E31A82680318B170B177F30A4
:1000F000F3000330F4008E318F2680317B30F30023
:100100000F30F4008E31952680318F3112278031E7
:100110002000931513163E00CF154F160B13200029
:1001200052080319942895289928D2018E31F02677
:10013000803120004D0803199E289F28E028CD011A
:100140000B178F31B82780312000B2003208CF0062
:100150004F080139B200B20E16083206EF393206E6
:1001600096004F360139B200B20EB20D16083206B3
:10017000DF39320696008031022080312000B20043
:100180003208D0008731A2278031200061084F0259
:10019000031CCB28CC28D228500862020318D1288F
:1001A000D228E1285103031DD628D728E1284E087C
:1001B000031DDB28DC28E128853162258031E12818
:1001C0000B1720004E080319E628E7283229780883
:1001D000B200B3017A08B400B5013408F300350861
:1001E000F4001030F5000E30F6008631A426803180
:1001F00073082000B6007408B7007908B800B90188
:100200003808F3003908F4003C30F5000030F600FF
:100210008631A4268031730820003607BA0074089E
:10022000373DBB0032083A07BC0033083B3DBD00F8
:1002300045083C02BE0046083D3BBF003F08803AEF
:10024000C00080304002031D272963083E02031CC2
:100250002A292B2933298F318A278031200016172C
:100260006300332963002E00161020005308031981
:100270003A293B294C29D301D50117168531A525EB
:1002800080310B137F30F3000330F4008E318F2662
:1002900080310B172E000C102E0016148E28803182
:1002A00043280A30F3000030F4007A082000A4004C
:1002B000A5012408F5002508F60083311F238131AC
:1002C00073082000A6002608A9000A30F3000030B9
:1002D000F4007A08A400A5012408F5002508F6001A
:1002E00084313324813173082000A6002608AA0037
:1002F0000230A4002408F5002908863154268131F3
:100300002000A5002508A90002302906031D89291F
:100310008A299E2904302A02031C8F2990299129B9
:10032000AA010330A4002408F5002A0886315426C7
:1003300081312000A5002508AA00AA290930A400BF
:100340002408F5002A088631542681312000A500B2
:100350002508AA000A30F3000030F4007908A40050
:10036000A5012408F5002508F60083311F238131FB
:1003700073082000A6002608A7000A30F30000300A
:10038000F4007908A400A5012408F5002508F6006A
:1003900083311F23813173082000A6002608A8009E
:1003A0000530A4002408F500270886315426813141
:1003B0002000A5002508A7000930A4002408F500A6
:1003C00028088631542681312000A5002508A80080
:1003D0000A30A4002408F30029088F31EB2781316B
:1003E00020002A07A5002508FA000A30A4002408E6
:1003F000F30027088F31EB27813120002807A50063
:100400002508F9008E31F026813108002000A60071
:100410000A30F3007030F4008F311E2782310B3E1A
:100420002000A700703003187130A8002708FE3E96
:10043000F300FF30283DF4008F311E278231200069
:100440002206031D242A252A362A2708FF3EF30008
:10045000FF30283DF4008F311E2782312000230613
:10046000031D332A342A362A0030A32A0130F30030
:100470007030F4008F311E278231063E2000A40028
:10048000703003187130A50028082502031D4A2A80
:100490002708240203184D2A4E2A522A0B30A7009F
:1004A0007030A8002808F4002708F3002608A400EC
:1004B0002408F5008631E426823120002708013E19
:1004C000F3000030283DF4002008A4002408F500C3
:1004D0008631E426823120002708023EF3000030F6
:1004E000283DF4002108A4002408F5008631E42604
:1004F000823120002708033EF3000030283DF4003D
:100500002208A4002408F5008631E4268231200068
:100510002708043EF3000030283DF4002308A4001F
:100520002408F5008631E42682310A30F300703069
:10053000F40020002708FA3EA4002408F5008631C4
:10054000E4268231013008002000A80028080319A1
:10055000AA2AAB2AB32A0A30F3007030F400F5015E
:100560008631E42682310130F3007030F40020003F
:100570002008F7007708F5008631E4268231023042
:10058000F3007030F40020002108F7007708F50030
:100590008631E42682310330F3007030F40020000D
:1005A0002208F7007708F5008631E426823104300E
:1005B000F3007030F40020002308F7007708F500FE
:1005C0008631E42682310530F3007030F4002000DB
:1005D0002408F7007708F5008631E42682310630DA
:1005E000F3007030F40020002508F7007708F500CC
:1005F0008631E42682310730F3007030F4002000A9
:100600002608F7007708F5008631E42682310830A5
:10061000F3007030F40020002708F7007708F50099
:100620008631E42682310930F3007030F400AA30BC
:10063000F7007708F5008631E426823108002000B3
:10064000A101F41F242B252B2C2BF309F409F30A09
:100650000319F40AA101A10AF61F2F2B302B392B05
:10066000F509F609F50A0319F60A0130F7007708CB
:10067000A106A201A301730874040319402B412BA6
:10068000702BA001A00A4D2B0130F335F40D890B1E
:10069000452B0130F7007708A007F41F502B512B92
:1006A000442B0130A235A30D890B522B740876021E
:1006B000031D5C2B73087502031C5F2B602B652BDD
:1006C0007308F5027408F63B22140130F436F30C7B
:1006D000890B662B0130A002031D6F2B702B512B51
:1006E00021080319742B752B7A2BA209A309A20ADE
:1006F0000319A30A2308F4002208F30008000310DA
:100700002000961F03140318862B892B20009617B0
:100710008B2B200096136508031D8F2B902B912B9C
:10072000DA2B4808F1004708F000C70A0319C80A85
:100730007108803AF20080307202031DA12B650817
:100740007002031CA42BA52BAC2B2000C701C801F1
:100750000130F0007008CD003B3078020318B12B57
:10076000B22BB72B0130F0007008F807D02BF8013E
:100770003B3079020318BD2BBE2BC32B0130F00098
:100780007008F907D02BF90117307A020318C92B2A
:10079000CA2BCF2B0130F0007008FA07D02BFA01DA
:1007A0007808031DD42BD52BDA2B0130F00070080C
:1007B0002000D20008000A30F3000030F4002000CE
:1007C0006208A400A5012408F5002508F60083317D
:1007D0001F23833173082000A6002608A8000A30D2
:1007E000F3000030F4006208A400A5012408F5001D
:1007F0002508F60084313324833173082000A600D5
:100800002608A7000530A4002408F5002808863132
:10081000542683312000A5002508A80005302806AD
:10082000031D132C142C192C3230A4002408E200D0
:10083000322C0930A4002408F500270886315426FC
:1008400083312000A5002508A7000A30A400240851
:10085000F30028088F31EB27833120002707A500FC
:100860002508E20008002000A101F61F382C392CD1
:10087000402CF509F609F50A0319F60AA101A10AA7
:10088000F41F432C442C492CF309F409F30A0319EF
:10089000F40A7308740403194E2C4F2C782CA00111
:1008A000A00A5B2C0130F335F40D890B532C013079
:1008B000F7007708A007F41F5E2C5F2C522C7408F9
:1008C0007602031D652C73087502031C682C692CC5
:1008D0006D2C7308F5027408F63B0130F436F30C06
:1008E000890B6E2C0130A002031D772C782C5F2C15
:1008F000210803197C2C7D2C822CF509F609F50AB8
:100900000319F60A7608F4007508F3000800F400ED
:10091000740823008C00901F8E2C8F2C902CD12CCF
:100920000F301005F300083073060319982C992C2A
:10093000AF2C0F301005F3000B3073060319A12CF8
:10094000A22CAF2C10162E000F1CA72CA82CA32C09
:1009500023000F19AC2CAD2CD12C0F08D12C0F304B
:100960001005F300083073060319B72CB82CC12CFE
:100970000F301005F3000B307306031DC02CC12C83
:10098000D12C0F18C42CC52CC12C0F0C890C01398B
:10099000F30011081F397304031DCF2CD02CC52C74
:1009A00011080800032D0310961F03140318D92CF7
:1009B000DC2C20009617DE2C200096131A2D031035
:1009C000161F03140318E52CE82C20001617EA2C38
:1009D000200016131A2D0310961E03140318F12C71
:1009E000F42C20009616F62C200096121A2D0310D7
:1009F000161E03140318FD2C002D20001616022DC0
:100A0000200016121A2D20005608F000F10171087E
:100A1000003A03190C2D1A2D7008003A0319D32C33
:100A2000013A0319DF2C033A0319EB2C013A03199D
:100A3000F72C1A2D080020009A01990196019701C0
:100A40009801073095000F309100FF309200FF3081
:100A50009300FF309400FF303E00D900C730CE0035
:100A6000EF30C3000730E4000F30B800DA01E501D1
:100A7000C401B901CF01E601BA01C501D001DB0112
:100A8000FF30BB00FF30C600FF30D100FF30DC007C
:100A90000730E700FF30BC00FF30C700FF30D20056
:100AA000FF30DD000730E8000C303D0090001330CF
:100AB000C50014303E00A3001530A40014303D00E2
:100AC000C60008002000CE01CE0A8F31A82785314C
:100AD000FA30F3000030F4008731E42785318E319D
:100AE0007A26853178082000A200A3017A08A400A4
:100AF000A5012408F3002508F4001030F5000E309D
:100B0000F6008631A426853173082000A6007408FB
:100B1000A7007908A800A9012808F3002908F40013
:100B20003C30F5000030F6008631A426853173088C
:100B300020002607AA007408273DAB0022082A07D8
:100B4000C50023082B3DC60008002000D601003058
:100B50008E31FA268531D230F3000430F4008E3124
:100B60008F268531DD2D873120278531873102277A
:100B70008531200055080319BE2DBF2DC92DD50183
:100B80000130AE002E08D60700308E31FA268531AE
:100B9000DD2D54080319CD2DCE2DDD2DD4010030CF
:100BA0008E31FA2685312000560886311F26853180
:100BB00001302000AE002E08D60704302000560277
:100BC000031CE32DE42DB32D08008F3199278531C7
:100BD000003A0319EC2DED2D1B2E00008E31D72687
:100BE00085312000B1003108E5008E31CF268531F6
:100BF0002000B1003108E4008E31DF26853120006D
:100C0000B1003108E3008E31C72685312000B100E4
:100C10003108E2008E31BF2685312000B100310855
:100C2000E1008E31B72685312000B1003108D100B6
:100C3000FA01F9011E2E86317E268531080020003A
:100C4000AD008E3177268631352E813151218631A6
:100C50004C2E8F31062786314C2E8331DB23863193
:100C60004C2E8F315E2786314C2E20002D08AB0094
:100C7000AC012C08003A03193E2E4C2E2B08003AEA
:100C80000319252E013A0319292E033A03192D2E93
:100C9000013A0319312E4C2E8E31742686310030E4
:100CA0008E31FA2686310800F70077088E31FA2651
:100CB000863187312027863187310227863120000F
:100CC00054080319642E652E762ED4010130F600E7
:100CD0007608F7077708750203186F2E702E712EAD
:100CE000F70177088E31FA268631592E55080319F7
:100CF0007A2E7B2E592ED501770808002000640833
:100D0000A9002908A0006508AA002A08A100630814
:100D1000AB002B08A2006208AC002C08A3006108FD
:100D2000AD002D08A4005108AE002E08A5007A08D9
:100D3000AF002F08A6007908B0003008A7000130E6
:100D40008231A422863108002000A001A101731C79
:100D5000AA2EAB2EB02E75082000A0077608A13D64
:100D60000130F535F60D890BB12E0130F436F30C58
:100D7000890BB62E73087404031DBF2EC02EA72E38
:100D800020002108F4002008F300080024008F014F
:100D900090010430910086308D00E8308C000D0801
:100DA0002000E00024000C082000DF002E001010BE
:100DB0001A146F30F3000E30F4008E318F26863116
:100DC000053024008E00080000308B1B0130F60037
:100DD000740830009B0073089A0075089C001E1769
:100DE0001E158B1355309F00AA309F009E149E182D
:100DF000FA2EFB2EF72E1E11760C031C8B130318F4
:100E00008B17080020005708031D072F082F182FE5
:100E10008E1A0B2F0C2F1F2F2130F3007630890BE9
:100E20000F2FF30B0F2F00322000D701D70A1F2FEF
:100E30008E1E1B2F1C2F1F2FD701D401D40A080090
:100E400020005808031D252F262F362F0D1A292F75
:100E50002A2F3D2F2130F3007630890B2D2FF30BF5
:100E60002D2F00322000D801D80A3D2F0D1E392F1A
:100E70003A2F3D2FD801D501D50A08000F302300A5
:100E80001005F300083073060319472F482F512F20
:100E90000F301005F3000B307306031D502F512F38
:100EA000522F91150F1C552F562F522F0C0808004A
:100EB0002000A1000730F3007030F4002108A000EA
:100EC0002008F5008631E42687310830F3007030C1
:100ED000F40077082000A0002008F5008631E42601
:100EE000873108008E31AF26873185311B25873148
:100EF0008E31E72687318F31512787318731CE27D1
:100F000087318731B82787318631C62687318F31BF
:100F10004427873108002E00101020006008F100DF
:100F20005F08F0008F31C827873120005D085E041C
:100F300003199B2F9C2FA12F5E088A005D080A00D1
:100F40008731080079082000A9002908A000780846
:100F5000AA002A08A1005008AB002B08A2004F08E5
:100F6000AC002C08A3007A088231062287310800E1
:100F70000130250090008F019101FF308D008C0120
:100F80002E0090109A147030F3000E30F4008E3161
:100F90009B268731803025008E00080022008E01BC
:100FA0008F0190019101920193018D0121009E0119
:100FB0009B0194019501960197019A01990198016D
:100FC000803093009D0108007408F6007308F50056
:100FD000F636F50CF636F50C750827008D0073080B
:100FE0000339F5000530F535FF3E031DF32F753548
:100FF0008C000800640080010131890BFB2F003454
:101CDC0008000800080025008E17080024000E14C8
:101CEC00080024000E1008008E3171268E31080079
:101CFC000234193403341E3405342E000C108F3189
:101D0C002A278E3108002E0090108F3137278E3104
:101D1C00080074082000DE007308DD000800740859
:101D2C002000DC007308DB00080074082000DA00D7
:101D3C007308D90008008F316C278E3120001613E0
:101D4C00CE0108008F318A278E3120001613CE0168
:101D5C0008002F0096019701980199019A019B01A7
:101D6C0008000630F3007030F4008F311E278E31DE
:101D7C0008000530F3007030F4008F311E278E31CF
:101D8C0008000430F3007030F4008F311E278E31C0
:101D9C0008000130F3007030F4008F311E278E31B3
:101DAC0008000230F3007030F4008F311E278E31A2
:101DBC0008000330F3007030F4008F311E278E3191
:101DCC000800623031008D008F01910102309300C8
:101DDC009201080079082000A2002208F7007A0876
:101DEC00873158278E310800F4007408F300033053
:101DFC00F335FF3E031DFE2E7335200096000800C0
:101E0C00F501F50A20005108863154268F31200047
:101E1C00A0002008D10008002300901A162F172FBD
:101E2C001D2F8F0128309000910103308D00080088
:101E3C00740830009B0073089A001E171E140000D3
:101E4C00000030001C08080020005B085C0403192B
:101E5C00302F312F362F5C088A005B080A008F3137
:101E6C000800200059085A0403193D2F3E2F432F18
:101E7C005A088A0059080A008F3108002E000C10ED
:101E8C000B146E30F3000E30F4008E3195268F312A
:101E9C002E0016140800803027008E00FF308D00B5
:101EAC00C0308C0024001F08F33904389F00080050
:101EBC0003302000A0002008F5006108863154266C
:101ECC008F312000A1002108E100080055303D00B1
:101EDC008F00AA308F000F103E00960155303D0048
:101EEC008F00AA308F000F14080020004E08031931
:101EFC00802F812F852F8E31A1268F31892F013094
:101F0C00F0007008D300080055303D008F00AA3057
:101F1C008F000F103E00960155303D008F00AA3007
:101F2C008F000F1408000930F3007030F4008F316B
:101F3C001E278F31AA3A0319A42FA62F0130A72FE1
:101F4C000030080055303D008F00AA308F000F1074
:101F5C000E303E00960055303D008F00AA308F00A9
:101F6C000F14080000308F31D9278F3173082000EF
:101F7C00A0007408A1000E30A136A00C890BC22F52
:101F8C002008080024000E1DCC2FCD2FD42F0E10AE
:101F9C0071088D0070088C000E14D82F71088D00FC
:101FAC0070088C000800F600760821009E0093173C
:101FBC0013131314000021001318E52FE62FE12F43
:101FCC000D08F4000C08F3000800F600F501761C6F
:101FDC00F02FF12FF52F7308F4007408F507031098
:101FEC00F30D0310F60C7608031DFD2FFE2FED2FBD
:041FFC00750808005C
:020000040001F9
:0A000E00EC3FFF379F3FFF3FFF3F2D
:00000001FF
