:020000040000FA
:10000000803143280A3008007E1480312E00161CEF
:100010000A280B2813280C1C0E280F2813288E31B1
:100020005126803141280B1F162817284128991C7A
:100030001A281B2820288F1C1E281F28202841280A
:10004000191C2328242829280F1C27282828292878
:1000500041281A1C2C282D283528101C302831281E
:1000600035288731B927803141289A1C382839280A
:100070004128901C3C283D2841288E31572680314C
:1000800041287E100900803145284C3084008E3094
:1000900085001200E3001200E4001200E5001200E7
:1000A000E6001200E700F801F901FA01433084008C
:1000B0000030850018308E316F2680317E10200090
:1000C000803162282000C901CA01D501D401C701CD
:1000D000C801DA01D9018731A027803185315F2538
:1000E00080318B170B177C30F3000330F4008E3116
:1000F0005D2680314E30F3000F30F4008E316326E0
:1001000080318E31F12680312000931513163E0088
:10011000CF154F1663000B132000540803199128C4
:1001200092289628D4018E31CF26803120004F08A6
:1001300003199B289C28DD28CF010B178F318C27B2
:1001400080312000B4003408D10051080139B400D6
:10015000B40E16083406EF393406960051360139CC
:10016000B400B40EB40D16083406DF393406960018
:100170008031022080312000B4003408D200873161
:10018000D0278031200063085102031CC828C928E9
:10019000CF28520864020318CE28CF28DE28530344
:1001A000031DD328D428DE285008031DD828D928B9
:1001B000DE288531A4258031DE280B172000500869
:1001C0000319E328E4282F297808B400B5017A0838
:1001D000B600B7013608F3003708F4001030F50018
:1001E0000E30F6008631D026803173082000B8002A
:1001F0007408B9007908BA00BB013A08F3003B085B
:10020000F4003C30F5000030F6008631D026803115
:10021000730820003807BC007408393DBD0034085D
:100220003C07BE0035083D3DBF0047083E02C00008
:1002300048083F3BC1004108803AC200803042027A
:10024000031D242965084002031C272928292F297A
:10025000FF30F3000330F4008F31D42780312E00BB
:100260001610200055080319362937294829D501C9
:10027000D70117168531E72580310B137C30F30049
:100280000330F4008E315D2680310B172E000C10E8
:100290002E0016148A28803143280A30F3000030DB
:1002A000F4007A082000A500A6012508F50026081C
:1002B000F60083311C23813173082000A700270832
:1002C000AA000A30F3000030F4007A08A500A60165
:1002D0002508F5002608F6008431302481317308A2
:1002E0002000A7002708AB000230A5002508F50074
:1002F0002A0886315E2681312000A6002608AA0041
:1003000002302A06031D852986299A2904302B02EA
:10031000031C8B298C298D29AB010330A5002508EE
:10032000F5002B0886315E2681312000A6002608C4
:10033000AB00A6290930A5002508F5002B08863159
:100340005E2681312000A6002608AB000A30F300AB
:100350000030F4007908A500A6012508F50026085C
:10036000F60083311C23813173082000A700270881
:10037000A8000A30F3000030F4007908A500A601B7
:100380002508F5002608F60083311C238131730807
:100390002000A7002708A9000530A5002508F500C2
:1003A000280886315E2681312000A6002608A80094
:1003B0000930A5002508F500290886315E2681311F
:1003C0002000A6002608A9000A30A5002508F30091
:1003D0002A088F31BF27813120002B07A60026086D
:1003E000FA000A30A5002508F30028088F31BF273E
:1003F000813120002907A6002608F9008E31CF267A
:10040000813108002000A7000A30F300F030F4002A
:100410008E31E52682310B3E2000A800F030031813
:10042000F130A9002808FE3EF300FF30293DF4001A
:100430008E31E526823120002306031D202A212A41
:10044000322A2808FF3EF300FF30293DF4008E31A8
:10045000E526823120002406031D2F2A302A322A65
:1004600000309F2A0130F300F030F4008E31E52691
:100470008231063E2000A500F0300318F130A600BE
:1004800029082602031D462A280825020318492A9E
:100490004A2A4E2A0B30A800F030A9002908F6009D
:1004A0002808F5002708A5002508F7008631F22660
:1004B000823120002808013EF5000030293DF60079
:1004C0002108A5002508F7008631F2268231200098
:1004D0002808023EF5000030293DF6002208A5005C
:1004E0002508F7008631F226823120002808033ED5
:1004F000F5000030293DF6002308A5002508F70087
:100500008631F226823120002808043EF5000030B2
:10051000293DF6002408A5002508F7008631F226BB
:1005200082310A30F500F030F60020002808FA3E4B
:10053000A5002508F7008631F22682310130080037
:100540002000AA002A080319A62AA72AAF2A0A30DF
:10055000F500F030F600F7018631F22682310130E5
:10056000F500F030F60020002108A9002908F70066
:100570008631F22682310230F500F030F60020009C
:100580002208A9002908F7008631F22682310330BB
:10059000F500F030F60020002308A9002908F70034
:1005A0008631F22682310430F500F030F60020006A
:1005B0002408A9002908F7008631F2268231053087
:1005C000F500F030F60020002508A9002908F70002
:1005D0008631F22682310630F500F030F600200038
:1005E0002608A9002908F7008631F2268231073053
:1005F000F500F030F60020002708A9002908F700D0
:100600008631F22682310830F500F030F600200005
:100610002808A9002908F7008631F226823109301E
:10062000F500F030F600AA302000A9002908F700F4
:100630008631F226823108002000A101F41F212B0F
:10064000222B292BF309F409F30A0319F40AA10157
:10065000A10AF61F2C2B2D2B362BF509F609F50ACE
:100660000319F60A0130F7007708A106A201A301D9
:100670007308740403193D2B3E2B6D2BA001A00AB7
:100680004A2B0130F335F40D890B422B0130F70072
:100690007708A007F41F4D2B4E2B412B0130A235BC
:1006A000A30D890B4F2B74087602031D592B730879
:1006B0007502031C5C2B5D2B622B7308F50274081A
:1006C000F63B22140130F436F30C890B632B013016
:1006D000A002031D6C2B6D2B4E2B21080319712BCF
:1006E000722B772BA209A309A20A0319A30A2308D4
:1006F000F4002208F300080003102000961F0314E2
:100700000318832B862B20009617882B2000961326
:100710006708031D8C2B8D2B8E2BD72B4A08F100DD
:100720004908F000C90A0319CA0A7108803AF200A0
:1007300080307202031D9E2B67087002031CA12BE0
:10074000A22BA92B2000C901CA010130F0007008BA
:10075000CF003B3078020318AE2BAF2BB42B013007
:10076000F0007008F807CD2BF8013B307902031830
:10077000BA2BBB2BC02B0130F0007008F907CD2B32
:10078000F90117307A020318C62BC72BCC2B013086
:10079000F0007008FA07CD2BFA017808031DD12B61
:1007A000D22BD72B0130F00070082000D4000800B5
:1007B0000A30F3000030F40020006408A400A50112
:1007C0002408F5002508F60083311C2383317308C3
:1007D0002000A6002608A8000A30F3000030F4002C
:1007E0006408A400A5012408F5002508F60084315A
:1007F0003024833173082000A6002608A7000530A6
:10080000A4002408F500280886315E2683312000E4
:10081000A5002508A80005302806031D102C112C62
:10082000162C3230A4002408E4002F2C0930A40038
:100830002408F500270886315E2683312000A500B4
:100840002508A7000A30A4002408F30028088F31E7
:10085000BF27833120002707A5002508E4000800F2
:100860002000A101F61F352C362C3D2CF509F60988
:10087000F50A0319F60AA101A10AF41F402C412C24
:10088000462CF309F409F30A0319F40A73087404F3
:1008900003194B2C4C2C752CA001A00A582C0130AC
:1008A000F335F40D890B502C0130F7007708A007C1
:1008B000F41F5B2C5C2C4F2C74087602031D622CF9
:1008C00073087502031C652C662C6A2C7308F502EC
:1008D0007408F63B0130F436F30C890B6B2C0130B5
:1008E000A002031D742C752C5C2C21080319792C93
:1008F0007A2C7F2CF509F609F50A0319F60A760811
:10090000F4007508F3000800F400740823008C005C
:10091000901F8B2C8C2C8D2CCE2C0F301005F300BF
:10092000083073060319952C962CAC2C0F3010054B
:10093000F3000B30730603199E2C9F2CAC2C101661
:100940002E000F1CA42CA52CA02C23000F19A92CC1
:10095000AA2CCE2C0F08CE2C0F301005F300083037
:1009600073060319B42CB52CBE2C0F301005F30000
:100970000B307306031DBD2CBE2CCE2C0F18C12CC2
:10098000C22CBE2C0F0C890C0139F30011081F3941
:100990007304031DCC2CCD2CC22C11080800002D93
:1009A0000310961F03140318D62CD92C2000961779
:1009B000DB2C20009613172D0310161F03140318A9
:1009C000E22CE52C20001617E72C20001613172D1B
:1009D0000310961E03140318EE2CF12C200096161B
:1009E000F32C20009612172D0310161E0314031863
:1009F000FA2CFD2C20001616FF2C20001612172DA5
:100A000020005808F000F1017108003A0319092D7F
:100A1000172D7008003A0319D02C013A0319DC2C69
:100A2000033A0319E82C013A0319F42C172D080096
:100A300020009A01990196019701980107309500CD
:100A40000F309100FF309200FF309300FF30940090
:100A5000FF303E00D900C730CE00EF30C300073072
:100A6000E4000F30B800DA01E501C401B901CF019B
:100A7000E601BA01C501D001DB01FF30BB00FF3048
:100A8000C600FF30D100FF30DC000730E700FF3048
:100A9000BC00FF30C700FF30D200FF30DD00073060
:100AA000E8000C303D0090001330C50014303E00CB
:100AB000A3001530A40014303D00C60008008F319B
:100AC0005D278531003A0319662D672DA02D8E31E3
:100AD000AD2685312000B3003308E7008E31A5260E
:100AE00085312000B3003308E6008E31B52685310C
:100AF0002000B3003308E5008E318D2685312000BB
:100B0000B3003308E4008E31852685312000B30020
:100B10003308E3008E317D2685312000B300330891
:100B2000D3008E31952685312000B3003308FA00BA
:100B30008E319D2685312000B3003308F900A32DA6
:100B400086318826853108002000D001D00A8F31F7
:100B50006C278531FA30F3000030F4008F31D42750
:100B600085318731FC27853178082000A200A30158
:100B70007A08A400A5012408F3002508F400103029
:100B8000F5000E30F6008631D0268531730820003E
:100B9000A6007408A7007908A800A9012808F30096
:100BA0002908F4003C30F5000030F6008631D026EC
:100BB0008531730820002607AA007408273DAB0082
:100BC00022082A07C70023082B3DC8000800200080
:100BD000D80100308E31D92685310B13CF30F30088
:100BE0000430F4008E315D2685310B17212E8731BC
:100BF0004E2785318731302785312000570803196A
:100C0000022E032E0D2ED7010130AF002F08D8077A
:100C100000308E31D9268531212E56080319112E28
:100C2000122E212ED60100308E31D926853120009A
:100C3000580886312926853101302000AF002F0861
:100C4000D807043020005802031C272E282EF72D29
:100C500008002000AE008E31492686313F2E8131BA
:100C60004D218631562E8F317C278631562E833189
:100C7000D8238631562E8F3131278631562E2000CB
:100C80002E08AC00AD012D08003A0319482E562E4F
:100C90002C08003A03192F2E013A0319332E033A78
:100CA0000319372E013A03193B2E562E8E31462654
:100CB000863100308E31D92686310800F70077085A
:100CC0008E31D926863187314E27863187313027BC
:100CD00086312000560803196E2E6F2E802ED60105
:100CE0000130F6007608F707770875020318792EA9
:100CF0007A2E7B2EF70177088E31D9268631632E26
:100D000057080319842E852E632ED7017708080013
:100D100020006608AB002B08A1006708AC002C0877
:100D2000A2006508AD002D08A3006408AE002E08DF
:100D3000A4006308AF002F08A5005308B0003008D6
:100D4000A6007A08B1003108A7007908B20032087D
:100D5000A80001308231A022863108002000A200C4
:100D60000030F500F030F6000130F300F030F40010
:100D70008E31E526863120002202A1002108F700ED
:100D80008631F22686310630F500F030F60020007C
:100D90002208A1002108F7008631F22686310800DA
:100DA0002000A001A101731CD62ED72EDC2E7508C1
:100DB0002000A0077608A13D0130F535F60D890B1E
:100DC000DD2E0130F436F30C890BE22E7308740427
:100DD000031DEB2EEC2ED32E20002108F40020085A
:100DE000F300080000308B1B01302000A0007608C3
:100DF00030009B0075089A0077089C001E171E158E
:100E00008B1355309F00AA309F009E149E18092F07
:100E10000A2F062F1E112000200C031C8B13031811
:100E20008B17080024008F01900104309100863058
:100E30008D00E8308C000D082000E20024000C0832
:100E40002000E1002E0010101A143E30F3000E3086
:100E5000F4008E315D268731053024008E000800B5
:100E600020005908031D352F362F462F8E1A392F93
:100E70003A2F4D2F2130F3007630890B3D2FF30BA5
:100E80003D2F00322000D901D90A4D2F8E1E492F47
:100E90004A2F4D2FD901D601D60A080020005A0842
:100EA000031D532F542F642F0D1A572F582F6B2FBC
:100EB0002130F3007630890B5B2FF30B5B2F003270
:100EC0002000DA01DA0A6B2F0D1E672F682F6B2FB7
:100ED000DA01D701D70A08000F3023001005F3000C
:100EE000083073060319752F762F7F2F0F301005EA
:100EF000F3000B307306031D7E2F7F2F802F91157B
:100F00000F1C832F842F802F0C0808002000A300C3
:100F10000730F500F030F6002308A2002208F700A1
:100F20008631F22687310830F500F030F6002000D7
:100F30002108A2002208F7008631F2268731080036
:100F40008E31752687318531182587318E31C62639
:100F500087318F31242787318F31EA2787318731D5
:100F6000E62787318731122787318F31172787315D
:100F700008002E00101020006208F1006108F00047
:100F80008F319C27873120005F0860040319C92F27
:100F9000CA2FCF2F60088A005F080A008731080037
:100FA00079082000AA002A08A1007808AB002B08C5
:100FB000A2005208AC002C08A3005108AD002D0877
:100FC000A4007A088231022287310800013025000E
:100FD00090008F019101FF308D008C012E00901048
:100FE0009A143F30F3000E30F4008E3169268731B9
:100FF000803025008E0008008E314326873108009E
:101C7A0008000800080025008E13080025008E17AA
:101C8A00080024000E14080024000E100800023474
:101C9A00193403341E3405342E000C108E31FD26FF
:101CAA008E3108002E0090108F310A278E310800DD
:101CBA0074082000E0007308DF00080074082000A0
:101CCA00DE007308DD00080074082000DC007308D9
:101CDA00DB000800640080010131890B702E00349A
:101CEA002F0096019701980199019A019B0108001A
:101CFA000630F300F030F4008E31E5268E3108000C
:101D0A000530F300F030F4008E31E5268E310800FC
:101D1A000430F300F030F4008E31E5268E310800ED
:101D2A000730F300F030F4008E31E5268E310800DA
:101D3A000830F300F030F4008E31E5268E310800C9
:101D4A000130F300F030F4008E31E5268E310800C0
:101D5A000230F300F030F4008E31E5268E310800AF
:101D6A000330F300F030F4008E31E5268E3108009E
:101D7A008F313F278E318E3140268E312000D0019F
:101D8A000800623031008D008F019101023093000A
:101D9A009201080079082000A4002408A1007A080A
:101DAA00873186278E310800F4007408F300033067
:101DBA00F335FF3E031DDD2E733520009600080023
:101DCA00740830009B0073089A001E171E14000046
:101DDA00000030001C0808002300901AF52EF62E89
:101DEA00FC2E8F0128309000910103308D000800ED
:101DFA0020005D085E040319032F042F092F5E08D3
:101E0A008A005D080A008F31080020005B085C0424
:101E1A000319102F112F162F5C088A005B080A007D
:101E2A008F3108002E000C100B143D30F3000E30D9
:101E3A00F4008E3163268F312E001614080080308C
:101E4A0027008E00FF308D00C0308C0024001F0850
:101E5A00F33904389F00080003302000A00020084E
:101E6A00F500630886315E268F312000A100210823
:101E7A00E300080055303D008F00AA308F000F1094
:101E8A003E00960155303D008F00AA308F000F1496
:101E9A000800200050080319532F542F582F8E3151
:101EAA00BD268F315C2F0130F0007008D500080084
:101EBA000930F300F030F4008E31E5268F31AA3A6A
:101ECA000319682F6A2F01306B2F00300800553034
:101EDA003D008F00AA308F000F100E303E00960092
:101EEA0055303D008F00AA308F000F140800F5010D
:101EFA00F50A2000530886315E268F312000A300A0
:101F0A002308D30053088631AE268F3108000030EB
:101F1A008F31AD278F3173082000A0007408A1000B
:101F2A000E30A136A00C890B962F20080800240039
:101F3A000E1DA02FA12FA82F0E1071088D0070085A
:101F4A008C000E14AC2F71088D0070088C000800EC
:101F5A00F600760821009E0093171313131400004D
:101F6A0021001318B92FBA2FB52F0D08F4000C0849
:101F7A00F3000800F600F501761CC42FC52FC92FFF
:101F8A007308F4007408F5070310F30D0310F60C38
:101F9A007608031DD12FD22FC12F750808007408A7
:101FAA00F6007308F500F636F50CF636F50C7508EA
:101FBA0027008D0073080339F5000530F535FF3E1B
:101FCA00031DE32F75358C00080022008E018F0156
:101FDA0090019101920193018D0121009E019B01C3
:101FEA0094019501960197019A019901980180300F
:061FFA0093009D010800A8
:020000040001F9
:0A000E00EC3FFF379F3FFF3FFF3F2D
:00000001FF
