:020000040000FA
:1000000080313728080008007E1480312E00161C2D
:100010000A280B2813280C1C0E280F2813288B31B4
:10002000AA23803135280B1F162817283528991C3C
:100030001A281B2820288F1C1E281F282028352816
:10004000191C2328242829280F1C27282828292878
:1000500035281A1C2C282D283528101C302831282A
:1000600035288D316825803135287E100900803192
:100070003928FA01FB0146308400003085001F302A
:100080008B31BC2380317E102000803147288D3198
:100090007F2580318C312B2480318531FD258031C5
:1000A0008B31C92380318B170B176F30F20007306B
:1000B000F3008B31B02380319030F2000C30F3002C
:1000C0008B31B62380318C314D2480312000931543
:1000D00013163E00CF154F160B13200062080319AC
:1000E000722873287728E2018C3121248031200086
:1000F0005C08B7003708D9005B08B7003708D8009C
:100100005A08B7003708D7006408031988288928D7
:100110008F286408610203188E288F28F22861084E
:10012000031993289428F2280130B7003708E40017
:100130000B178C319F2480312000B7003708D50081
:1001400055080139B700B70E16083706EF393706DC
:10015000960055360139B700B70EB70D16083706A9
:10016000DF39370696008131612180312000B700E8
:100170003708D6005808B7003708A4005708B80059
:100180003808A5005608B9003908A6005508BA0075
:100190003A08A700590882316E22803120005E089B
:1001A0005502031CD428D528DB2856085F02031803
:1001B000DA28DB28F3285D03031DDF28E028F32875
:1001C0005208031DE428E528F3285808B70037082B
:1001D000A0005708B8003808A10059088731B22795
:1001E0008031F3280B17200052080319F828F9284A
:1001F00044295708B700B8015908B900BA013908AD
:10020000F4003A08F5001030F6000E30F7008E3199
:100210002526803174082000BB007508BC005808F2
:10022000BD00BE013D08F4003E08F5003C30F6007C
:100230000030F7008E3125268031740820003B07FE
:10024000BF0075083C3DC00037083F07C1003808B3
:10025000403DC2004A084102C3004B08423BC40073
:100260004408803AC50080304502031D39296008E2
:100270004302031C3C293D2945298C31AE248031A1
:10028000200016176300452963002E001610200079
:10029000630803194C294D295C29E3018F31C127DB
:1002A00080310B136F30F2000730F3008B31B02335
:1002B00080310B172E000C102E0016146C28803184
:1002C000372823000F0C890C0139F40011081F395D
:1002D0007404031D6C296D296129111411187129E9
:1002E00072296E290F0C890C0139F40011081F398D
:1002F0007404031D7C297D2972299A308631962643
:10030000813123000F0C890C0139F40011081F39C9
:100310007404031D8C298D2981290130863196268C
:10032000813123000F0C890C0139F40011081F39A9
:100330007404031D9C299D29912991149118A129C8
:10034000A2299E290F0C890C0139F40011081F39CC
:100350007404031DAC29AD29A2299B308631962651
:10036000813123000F0C890C0139F40011081F3969
:100370007404031DBC29BD29B1298D319825813113
:10038000F4007408F50023000F0C890C0139F40007
:1003900011081F397404031DCE29CF29C3299116D2
:1003A0001116111AD429D529D1290F0C890C01391C
:1003B000F40011081F397404031DDF29E029D52931
:1003C00011151119E429E529E129751FE829E92901
:1003D00061290F0C890C0139F40011081F397404CC
:1003E000031DF329F429E92911141118F829F92911
:1003F000F5290F0C890C0139F40011081F39740418
:10040000031D032A042AF9299A3086319626813160
:1004100023000F0C890C0139F40011081F397404F2
:10042000031D132A142A082A0030863196268131AA
:1004300023000F0C890C0139F40011081F397404D2
:10044000031D232A242A182A91149118282A292ABC
:10045000252A0F0C890C0139F40011081F39740486
:10046000031D332A342A292A9B308631962681316E
:1004700023000F0C890C0139F40011081F39740492
:10048000031D432A442A382A8D3198258131F400EE
:100490007408F50023000F0C890C0139F4001108D1
:1004A0001F397404031D552A562A4A2A911611161B
:1004B000111A5B2A5C2A582A0F0C890C0139F400A6
:1004C00011081F397404031D662A672A5C2A111556
:1004D00011196B2A6C2A682A750808002000AC00E4
:1004E0000A30F200F030F3008C31412482312000D8
:1004F000A800A9012808AD002908AE002E08F500C3
:100500002D08F4000530F6000030F7008E31252666
:10051000823174080B3E2000AF00F030753DB00012
:100520000130F200F030F3008C31412482312000A0
:10053000A800A9012808F4002908F5000530F600F4
:100540000030F7008E31252682317408063E2000E7
:10055000AA00F030753DAB0030082B02031DB22A13
:100560002F082A020318B52AB62AC52A0B30AF0075
:10057000F030B0000930A000F030A1005530A800E4
:100580002808A2008E314426823120003008A100C4
:100590002F08A0002C08A8002808A2008E314426AD
:1005A000823120002F08013EA0000030303DA10024
:1005B0002408A8002808A2008E3144268231200099
:1005C0002F08023EA0000030303DA1002508A80001
:1005D0002808A2008E314426823120002F08033ED5
:1005E000A0000030303DA1002608A8002808A20085
:1005F0008E314426823120002F08043EA0000030B6
:10060000303DA1002708A8002808A2008E3144260A
:1006100082310A302000A000F030A1000530F20045
:100620000030F3002F08FA3EF4000F30303DF500A3
:100630008F318527823172082000A8002808A20087
:100640008E314426823100302000A000F030A1001D
:100650000530F2000030F3002F08FA3EF4000F30AE
:10066000303DF5008F318527823172082000A800C7
:100670007308A9000030F200F030F3008C314124FF
:10068000823120002807AA002D082A02AB002B087F
:10069000A2008E314426823108000A30F200003078
:1006A000F30020005C08AC00AD012C08F4002D081C
:1006B000F50084319124833172082000AE002E08A9
:1006C000B1000A30F2000030F3005C08AC00AD016C
:1006D0002C08F4002D08F5008531AA258331720815
:1006E0002000AE002E08B2000230AC002C08F4004E
:1006F00031088E31682683312000AD002D08B1000D
:1007000002303106031D852B862B9A2B04303202D2
:10071000031C8B2B8C2B8D2BB2010330AC002C08CF
:10072000F40032088E31682683312000AD002D0898
:10073000B200A62B0930AC002C08F40032088E3130
:10074000682683312000AD002D08B2000A30F20087
:100750000030F3005B08AC00AD012C08F4002D085C
:10076000F50084319124833172082000AE002E08F8
:10077000AF000A30F2000030F3005B08AC00AD01BE
:100780002C08F4002D08F5008531AA258331720864
:100790002000AE002E08B0000530AC002C08F4009C
:1007A0002F088E31682683312000AD002D08AF0060
:1007B0000930AC002C08F40030088E3168268331F3
:1007C0002000AD002D08B0000A30AC002C08F2006B
:1007D00031088D311225833120003207AD002D08FC
:1007E000DC000A30AC002C08F2002F088D311225F5
:1007F000833120003007AD002D08DB008C3121242F
:10080000833108002000AD002D080319082C092CA5
:10081000112C0A30A000F030A100A2018E31442634
:10082000843101302000A000F030A1002408AC0089
:100830002C08A2008E314426843102302000A00012
:10084000F030A1002508AC002C08A2008E3144260F
:10085000843103302000A000F030A1002608AC0055
:100860002C08A2008E314426843104302000A000E0
:10087000F030A1002708AC002C08A2008E314426DD
:10088000843105302000A000F030A1002808AC0021
:100890002C08A2008E314426843106302000A000AE
:1008A000F030A1002908AC002C08A2008E314426AB
:1008B000843107302000A000F030A1002A08AC00ED
:1008C0002C08A2008E314426843108302000A0007C
:1008D000F030A1002B08AC002C08A2008E31442679
:1008E000843109302000A000F030A100AA30AC0013
:1008F0002C08A2008E314426843100302000A00054
:10090000F030A10024082507260727072807290714
:100910002A072B07AC002C08A2008E314426843114
:1009200008002000A101F31F962C972C9E2CF209A1
:10093000F309F20A0319F30AA101A10AF51FA12C78
:10094000A22CAB2CF409F509F40A0319F50A0130BD
:10095000F6007608A106A201A30172087304031928
:10096000B22CB32CE22CA001A00ABF2C0130F2352E
:10097000F30D890BB72C0130F6007608A007F31FA2
:10098000C22CC32CB62C0130A235A30D890BC42C6C
:1009900073087502031DCE2C72087402031CD12C3F
:1009A000D22CD72C7208F4027308F53B22140130C4
:1009B000F336F20C890BD82C0130A002031DE12C78
:1009C000E22CC32C21080319E62CE72CEC2CA209FD
:1009D000A309A20A0319A30A2308F3002208F200BC
:1009E00008000A30F200F030F3008C3141248431E9
:1009F0002000A0000830F200F030F3008C314124D8
:100A000084312000A1000730F200F030F3008C3177
:100A1000412484312000A2000630F200F030F300BF
:100A20008C31412484312000A3000530F200F030E5
:100A3000F3008C31412484312000A4000430F20002
:100A4000F030F3008C31412484312000A5000330C4
:100A5000F200F030F3008C31412484312000A600F4
:100A60000230F200F030F3008C3141248431200058
:100A7000A7000130F200F030F3008C3141248431C2
:100A80002000270726072507240723072207210719
:100A90002007A8002808F400740808000A30F200B3
:100AA0000030F30020005F08A800A9012808F40026
:100AB0002908F50084319124853172082000AA00AC
:100AC0002A08AC000A30F2000030F3005F08A800EA
:100AD000A9012808F4002908F5008531AA258531E7
:100AE00072082000AA002A08AB000530A8002808D8
:100AF000F4002C088E31682685312000A9002908D1
:100B0000AC0005302C06031D862D872D8C2D323030
:100B1000A8002808DF00A52D0930A8002808F40047
:100B20002B088E31682685312000A9002908AB00EA
:100B30000A30A8002808F2002C088D3112258531D2
:100B400020002B07A9002908DF005F088E31EE2660
:100B500085310800F801F51FAE2DAF2DB62DF40933
:100B6000F509F40A0319F50AF801F80AF31FB92D7B
:100B7000BA2DBF2DF209F309F20A0319F30A72081C
:100B800073040319C42DC52DEE2DF701F70AD12DDD
:100B90000130F235F30D890BC92D0130F6007608CE
:100BA000F707F31FD42DD52DC82D73087502031D2B
:100BB000DB2D72087402031CDE2DDF2DE32D72087D
:100BC000F4027308F53B0130F336F20C890BE42D87
:100BD0000130F702031DED2DEE2DD52D78080319F8
:100BE000F22DF32DF82DF409F509F40A0319F50A8D
:100BF0007508F3007408F20008008D31B2258531C4
:100C0000003A0319042E052E462E8D3127258531F5
:100C1000003A03190C2E0D2E462E8C3108248531F6
:100C20002000B3003308E1008C310024853120001E
:100C3000B3003308D0008C31102485312000B3007C
:100C40003308E0008B31E82385312000B3003308FE
:100C5000DF008B31E02385312000B3003308DE0054
:100C60008B31D82385312000B3003308DD008B3170
:100C7000F02385312000B3003308DC008B31F823EA
:100C800085312000B3003308DB00492E8F311C274B
:100C9000853108007F2E03102000961F03140318CF
:100CA000522E552E20009617572E20009613952E63
:100CB00003102000161F031403185F2E622E20005D
:100CC0001617642E20001613952E03102000961E72
:100CD000031403186C2E6F2E20009616712E200020
:100CE0009612952E03102000161E03140318792E59
:100CF0007C2E200016167E2E20001612952E7B08C4
:100D0000F000F1017108003A0319872E952E700842
:100D1000003A03194B2E013A0319582E033A0319CE
:100D2000652E013A0319722E952E0800F300730800
:100D300023008C00901F9D2E9E2E9F2EE02E0F30A4
:100D40001005F200083072060319A72EA82EBE2E39
:100D50000F301005F2000B3072060319B02EB12EC1
:100D6000BE2E10162E000F1CB62EB72EB22E23004C
:100D70000F19BB2EBC2EE02E0F08E02E0F301005F1
:100D8000F200083072060319C62EC72ED02E0F307F
:100D90001005F2000B307206031DCF2ED02EE02E70
:100DA0000F18D32ED42ED02E0F0C890C0139F2003F
:100DB00011081F397204031DDE2EDF2ED42E1108F8
:100DC000080020009A0199019601970198010730C7
:100DD00095000F309100FF309200FF309300FF30FC
:100DE0009400FF303E00D900C730CE00EF30C30082
:100DF0000730E4000F30B800DA01E501C401B901A1
:100E0000CF01E601BA01C501D001DB01FF30BB0013
:100E1000FF30C600FF30D100FF30DC000730E700B4
:100E2000FF30BC00FF30C700FF30D200FF30DD00D4
:100E30000730E8000C303D0090001330C50014303E
:100E40003E00A3001530A40014303D00C600080089
:100E50002000AA000030A000F030A1000830F2000D
:100E6000F030F3008C31412487312000A500073099
:100E7000F200F030F3008C31412487312000A600CD
:100E80000030F200F030F3008C3141248731200033
:100E9000A70026082702A800250828022A072407F9
:100EA000A9002908A2008E3144268731073020008E
:100EB000A000F030A1002A08A5002508A2008E316C
:100EC0004426873108302000A000F030A10024081B
:100ED000A5002508A2008E314426873108000310A2
:100EE0002000961F03140318762F792F20009617E1
:100EF0007B2F20009613610803197F2F802F842FEA
:100F00000130F0007008E4073B305A020318892FC3
:100F10008A2F8F2F0130F0007008DA07A82FDA012E
:100F20003B305B020318952F962F9B2F0130F0006A
:100F30007008DB07A82FDB0117305C020318A12F14
:100F4000A22FA72F0130F0007008DC07A82FDC01CA
:100F50005A08031DAC2FAD2FB12F0130F0007008DF
:100F6000E20008002000AC00D201D20A8C31BD247E
:100F70008731FA30F2000030F3008D313C258731A3
:100F800020002108A200A3012C08A400A501240828
:100F9000F4002508F5001030F6000E30F7008E3111
:100FA0002526873174082000A6007508A7002008B0
:100FB000A800A9012808F4002908F5003C30F60033
:100FC0000030F7008E31252687317408200026076F
:100FD000AA007508273DAB0022082A07CA0023088B
:100FE0002B3DCB000800803027008E00FF308D00A5
:100FF000C0308C0024001F08F33904389F0008001B
:1017480024000E14080024000E1008002E000C10AF
:101758008C3159248B31080073082000E800720886
:10176800E700080073082000E6007208E50008009A
:10177800640080010131890BBD2B00348C31812438
:101788008B3120001613D20108008C31AE248B3126
:1017980020001613D20108002F0096019701980126
:1017A80099019A019B0108000630F200F030F3001D
:1017B8008C3141248B3108000530F200F030F30001
:1017C8008C3141248B3108000430F200F030F300F2
:1017D8008C3141248B3108000730F200F030F300DF
:1017E8008C3141248B3108000830F200F030F300CE
:1017F8008C3141248B3108000130F200F030F300C5
:101808008C3141248C3108000230F200F030F300B2
:101818008C3141248C3108000330F200F030F300A1
:101828008C3141248C310800623031008D008F01E9
:101838009101023093009201080020005B08AB0080
:101848002B08A4005C08873128278C310800200069
:10185800E401E301E201CA01CB01D401D301D201C1
:101868000800F3007308F2000330F235FF3E031D51
:10187800392C7235200096000800730830009B0050
:1018880072089A001E171E140000000030001C0881
:1018980008002300901A512C522C582C8F01283004
:1018A8009000910103308D0008002000650866044F
:1018B80003195F2C602C652C66088A0065080A00ED
:1018C8008C3108002E000C100B140230F20000308E
:1018D800F3008B31B6238C312E001614080001302A
:1018E800250090008F019101FF308D008C012E00A2
:1018F8009010803025008E00080055303D008F0084
:10190800AA308F000F103E00960155303D008F0021
:10191800AA308F000F140800200052080319952CD4
:10192800962C9A2C8B31C2238C319E2C0130F000DE
:101938007008E300080000308D3100258C317208F2
:10194800F6007308F7000E30F736F60C890BA82C52
:101958007608080055303D008F00AA308F000F1020
:101968003E00960155303D008F00AA308F000F14BD
:10197800080055303D008F00AA308F000F100E3040
:101988003E00960055303D008F00AA308F000F149E
:101998000800F401F40A20005D088E3168268C31B5
:1019A8002000A8002808DD005D088E3192268C31C1
:1019B800080024000E1DE12CE22CE92C0E10710801
:1019C8008D0070088C000E14ED2C71088D007008C5
:1019D8008C00080003302000A8002808F4005E08E6
:1019E8008E3168268C312000A9002908DE005E08A7
:1019F8008E31C0268C310800F500750821009E0044
:101A08009317131313140000210013180C2D0D2D18
:101A1800082D0D08F3000C08F2000800F500F40189
:101A2800751C172D182D1C2D7208F3007308F40768
:101A38000310F20D0310F50C7508031D242D252D38
:101A4800142D740808000030F200F030F3008C31D7
:101A580041248D31F5007508F6008431F1248D316B
:101A680076060319382D3A2D01303B2D0030080039
:101A78007308F5007208F400F536F40CF536F40C2A
:101A8800740827008D0072080339F4000530F43516
:101A9800FF3E031D4B2D74358C00080022008E017B
:101AA8008F0190019101920193018D0121009E0106
:101AB8009B0194019501960197019A01990198015A
:101AC800803093009D0108002E00101020006A0845
:101AD800F1006908F0008C31DD248D3120006708A1
:101AE80068040319782D792D7E2D68088A00670807
:101AF8000A008D3108008B31D0238D318631E126E3
:101B08008D318C3118248D318731F3278D318D310A
:101B180052258D318C3173248D318E3107268D31CC
:101B28008C3166248D3108000F3023001005F20037
:101B3800083072060319A12DA22DAB2D0F30100508
:101B4800F2000B307206031DAA2DAB2DAC2D91159A
:101B58000F1CAF2DB02DAC2D0C0808000930F20079
:101B6800F030F3008C3141248D31F4007408F60014
:101B7800F501F50AAA3076060319C32DC42DCB2D1D
:101B8800553076060319C92DCA2DCB2DF5017508D8
:101B9800080020005408031DD22DD32DE22D0D1A64
:101BA800D62DD72DE92D6230F2006630890BDA2D5B
:101BB800F20BDA2D2000D401D40AE92D0D1EE52DF3
:101BC800E62DE92DD401D101D10A080020005308DF
:101BD800031DEF2DF02DFF2D8E1AF32DF42D062E5B
:101BE8006230F2006630890BF72DF20BF72D2000DA
:101BF800D301D30A062E8E1E022E032E062ED301E3
:101C0800FA01FA0A080024008F01900104309100BB
:101C180086308D00E8308C000D082000EA00240092
:101C28000C082000E9002E0010101A140330F200EE
:101C38000030F3008B31B0238E31053024008E0044
:101C48000800F801F901741C2A2E2B2E2F2E760875
:101C5800F8077708F93D0130F635F70D890B302E76
:101C68000130F536F40C890B352E74087504031D04
:101C78003E2E3F2E272E7908F5007808F40008003C
:101C880000308B1B01302000A300210830009B008E
:101C98002000200830009A002000220830009C0014
:101CA8001E171E158B1355309F00AA309F009E14D7
:101CB8009E185F2E602E5C2E1E112000230C031C24
:101CC8008B1303188B170800F60076088C3135241F
:101CD8008E318D31CD258E318D31EA258E317A08C0
:101CE8000319772E782E892EFA010130F500750830
:101CF800F607760874020318822E832E842EF601C6
:101D080076088C3135248E316D2E20005108031948
:101D18008E2E8F2E6D2ED101760808002000A70088
:101D28000030A000F030A1000630F200F030F300DF
:101D38008C3141248E312000A4000030F200F030B4
:101D4800F3008C3141248E312000A500240825029F
:101D58002707A6002608A2008E3144268E310630B9
:101D68002000A000F030A1002708A4002408A20049
:101D78008E3144268E3108002000A7000030A000D4
:101D8800F030A1000530F200F030F3008C3141242E
:101D98008E312000A4000030F200F030F3008C31C6
:101DA80041248E312000A500240825022707A6001B
:101DB8002608A2008E3144268E3105302000A0006E
:101DC800F030A1002708A4002408A2008E31442680
:101DD8008E3108002000A7000030A000F030A100DC
:101DE8000430F200F030F3008C3141248E312000B1
:101DF800A4000030F200F030F3008C3141248E3121
:101E08002000A500240825022707A6002608A2000E
:101E18008E3144268E3104302000A000F030A1001D
:101E28002708A4002408A2008E3144268E31080019
:101E380005302000AE002E08E1001E30AE002E084E
:101E4800D0000330AE002E08E0001930AE002E0896
:101E5800DF000230AE002E08DE00DD01DC01DB0110
:101E68001E30AE002E08A4000530AF002F08A500D4
:101E78000330B0003008A6001930B1003108A700BF
:101E88000230B2003208A800A901AA01AB01013052
:101E9800843102248F3108002000B5008B31A7233C
:101EA8008F31662F83314D238F317D2F8C31CD2497
:101EB8008F317D2F85314E258F317D2F8C31EE244A
:101EC8008F317D2F20003508B300B4013408003A63
:101ED80003196F2F7D2F3308003A0319562F013A43
:101EE80003195A2F033A03195E2F013A0319622F77
:101EF8007D2F8B31A4238F3100308C3135248F31E5
:101F08000800F701F8017208730403198C2F8D2F4C
:101F1800BC2FF901F90A992F0130F235F30D890B1D
:101F2800912F0130F6007608F907F31F9C2F9D2F9B
:101F3800902F0130F735F80D890B9E2F7308750225
:101F4800031DA82F72087402031CAB2FAC2FB12FEE
:101F58007208F4027308F53B77140130F336F20C7B
:101F6800890BB22F0130F902031DBB2FBC2F9D2F07
:101F78007808F3007708F2000800FB0100308C3184
:101F880035248F310B134A30F2000630F3008B31C1
:101F9800B0238F310B17F92F8D31CD258F318D312E
:101FA800EA258F31200051080319DB2FDC2FE62F9B
:101FB800D1010130B6003608FB0700308C313524DA
:101FC8008F31F92F7A080319EA2FEB2FF92FFA012D
:101FD80000308C3135248F317B088F3150278F3179
:101FE80001302000B6003608FB0704307B02031CD2
:081FF800FE2FFF2FD02F08007F
:020000040001F9
:0A000E00EC3FFF379F3FFF3FFF3F2D
:00000001FF
