:020000040000FA
:0400000080312528FE
:100008007E1480312E00161C0A280B2813280C1C7D
:100018000E280F28132881317F21803123280B1FB8
:100028001628172823281A1C1A281B282328101CCE
:100038001E281F2823288031F920803123287E108C
:10004800090080312728813185218031A60081313E
:1000580086218031A700F001F101F201F301F401DA
:10006800F501F601F701F8017E1020008131102911
:1000780003102000961F0314031843284628200065
:1000880096174828200096130130F6070030F73DF0
:100098007708803AF9002708803A7902031D562824
:1000A80026087602031C59285A286028F601F70109
:1000B8000130F9007908F8007508803AF9008030B5
:1000C8007902031D69283B30740203186C286D28D7
:1000D80072280130F4070030F53D9C28F401F50141
:1000E8007308803AF90080307902031D7D283B307F
:1000F800720203188028812886280130F207003010
:10010800F33D9C28F201F3017108803AF900803030
:100118007902031D91281730700203189428952836
:100128009A280130F0070030F13D9C28F001F101D8
:10013800080020009A01990196019701980107305B
:1001480095000F309100FF309200FF309300FF3090
:100158009400FF303E00D900FF30CE00EF30C300DE
:100168000730E4000F30B800DA01E501C401B90135
:10017800CF01E601BA01C501D001DB01FF30BB00A8
:10018800FF30C600FF30D100FF30DC000730E70049
:10019800FF30BC00FF30C700FF30D200FF30DD0069
:1001A8000730E8000C303D009000080024008F0163
:1001B80090010430910086308D00E8308C000D08E5
:1001C8002000A50024000C082000A4002E00101018
:1001D8001A1487302000A8000130A900813173214A
:1001E8008031013024008E0008002E0010102000FD
:1001F8002508FA002408F9008131262180312000E1
:1002080022082304031909290A290F2923088A0027
:1002180022080A00813108008131372181318B178A
:100228000B173C302000A8000030A9008131732151
:10023800813178080319212922291D29F8011D294E
:100248008031252824000E1D2A292B2932290E1039
:100258007A088D0079088C000E1436297A088D00EA
:1002680079088C00080081316B21813180319D2013
:1002780081318131622181318031DA2081318131CE
:100288004721813108002E000C100B148830200003
:10029800A8000130A9008131792181312E0016147E
:1002A800080020002008210403195B295C29612922
:1002B80021088A0020080A008131080062303100D4
:1002C8008D008F01910102309300920108002F00E8
:1002D80096019701980199019A019B010800200055
:1002E8002908A3002808A200080020002908A10066
:1002F8002808A00008002E000C10813155218131FA
:0A0308000800053400340800080066
:020000040001F9
:0A000E00EC3FFF3F9F3FFF3FFF3F25
:00000001FF
