:020000040000FA
:0400000080312528FE
:100008007E1480312E00161C0A280B2813280C1C7D
:100018000E280F28132881317021803123280B1FC7
:100028001628172823281A1C1A281B282328101CCE
:100038001E281F2823288031F120803123287E1094
:10004800090080312728FB01FC017E102000813146
:100058000629F601F31F312832283928F209F30955
:10006800F20A0319F30AF601F60AF11F3C283D28A3
:100078004228F009F109F00A0319F10A700871041D
:100088000319472848287128F501F50A5428013032
:10009800F035F10D890B4C280130F4007408F50790
:1000A800F11F572858284B2871087302031D5E2832
:1000B80070087202031C6128622866287008F20220
:1000C8007108F33B0130F136F00C890B67280130D9
:1000D800F502031D70287128582876080319752819
:1000E80076287B28F209F309F20A0319F30A730840
:1000F800F1007208F000080020009A0199019601A9
:1001080097019801073095000F309100FF30920059
:10011800FF309300FF309400FF303E00D900FF30DD
:10012800CE00EF30C3000730E4000F30B800DA012A
:10013800E501C401B901CF01E601BA01C501D00149
:10014800DB01FF30BB00FF30C600FF30D100FF30BD
:10015800DC000730E700FF30BC00FF30C700FF308D
:10016800D200FF30DD000730E8000C303D00900081
:10017800080024008F0190010430910086308D0022
:10018800E8308C000D08FA000C08F9002E00101059
:100198001A1476302000A2000130A30081316421B6
:1001A8008031013024008E00080003102000961FC3
:1001B80003140318E028E32820009617E5282000F8
:1001C80096130330F0000030F1007C08F3007B0840
:1001D800F20080312D20803108002E0010107A089E
:1001E800F1007908F000813117218031770878040F
:1001F8000319FF280029052978088A0077080A00CA
:10020800813108008131282181318B17FB01FC01E4
:10021800D9302000A2000030A3008131642181314F
:1002280014298031252824000E1D1B291C29232967
:100238000E1071088D0070088C000E1427297108A3
:100248008D0070088C00080081315C21813180317B
:10025800802081318131532181318031BD2081312C
:1002680081313821813108002E000C100B147730B1
:100278002000A2000130A30081316A2181312E00C3
:100288001614080020002008210403194C294D29C0
:10029800522921088A0020080A00813108006230AA
:1002A80031008D008F019101023093009201080006
:1002B8002F0096019701980199019A019B01080066
:1002C80020002308F8002208F7000800200023086F
:1002D800A1002208A00008002E000C108131462140
:0802E800813108000800080044
:020000040001F9
:0A000E00EC3FFF3F9F3FFF3FFF3F25
:00000001FF
